:020000040800F2
:10000000F024002061EA0108C5EA0108C9EA0108F4
:1000100025E60108CDEA0108D1EA01080000000048
:10002000000000000000000000000000D5EA010808
:10003000D9EA010800000000DDEA010827E601080E
:10004000E1EA0108E5EA0108E9EA0108EDEA010848
:10005000F1EA0108F5EA010833E60108F9EA0108C6
:10006000FDEA010801EB010805EB010809EB0108B5
:100070000DEB010811EB010841DE010831DE01083A
:1000800015EB010819EB01081DEB01083DE601081D
:1000900047E6010851E6010821EB010857CC0008AA
:1000A00025EB010829EB01085BE601082DEB0108AF
:1000B00031EB010835EB010839EB01083DEB010894
:1000C00041EB010869E6010873E6010845EB010808
:1000D00049EB01084DEB010851EB010855EB010814
:1000E00059EB01085DEB010861EB010865EB0108C4
:1000F0007DE601088BE6010869EB01086DEB01085C
:1001000099E6010871EB010875EB010879EB01082C
:100110007DEB010881EB010885EB010889EB010803
:100120008DEB010891EB010895EB010899EB0108B3
:100130009DEB0108A1EB0108A5EB0108A9EB010863
:10014000ADEB0108B1EB0108B5EB0108A9E6010828
:10015000B9EB0108BDEB0108C1EB0108B3E60108EA
:10016000C5EB0108C9EB0108CDEB0108D1EB010893
:10017000D5EB0108D9EB0108DDEB01080000000018
:10018000E1EB0108E5EB0108E9EB0108EDEB010803
:10019000F1EB0108F5EB0108F9EB0108FDEB0108B3
:1001A000BDE60108C7E60108D1E6010801EC010837
:1001B00005EC010809EC01080DEC010811EC01083F
:1001C00015EC010819EC0108000000000000000017
:1001D000000000000000000000000000000000001F
:1001E0000011880000000000000000000000000076
:1001F00000000000000000000000000000000000FF
:1002000000000000000000000000000000000000EE
:100210000000000066666666000000000000000046
:1002200000000000000000000000000000000000CE
:100230000000000060000000660000006600000092
:1002400066000000660000006666666666000000E4
:100250006600000066000000660000000600000066
:1002600000000000000000006000000066000000C8
:1002700066000000660000006600000066000000E6
:1002800066000000660000006600000066000000D6
:1002900006000000000000000000000060606060D8
:1002A00066666666666666666666666666666666EE
:1002B00066666666666666666666666666666666DE
:1002C000666666660606060600000000000000007E
:1002D00060600000666600006666000066660000FA
:1002E0006666000066666666666600006666000012
:1002F000666600006666000006060000000000005A
:100300000000000060606000666666006666660069
:1003100066666600666666006666666666666600AF
:100320006666660066666600666666000606060025
:1003300000000000000000000000000000000000BD
:1003400000000000000000000000000000000000AD
:10035000000000000000000000000000000000009D
:10036000000000000000000000000000000000008D
:10037000000000000000000000000000000000007D
:10038000000000000000000000000000000000006D
:10039000000000000000000000000000000000005D
:1003A000000000000000000000000000000000004D
:1003B000000000000000000000000000000000003D
:1003C000000000000000000000000000000000002D
:1003D000000000000000000000000000000000001D
:1003E000000000000000000000000000000000000D
:1003F00000000000000000000000000000000000FD
:1004000000000000000000000000000000000000EC
:1004100000000000000000000000000000000000DC
:1004200000000000000000000000000000000000CC
:1004300000000000000000000000000000000000BC
:1004400000000000000000000000000000000000AC
:10045000000000000000000000000000000000009C
:10046000000000000000000000000000000000008C
:10047000000000000000000000000000000000007C
:10048000000000000000000000000000000000006C
:10049000000000000000000000000000000000005C
:1004A00000000070000071CF0010CE000033080083
:1004B0000067000000CE000000CC000000EC00004F
:1004C00000760000003380000001EC00000017FC03
:1004D00000000007E0000000FFE80000FFFF8000D0
:1004E000FFFFCC00FFFFEE00FFFFFF00FFFFFF005C
:1004F000FFFFFF00FFFFEE00FFFFCC00FFFF080043
:10050000FF8E00000E00000000000010001000111F
:100510000013C8F300007F0C0000C60000108C0020
:1005200000FF88000001C80000006C000000F7C058
:1005300000318C3F0001001100000001800000002C
:1005400088008000FC318C0003EF000000360000C2
:10055000001380000011FF0000310800006300005C
:1005600030FE0000CF13C80088000800080000001B
:100570000000000000000060000010EE0000736E3C
:100580000010CE6677FF08666666006677FF8066B5
:100590000001EC66000037E6000001EE00000006F6
:1005A00000000000000000000000C00000007E000D
:1005B00000763380303391883391998811999988E6
:1005C0003319998803331988006733080000E7005E
:1005D00000000C00000000000000000000000060AF
:1005E000000010EE1380733D006CCEC677DBB16A5D
:1005F0006666EE6677BD1BA600C6EC6C310837D385
:10060000000001EE000000060000000000000000F5
:1006100000000000000000000000000000000000DA
:1006200000000000000000000000000000000000CA
:1006300000000000000000000000000000000000BA
:1006400000000000000000000000000000000000AA
:10065000000000000000000000000000000000009A
:10066000000000000000000000000000000000008A
:10067000000000000000000000000000000000007A
:10068000000000000000000000000000000000006A
:10069000000000000000000000000000000000005A
:1006A000000000000000000000000000000000004A
:1006B000000000000000000000000000000000003A
:1006C000000000000000000000000000000000002A
:1006D000000000000000000000000000000000001A
:1006E000000000000000000000000000000000000A
:1006F00000000000000000000000000000000000FA
:1007000000000000000000000000000000000000E9
:1007100000000000000000000000000000000000D9
:1007200000000000000000000000000000000000C9
:1007300000000000000000000000000000000000B9
:100740000000000000000000000010880000738816
:100750000010FF880073FF8810FFFF8813FFFF88D9
:10076000007FFF880013FF8800007F880000138847
:1007700000000008000000000000000011800000E0
:1007800011EC000011FF800011FFEC0011FFFF8051
:1007900011FFFF8C11FFEF0011FF8C0011EF000023
:1007A000118C0000010000000000000000000000AB
:1007B00000000000001080000031C8000073EC0051
:1007C00000F7FE0010FFFF8031FFFFC873FFFFEC52
:1007D00077FFFFEE000000000000000000000000B6
:1007E00000000000000000000000000077FFFFEEA6
:1007F00037FFFFCE13FFFF8C01FFFF08007FEF00E4
:100800000037CE0000138C0000010800000000003B
:1008100000000000000000000000000000000000D8
:1008200000000000000000000000000000000000C8
:1008300000000000000000000000000000000000B8
:1008400000000000000000000000000000000000A8
:100850000000000000000000000000000000000098
:100860000000000000000000000000000000000088
:1008700000000000000000000000000000108000E8
:100880000011880000118800001188000011880004
:10089000001188000011880000010800001080008D
:1008A0000033CC0000010800000000000000000040
:1008B00000E0700000EE770000EE330000EE330041
:1008C0000000000000000000000000000000000028
:1008D0000000000000000000000000000000000018
:1008E00000000000000000000066118800663188EA
:1008F00070F6F3E007CF3F0E00CC330000CC33009E
:1009000077FFFFEE00CC6700118C6600010806003F
:1009100000000000000000000000C6000070FC00A5
:1009200010CFCF883388CC0033D9880001FFC800AE
:100930000013FFC0003189CC003310CC32F3F38CAC
:10094000013F0E00006700000000000010E0007092
:10095000673F00CE6633318876E37300030CC60030
:1009600000118C00007330C000C6E76E118CCC778C
:1009700073007CE60600030C00000000000000008D
:100980000070C00010CF7E001188330011C86700CE
:1009900001FD8E0010FF00E0731BC8CE67007ECC07
:1009A0007700378833F8F7EC000F080F00000000DD
:1009B000000000000010C0000011CC0000118C00ED
:1009C000001188000000000000000000000000008E
:1009D0000000000000000000000000000000000017
:1009E0000000000000000000000072000000C600CF
:1009F00000318C00003308000067000000E60000B2
:100A000000EE000000EE000000660000007700002D
:100A1000003388000001EC0000007E0000E40000CC
:100A2000003700000013C8000000EC0000006E005A
:100A300000007700000077000000770000006700EA
:100A40000000EE000010CC000033080000E70000BA
:100A5000001080001011888001FDF9080033CC00DF
:100A600010DFBF80011188080001080000000000AD
:100A70000000000000000000000000000000000076
:100A80000000000000000000000000000000000066
:100A900000118800001188000011880077FFFFEE28
:100AA000001188000011880000118800000000007B
:100AB0000000000000000000000000000000000036
:100AC0000000000000000000000000000000000026
:100AD0000000000000000000003080000033CC0067
:100AE0000011CC0000318C0011EF0000000000006C
:100AF00000000000000000000000000000000000F6
:100B00000000000000FFFF000000000000000000E7
:100B100000000000000000000000000000000000D5
:100B200000000000000000000000000000000000C5
:100B300000000000000000000000000000000000B5
:100B40000031C8000033CC000001080000000000A4
:100B500000000000000010C00000318800003300D9
:100B6000000066000000CE0000118C0000318800FB
:100B70000073000000E6000000CC0000118C0000B3
:100B800033080000000000000000000000F3FE0039
:100B9000118C13C8330810CC730073EE77108EEEEF
:100BA00077E300EE338C00CE338811CC01FCF308E0
:100BB00000070E0000000000000000000000000020
:100BC0000071CC00319FCC000111CC000011CC0091
:100BD0000011CC000011CC000011CC000011CC00A1
:100BE00010F1FCC0010F0F0C00000000000000001D
:100BF0000000000010F7FC0013083788000013887D
:100C000000003188000073080010EF0000338C00F2
:100C100000E7000031FCF0C0030F0F0C00000000E3
:100C2000000000000000000010FFFC0001003788F9
:100C300000003188000073080077FE00000013C830
:100C4000000011CC0000118C30F0F708030F0C00ED
:100C50000000000000000000000000000000FF0095
:100C60000031BF000073330000E63300118C330005
:100C70003308330076F0F3E0070F3F0E0000330037
:100C80000000030000000000000000000000000061
:100C900011FFFF88118800001188000011880000F2
:100CA00011FFFE00000017C8000011CC0000318CBD
:100CB00010F0F708010F080000000000000000001D
:100CC000000000000030FF8800CF00001188000005
:100CD00033B8F00033CF1FC8330000EC338800EE88
:100CE000138810CC01FCF38800070E000000000000
:100CF000000000000000000033FFFFCC000010CC1B
:100D000000003188000073000000E6000010CC00F5
:100D1000003188000073080000E70000000E0000AA
:100D200000000000000000000000000000F7FE804E
:100D3000318C13CC338810CC11EC718C003FEE0059
:100D400010CF3FC8338801CC338800CC13FCF38C20
:100D500000070E000000000000000000000000007E
:100D600000F7FE00318C1388330011CC330000CC27
:100D700033C810CC017FEFCC000010CC00003188CC
:100D800010F0CF00010F0000000000000000000084
:100D90000000000000000000000000000010C00083
:100DA0000033CC0000010C00000000000000000037
:100DB0000010C0000033CC0000010C000000000057
:100DC0000000000000000000000000000000000023
:100DD0000010C0000033CC0000010C000000000037
:100DE00000000000001080000033CC000011CC0097
:100DF00000318C0000EF0000000000000000000047
:100E000000001000000073080031CE0000E7000071
:100E100031CC0000007E00000013EC0000003780A1
:100E200000000100000000000000000000000000C1
:100E300000000000000000000000000000000000B2
:100E400033FFFFCC0000000030F0F0C0030F0F0CA8
:100E50000000000000000000000000000000000092
:100E600000000000000000000080000001FC000005
:100E70000017C80000007E00000033CC0000E7002F
:100E800000718C0010CF000000080000000000007E
:100E90000000000000F00000000FFC0000003780A0
:100EA00000001388000033880033EF000033000097
:100EB00000030000003000000077880000030000FD
:100EC00000000000000000000010F00000E71FC854
:100ED000118C006E330000366631FF3366673333A2
:100EE000CCCE6733CCCC6623CCCCE666CC7F3F8CB3
:100EF000660000007600000013F8F100000000001A
:100F00000033CC0000636E000066760000CE370030
:100F100010CC33881188118833F8F1CC730F0FECA3
:100F20006700006E0E0000070000000000000000D7
:100F30000000000033FFFE80338813C8338811CCD3
:100F40003388318833FFFE80338813CC338800EE3A
:100F5000338810CC33F8F38C030F0E000000000030
:100F600000000000000000000071FFC810CE000467
:100F700033880000330000007700000037000000D5
:100F80003380000013C8000001FEF0C400030F0806
:100F900000000000000000000000000033FFFC0023
:100FA000330017C8330001EC330000EE330000EECD
:100FB000330000EE330000EE330011CC33F0F708BD
:100FC000030F080000000000000000000000000007
:100FD00011FFFF88118800001188000011880000AF
:100FE00011FFFF881188000011880000118800009F
:100FF00011F8F080010F0F08000000000000000051
:101000000000000011FFFF8811CC000011CC00008F
:1010100011CC000011FCF08011CF0F0811CC0000A2
:1010200011CC000011CC0000010C000000000000F9
:1010300000000000000000000071FFC810CE000496
:1010400033880000770000007700F0C077000FCCF5
:10105000370000CC33C800CC01FEF0CC00030F08F1
:10106000000000000000000000000000330000EE5F
:10107000330000EE330000EE330000EE33FFFFEEEE
:10108000330000EE330000EE330000EE330000EEDC
:101090000300000E0000000000000000000000003F
:1010A00011FFFFCC0011880000118800001188009A
:1010B00000118800001188000011880000118800CC
:1010C00010F1F8C0010F0F0C00000000000000003C
:1010D0000000000011FFFF88000033880000338803
:1010E0000000338800003388000033880000338814
:1010F0000000330011F0E700000F080000000000BE
:1011000000000000000000003388318C3388730831
:101110003388CE0033B9880033EF000033BF80003E
:101120003389EC0033887E00338813C80308010E2E
:1011300000000000000000000000000011CC0000D2
:1011400011CC000011CC000011CC000011CC00002B
:1011500011CC000011CC000011CC000011FCF0C03B
:10116000010F0F0C00000000000000000000000054
:10117000338811EE33CC31EE774C236667666666B2
:101180006632C46666138C66660108666600006691
:101190006600006606000006000000000000000077
:1011A0000000000033C800CC33EC00CC336600CC28
:1011B000333300CC331388CC3301CCCC33006ECC2A
:1011C000330036CC330033CC0300010C00000000A8
:1011D000000000000000000000F3FE80318C13CC02
:1011E000730000EE7700006E7700006677000066FF
:1011F000770000EE338010CC01FCF30800070E00EE
:1012000000000000000000000000000033FFFE802E
:10121000338813CC338800EE338800CE3388318C8A
:1012200033FFCF003388000033880000338800008C
:1012300003080000000000000000000000000000A3
:1012400000F3FE80318C13CC730800EE7700006E43
:101250007700006677000066770000EE338010CEDE
:1012600011FCF30800178E000011EC2000003FEF86
:101270000000000011FFFE80118813C8118811CCF6
:101280001188718811FFCF0011887E001188370006
:1012900011881388118801CC0108000E000000009D
:1012A000000000000000000000F3FF80318C000807
:1012B0003388000013E80000007FF80000003FC8FA
:1012C000000001CC000010CC32F0F38C010F0E00B6
:1012D00000000000000000000000000077FFFFEEAB
:1012E000001188000011880000118800001188009A
:1012F000001188000011880000118800001188008A
:1013000000010800000000000000000000000000D4
:10131000330000EE330000EE330000EE330000EE49
:10132000330000EE330000EE330000EE338010CCCB
:1013300011FCF38800070E00000000000000000010
:10134000000000006E000077770000E6338000CEDA
:10135000138811CC11CC318800EC3308006E770073
:101360000077E6000033CE0000030C000000000010
:1013700000000000000000006600006666000066D5
:1013800066000066761188667733CC6637236C6614
:10139000336666EE33C637CC33CC33CC0308010C4E
:1013A000000000000000000000000000378010CEA8
:1013B00013C8318C00EC77000077EE000033CC00CE
:1013C0000073EC0000EF770011CC3388730801EC58
:1013D0000F00000F000000000000000000000000EF
:1013E0007E0000E7378010CE11CC318C00EE730008
:1013F0000077E6000013CC0000118800001188007F
:10140000001188000001080000000000000000003A
:101410000000000033FFFFCC0000318800007300A3
:101420000000CE0000118C000033080000E6000030
:1014300010CC000031F8F0E0030F0F0E00000000A8
:10144000000000000077FF0000660000006600005A
:1014500000660000006600000066000000660000F4
:1014600000660000006600000066000000660000E4
:10147000006600000076F00070000000338000007D
:1014800011C8000000CC000000660000003700001A
:10149000001388000011C8000000EC000000760076
:1014A00000003300000013880000000011FFCC0092
:1014B0000000CC000000CC000000CC000000CC00FC
:1014C0000000CC000000CC000000CC000000CC00EC
:1014D0000000CC000000CC000000CC0010F0CC00DC
:1014E000000000000031C80000636E0000CC37002F
:1014F000118811C80300000C00000000000000006B
:1015000000000000000000000000000000000000DB
:1015100000000000000000000000000000000000CB
:1015200000000000000000000000000000000000BB
:1015300000000000000000000000000000000000AB
:1015400000000000F0F0F0F000000000017E00005C
:101550000003080000000000000000000000000080
:10156000000000000000000000000000000000007B
:10157000000000000000000000000000000000006B
:1015800000000000000000000070E000118F3F88A4
:10159000000011CC0070F1CC31CF1FCC338811CCBE
:1015A00013F8F7CC000F080C00000000000000004A
:1015B0003080000033880000338800003398F0004A
:1015C00033EB1FC8338C01CC338800EC338800CE5A
:1015D000338810CC33F8F308000F0C000000000033
:1015E00000000000000000000000000000000000FB
:1015F0000010F00000E70F88118C00003388000015
:101600003388000011C8000000FEF08800030F00BE
:101610000000000000000000000010C0000011CC1D
:10162000000011CC0030F1CC10CF1FCC338811CC8E
:10163000330011CC330011CC338031CC11FCC7CC3A
:10164000000F080C00000000000000000000000077
:1016500000000000000000000030E00010CF3F88D4
:10166000318801CC33F0F0CC330F0F0C33880000FD
:1016700001FCF0CC00030F0000000000000000009F
:10168000000070E00031CF0E00330800003300008E
:1016900070F3F0E0073F0F0E00330000003300004E
:1016A00000330000003300000003000000000000D1
:1016B000000000000000000000000000000000002A
:1016C0000070F0E010CF3F8E3388118813C8318846
:1016D00011FFEF003300000013F8F080318F0FECA2
:1016E000770000EE33F8F18C308000003388000082
:1016F000338800003398F00033EB3F88338C11CCF3
:10170000338811CC338811CC338811CC338811CC79
:101710000308010C00000000000000000010C000E1
:101720000033CC0000010C0010F0C000011FCC0001
:101730000011CC000011CC000011CC000011CC0035
:1017400010F1FCC0010F0F0C0000000000000000B1
:10175000000070000000FF000000070010F0F00023
:10176000010F3F0000003300000033000000330091
:101770000000330000003300000073000000770019
:1017800032F0CE00108000001188000011880000A7
:10179000118810E0118873081198CE0011FB080021
:1017A000119BC80011887E00118833C80108010E02
:1017B000000000000000000010F0C000011FCC007D
:1017C0000011CC000011CC000011CC000011CC00A5
:1017D0000011CC000011CC000011CC0010F1FCC0B5
:1017E000010F0F0C000000000000000000000000CE
:1017F0000000000000000000607010C0769FEBEC5D
:101800007719CC66771188667711886677118866B4
:10181000771188660701080600000000000000003C
:101820000000000000000000000000003090F00008
:1018300033EF3F88338C11CC338811CC338811CCF3
:10184000338811CC338811CC0308010C0000000050
:101850000000000000000000000000000000000088
:101860000070E00010CF3FC8330801CC730000EED9
:10187000770000EE338010CC11FCF30800070E0057
:101880000000000000000000000000000000000058
:10189000000000003090F00033EB1FC8338C01CC07
:1018A000338800EC338800CE338810CC33F8F3084B
:1018B000338F0C00338800003388000000000000E4
:1018C00000000000000000000030F0C010CF1FCC6E
:1018D000338811CC330011CC330011CC338031CCA0
:1018E00011FCD7CC000F19CC000011CC000011CC9A
:1018F0000000000000000000000000001080F080E8
:1019000011FB1FCC11CE00EE1188000011880000E1
:10191000118800001188000001080000000000008C
:1019200000000000000000000000000000000000B7
:101930000030F00010CF1F8811C8000001FEC00069
:1019400000037F80000011CC11F0F308000F0E009F
:101950000000000000000000000000000062000025
:101960000066000070F6F0C0076F0F0C0066000004
:101970000066000000660000007600000037F8C036
:1019800000010F0C0000000000000000000000003B
:101990000000000000000000308010C0338811CC2F
:1019A000338811CC338811CC338811CC338831CCB7
:1019B00011FCE7CC000F080C000000000000000044
:1019C000000000000000000000000000700000E0C7
:1019D000338010CC1388118C01CC330800EC7300D9
:1019E000007666000033CC0000030C00000000000D
:1019F00000000000000000000000000000000000E7
:101A00006000006066000066761188663733CCEEB1
:101A100033236CCC33E676CC33CC33CC010C030CC3
:101A200000000000000000000000000000000000B6
:101A300000000000708000E013CC318C007E770045
:101A40000037CE000073EC0000E63780318C13C8FD
:101A50000708000E00000000000000000000000069
:101A60000000000000000000700000E0338010CC97
:101A70001388118C01CC330800EE73000076E60069
:101A80000033CC0000338C000073080070CE0000DF
:101A900000000000000000000000000010F0F080D6
:101AA000010F3F88000067000010CC0000330800E1
:101AB00000E6000011FCF0C0030F0F0C0000000056
:101AC000000000000000F78800118C00003388003F
:101AD00000338800003388000073000033EE0000FC
:101AE000003780000033880000338800003388000E
:101AF000001388000011FC8000118800001188008C
:101B00000011880000118800001188000011880071
:101B10000011880000118800001188000011880061
:101B200000118800001188000011880011FE80005B
:101B30000013C8000011CC000011CC000011CC0033
:101B40000000EC00000077CC0000CE000000CC00CC
:101B50000000CC000000CC000011CC0010F3880085
:101B60000000000000000000000000000000000075
:101B70000000000031FE00606713C8E606007F8C9D
:101B80000000000000000000000000000000000055
:101B90000000000000000000000000000000000045
:101BA0000000000000000000000000000000000035
:101BB0000000000000000000000000000000000025
:101BC00000000000000000000000000000000030E5
:101BD0000000003300000033000000330000003339
:101BE00030F0F0F033FFFFFF33FFFFFF33FFFFFF65
:101BF00033FFFFFF030F0F0F00000000FFFFFFFF89
:101C0000CF0F3FFFCC0033FFCC0033FFCC0033FFBE
:101C1000CC0033FFFFCF0F3FFFCC0033FFCC0033AE
:101C2000FFCC0033FFCC0033FFFCF0F3FFFFFFFFDE
:101C3000FFFFFFFFCF3FCF0FCC33CC00CC33CC0026
:101C4000CC33CC00CC33CC00FFCF3FCFFFCC33CC58
:101C5000FFCC33CCFFCC33CCFFCC33CCFFFCF3FC3C
:101C6000FFFFFFFF00000000F0F0F0C0FFFFFFCC1F
:101C7000FFFFFFCCFFFFFFCCFFFFFFCCC000000049
:101C8000CC000000CC000000CC000000CC00000024
:101C90000C00000000000000FFFFFFFFCF0F3FFF20
:101CA000CC0033FFCC0033FFCC0033FFCC0033FF3C
:101CB000FFCF0F3FFFCC0033FFCC0033FFCC00330E
:101CC000FFCC0033FFFCF0F3FFFFFFFFFFFFFFFF40
:101CD0003FCF3FFF33CC33FF33CC33FF33CC33FF25
:101CE00033CC33FF0F3FCF3F0033CC330033CC3303
:101CF0000033CC330033CC33F0F3FCF3FFFFFFFFB2
:101D000000000000000000000000000000000000D3
:101D100000000000000000000000000000000000C3
:101D200000000000000000000000000000000000B3
:101D300000000000FFFFFFFFFFFFFFFFFFFFFFCFDF
:101D4000FFFFFF08FFFFCEC4FF0F39CCFF3333CCBA
:101D5000FF0033CCFFFFC9CCFFFFFE04FFFFFFC82D
:101D6000FFFFFFFFFFFFFFFFFFFFFFFFFFFFFFFF83
:101D7000FFFFFFCFFFFFFF08FFFFCEC4FF0F39CCEF
:101D8000FF3333CCFF0033CCFFFFC9CCFFFFFE0491
:101D9000FFFFFFC8FFFFFFFFFFFFFFFF0000000086
:101DA000000000000011C80000C07E00003E138843
:101DB000339199881199998811999988331999883B
:101DC00000E33188000CE70000118C0000000000E7
:101DD000FFFFFFFFFFFFFFFFFFEE37FFFF3F81FF2A
:101DE000FFC1EC77FFEE6677FFEE6677FFEE667772
:101DF000FFEE6677FF1CCE77FFF318FFFFEE73FF51
:101E0000FFFFFFFFFFFFFFFFFFFFFFFFFFEE37FFBB
:101E1000FFFF81FFFFFFEC77CC7FEE77EE77EE7769
:101E2000EE77EE77CCF7EE77FFFFCE77FFFF18FF68
:101E3000FFEE73FFFFFFFFFF0000000031FFFFFF19
:101E400077FFFFFF77FFFFFF37FFFFFF010F0F0E49
:101E50000000000000000000000000000000000082
:101E6000000000000000000000000000FFFFFFFF76
:101E7000CE00000098FFFFFE99FFFFFFC80F0F0E76
:101E8000FEF0F0F1FFFF8F1FFFFF887FFFFFBA1307
:101E9000FFFFFFC8FFFFFFFFFFFFFFFFFFFFFFFF89
:101EA000FFFFFFFFCE00000098AFAFBE99AFAFBFFE
:101EB000C80F0F0EFEF0F0F1FFFFFFFFFFFFFFFF67
:101EC000FFFFFFFFFFFFFFFFFFFFFFFFFFFFFFFF22
:101ED000FFFFFFFF0000000080000000CC000000BA
:101EE000CC00000008000000000000000010F0001E
:101EF0000073FFC800FFFFEE00FFFFEE007FFFCE84
:101F00000013FF0800000000FFFFFFFF7FFFFFFF3F
:101F1000330FFFFF33E055FFF7FF11FFFFFCF1FF29
:101F2000FFEF0FFFFF9CF037FF33FF993333FF992B
:101F3000FF93FF39FFEC00F7FFFFFFFFFFFFFFFFFD
:101F40007FFFFFFF33FFFFFF33FFFFFFF7FFFFFFC1
:101F5000FFFFFFFFFFEF0FFFFF9CF037FF33BF993D
:101F6000FF33B199FF93FF39FFEC00F7FFFFFFFF4D
:101F7000000010070010080000001023000800A255
:101F8000000000F1100AC3FF804000080053000069
:101F90000055008D1004780808C2800001FEF6800C
:101FA000000F0FB800002008000004600042000885
:101FB000000410010000007000FC03FF403FFEF031
:101FC0008001FFFF8888FF8849000F08003000006B
:101FD00000FEE800004F1F4F0000200800100460C2
:101FE000004200FE008C11DD008830461000353FB5
:101FF000420000078077000088BB00775B77F0F72E
:1020000000BB7FFF11F1DD7F0070F177000020F849
:102010000000FB9F0073EF1A00FBEF3200FFFF7E12
:1020200000953E40B3AC03777FDDB8F0774581057E
:10203000D6CC4700089C80001181CA800077FF77CA
:102040000F400000000048002208020025880080A0
:10205000F0400000FF8E43886100201000E12C005A
:102060000A00020000003250000094000071F608DF
:10207000E00F0E080028000030008000440420001B
:1020800040441000FD280000FFDE308890F9CF00AA
:10209000FFCF0211000010110000002900002000F5
:1020A0000010FE001F471E08002800003001C0007D
:1020B00077CC220076C411802FA80088AD7D000067
:1020C0000E0800240030EE11FDFFFD11FFFFED3D75
:1020D000FFFF6B00FFFF6F88FFFEF300F0A800001A
:1020E000CFFF0800E873CC00E9BBEF00E397FF885F
:1020F0005263BC009E8751FCF02611EE0A0013EEDD
:102100000000036E0000F70000108F88FFF7FF004B
:102110000000000000F7EE00110C3380000031CC0D
:102120000000138C000077800000C60000710800DA
:1021300010EE000033FCF0E0030F0F0E0000000073
:102140000000000000000000000012000008240849
:102150000000200000001008000002000000004005
:1021600000001104000021042000140802000400F3
:1021700000000000000000000000000021001080AE
:102180000200604800000244000094800088008043
:102190000000244400000026000003440000100852
:1021A000000000000000000000000000000000002F
:1021B00010FFFE0001081380000013880000730068
:1021C00000FFFC0000001788000000CC000030C8B1
:1021D00010F0E300010F0800000000000000000004
:1021E00000000000000008000020800000500000F7
:1021F00000200000214400000208000080000010C0
:1022000008000001000000000000000000000000C5
:102210000000000000000000001108880002C088D3
:1022200000D44C88100944880006448846884488B5
:1022300009000408000040800000448800000408F1
:102240000000000000000000000000000010F70087
:102250000011FF0000237F0000CE770030CC770014
:1022600071007700F7F0F7F00F0F7F0F0000770095
:102270000000070000000000000000000000000057
:1022800000000088004400000044000000440000FA
:10229000000002000000244400001144000020045B
:1022A0000000100800000000000000000000000016
:1022B00000000000220000CC2200000022000000EC
:1022C0002200000022000080000000400000336671
:1022D000000002442000080002000400000000008A
:1022E000000000000000000011FFFF8811CC00007A
:1022F00011CC000011CC000011FFFC800000338CD9
:10230000000000CC000011C830F0E700030F0C0003
:102310000000000000000000000000000000004479
:10232000000800000080000002881000004000400B
:102330000000002200880022020811000000028034
:102340000004020000000000000000000000000087
:10235000004100001020080022C400004648000090
:10236000440020644488110044801100264C00225F
:10237000120206040000020000000000000000003D
:10238000000000000071FFCC10E70000318C00005D
:102390003170E000338F3FC8338801CE330000CC6A
:1023A00031C801CE01FEF10C00030C00000000005A
:1023B0000000000000000000440000220000004077
:1023C00000000080000010080000A900001140007B
:1023D00000220000004408000091000000020000FC
:1023E00000000000000000000000000000000000ED
:1023F0000000210200004284000094000010B000A0
:10240000003062000060440000008000000800000E
:1024100001020000000000000000000000000000B9
:1024200077FFFFEE0000118C000033080000670802
:1024300000006F000001CE0000138C000037000088
:1024400000760000000C000000000000000000000A
:102450000000000000040080208412442288104004
:102460000014428400400000002040480280000226
:10247000048801200204028400080000000000001B
:102480000000000000000000100C01C002C6306413
:1024900066C801622204C080010011002100004CC6
:1024A0004604122040801002260600C400000100ED
:1024B00000000000000000000000000010F3FF809A
:1024C000118C01C8118001CC13F83308007FFF0084
:1024D00010EF7F88310811EE370011EE11FCF18802
:1024E000000F0E00000000000000000000000000CF
:1024F0001004020002842408040011040080102249
:1025000020480122000030020000104400004280F8
:1025100000000100000008000000000000000000B2
:1025200000000000000C008040C6004C40880324DE
:1025300044080100640020000280002000003106F1
:102540000000000420012100020000000000000043
:10255000000000000000000010F3FC00338C37C8BE
:10256000770800C8778011EE138031EE01FFDFCECF
:102570000000018C0000730830F0EE00030F08002B
:10258000000000000000000000001007001008001C
:1025900000001023000800A2000000F1100AC3FF91
:1025A00080400008005300000055008D100478089A
:1025B00008C2800001FEF680E00F0FB8000020087E
:1025C00000000460004200080004100300000070D6
:1025D00000FC03FF403FFEF08001FFFF8888FF887A
:1025E00049000F080030000000FEE800004F1F4FB8
:1025F0000000A0080031046000C2003A008C11D134
:10260000008830463100353F4A00000780770000DF
:1026100088BB00355B56707781BB7FFF11F1DD3FD2
:102620000070F177000020F80000FB9F0073EF1AA4
:1026300000FBEF3000FFFF7E00953E40B3AC037718
:102640007FDDB8F077458105D6CC4700089C800037
:102650001181CA80E077FF770F400000000048003A
:102660002208020025880080F0400000FF8E438889
:102670006100201000E12C000A000200000032502E
:10268000000094000071F608E00F0EF8002800002A
:10269000300080004404200040441000FD28000069
:1026A000FFDE308890F9CF00FFCF0211000010113B
:1026B00000000029000020000010FE001F471E0837
:1026C000002880003001E400664C220074C41188A8
:1026D0002FA80088AD7D00400E08002700206E1155
:1026E000F8FBDD11FFFFEDBDFFFF6B02FF7F6F8881
:1026F000FFFEF300F0A80000CFFF0800E873CC0055
:10270000E9BBEF00E397FF885263BC009E8751FC52
:10271000F02611EE0A0013EE0000036E0000F70031
:1027200000108F88FFF7FFF000000000000000009D
:102730000000000000000000000000000000000099
:10274000000000C0C0C0404040404040400000E0A9
:10275000E00000000000000000D8D8D8D8D8C80099
:102760000000000000000000000000000000000069
:1027700000000000001200120012003200FF80FF73
:1027800080260026002400FF006400640044004C02
:102790000000000000000000000000000000080829
:1027A0003F604060703C0E07030303FE38080800DA
:1027B000000000000000000000007030C8208C60A5
:1027C000844084808480CD3C79660246064204427F
:1027D00008460864103C00000000000000000000F3
:1027E00000000000000000003E00230063006300C2
:1027F00026003C0038206C60CE60864083C0C180DB
:10280000E3C07E6000000000000000000000000047
:1028100000C0C0C0C0C0C000000000000000000038
:10282000000000000000000010302060604040C048
:10283000C0C0C0404060602030100000000000C0F8
:102840006020303010101818181810103030206028
:10285000C00000000000004C2830FE28684800003E
:102860000000000000000000000000000000000068
:102870000000000000000000040004000400040048
:102880000400FFE004000400040004000400000051
:102890000000000000000000000000000000000038
:1028A0000000000000000030606060408000000018
:1028B0000000000000000000000000F80000000020
:1028C0000000000000000000000000000000000008
:1028D000000000000000E0C0000000000000000058
:1028E000000606040C080818103020206040C0C004
:1028F0000000000000000000000000001C007F003D
:102900006300C180C180C180C180C180C180C1809D
:10291000C180430067003E0000000000000000008E
:102920000000000000001878D81818181818181897
:102930001818181800000000000000000000000037
:10294000003C00FE00030003000300030003000638
:10295000000C001C0038007000FF80FF80000000A9
:1029600000000000000000000000003C7E030303A4
:10297000063C0E03030303C7FC0000000000000038
:102980000000000000000300030005000D00090026
:102990001900310061004100FFC001000100010089
:1029A0000100000000000000000000000000000026
:1029B0003F7F606040787E0703030303C6FC00008E
:1029C000000000000000000000000007001F0030B1
:1029D000006000C000DE00F700C180C180C180C17E
:1029E00080C18063003E0000000000000000000085
:1029F000000000000000000000FF80FF80010003D5
:102A0000000200060004000C000800180018003046
:102A10000030006000000000000000000000000026
:102A2000000000000000003E007700C300C180C12C
:102A30000063003E007F00C380C180C180C180E38D
:102A4000007E000000000000000000000000000008
:102A500000000000001C007F00C300C180C180C1D5
:102A600080C18063803D800100030006001C007867
:102A70000000000000000000000000000000000056
:102A800000000040E0400000000000E0C000000046
:102A9000000000000000000000C0C00000000000B6
:102AA0000000C0C0404080000000000000000000A6
:102AB00000000000000000004001C007001C007082
:102AC00000C00070001C00070001C00040000000B2
:102AD00000000000000000000000000000000000F6
:102AE0000000000000000000000000FFE000000007
:102AF000000000FFE00000000000000000000000F7
:102B000000000000000000000000000000000000C5
:102B1000000000C00070001C00070001C000400160
:102B20008006003800E00080000000000000000087
:102B300000000000000000FC8C06040C1818303067
:102B400030000030300000000000000000000000F5
:102B50000000000000000FE03010200843C8CC4CFB
:102B6000884C98CC90C898889FD0C46040003000B2
:102B70001FC0000000000000000000000000000076
:102B80000E000E001A001B0013003100318021805E
:102B90007F807FC060C0C060C060C0600000000077
:102BA00000000000000000000000FC878383838693
:102BB000FC878381818387FC000000000000000007
:102BC00000000000001FC0384060006000C000C06E
:102BD00000C000C000C000C000E00070003C401F0A
:102BE000C000000000000000000000000000000025
:102BF000000000FF00838080C08060806080608073
:102C00006080608060806080C081C08780FE00003E
:102C100000000000000000000000000000FE8080B6
:102C2000808080FE8080808080FFFF0000000000A8
:102C300000000000FE8080808080FEFE808080801A
:102C40008080000000000000000000000000000F75
:102C5000E0382070006000C000C000C000C1E0C0CB
:102C600020C020E02070203C600FE0000000000049
:102C70000000000000000000000000000080C08094
:102C8000C080C080C080C080C0FFC080C080C080C5
:102C9000C080C080C080C080C00000000000000074
:102CA00000000000000000808080808080808080A4
:102CB00080808080800000000000000000000C0C7C
:102CC0000C0C0C0C0C0C0C0C0C0C9CF800000000F8
:102CD0000000000000000000008380830086008C5C
:102CE000009800B000B800D800CC008E00860083A9
:102CF00000838081800000000000000000000000D0
:102D0000000000808080808080808080808080FEC5
:102D1000FE00000000000000000000000000701C29
:102D2000701C703C783C782C4C6C4C6C4C4446C409
:102D300046C4C684C386C306C30600000000000064
:102D4000000000000000000000000000C0C0E0C063
:102D5000E0C0B0C0B8C098C08C408C408640834072
:102D6000834081C081C080C00000000000000000DE
:102D7000000000000000000000001FC030E0607094
:102D8000C030C030C018C018C018C018C030E03003
:102D9000606038E01F8000000000000000000000BC
:102DA00000000000FE878383838387FE808080800D
:102DB0008080000000000000000000000000001FF4
:102DC000C030E06070C030C030C018C018C018C03B
:102DD00018C030E030606038C01F8001F80030005B
:102DE00000000000000000000000000000FE00875E
:102DF000008300830083008300FE00FC00860083C4
:102E00000083008300830081800000000000000038
:102E1000000000000000003F60C0C0C0703C0E0316
:102E2000030103C7FE0000000000000000000000D6
:102E30000000FFC00C000C000C000C000C000C008B
:102E40000C000C000C000C000C000C000C0000002E
:102E50000000000000000000000000000000000072
:102E600080C080C080C080C080C080C080C080C062
:102E700080C0C0C0C0C0C18063803F0000000000AF
:102E80000000000000000000000000000000C03052
:102E900060606060604030C030C030801180198058
:102EA00019000B000F000E000600000000000000DB
:102EB0000000000000000000000000000000000012
:102EC000C0C08060C18061E18061E18061610031EA
:102ED00023003333003332001236001216001E1660
:102EE000001C1C000C1C000C0C000000000000006A
:102EF00000000000000000000000000000000000D2
:102F000000C0C061806180330032001E000C001ED2
:102F1000001E00330033006180C1C0C0C00000004B
:102F2000000000000000000000000000000000C0E1
:102F3000C0C18061806300330036001C001C000C9F
:102F4000000C000C000C000C000C00000000000045
:102F500000000000000000000000000000FFC001B1
:102F60008001800300060006000C001800180030E5
:102F70000060006000FFC0FFC00000000000000013
:102F800000000000000000F0808080808080808051
:102F9000808080808080F000000000000000C04041
:102FA00060202030101018080C0C040602000000ED
:102FB0000000000000F01010101010101010101081
:102FC00010101010F00000000000000000000000D1
:102FD0000800180014003400260062004300C100FD
:102FE00081808080000000000000000000000000E0
:102FF00000000000000000000000000000000000D1
:1030000000000000000000000000000000000000C0
:103010000000000000000000000000000000FFE0D1
:1030200000000000000000C0C060000000000000C0
:103030000000000000000000000000000000000090
:10304000000000FE0603037FC3C3C3C77B0000006C
:103050000000000000000000400040004000400070
:1030600040005F00718060C040C040C040C040C0B0
:1030700060C07380DF00000000000000000000005E
:1030800000000000000000003F60C0C0C0C0C0C021
:10309000713F0000000000000000000000018001FE
:1030A000800180018001803F806380C180C180C138
:1030B00080C180C180C18062803E8000000000002D
:1030C0000000000000000000000000000000000000
:1030D00000000000003E006300C100C180FF80C00E
:1030E00000C000C00071003F0000000000000000B0
:1030F0000000000000001E3A303030FC303030302C
:1031000030303030300000000000000000000000CF
:10311000000000000000000000003E806380C180CD
:10312000C180C180C180C180C18077803D80018025
:10313000018043007E0000000000008080808080CD
:10314000BEE7C38383838383838300000000000082
:10315000000000E0C000004040404040404040408F
:1031600040000000000000000000181800001818BF
:103170001818181818181818183030E00000000037
:103180008080808080868C98B0F0D8988C8687006C
:1031900000000000000000808080808080808080AF
:1031A000808080808080000000000000000000001F
:1031B0000000000000000000000000DF7C73CE6112
:1031C0008641864186418641864186418641860008
:1031D00000000000000000000000000000000000EF
:1031E000000000000000000000DF007380618041EB
:1031F00080418041804180418041804180000000C9
:1032000000000000000000000000000000000000BE
:10321000000000000000003F006380C180C0C0C00B
:10322000C0C0C0C0C0C18063803E0000000000007C
:10323000000000000000000000000000000000008E
:103240000000000000DF00718060C040C040C0404E
:10325000C040C060C071805F00400040004000403E
:10326000000000000000000000000000000000005E
:103270000000003E806380C180C180C180C180C1E8
:1032800080C18063803F80018001800180018000D7
:10329000000000000000000000DC70604040404082
:1032A000404040000000000000000000000000005E
:1032B0007CC0C0E0781C0C048CF80000000000000A
:1032C00000000000103030FC303030303030303012
:1032D0001C000000000000000000000000000000D2
:1032E000000000000000C180C180C180C180C18099
:1032F000C180C180618073803D80000000000000BB
:1033000000000000000000000000000000000000BD
:10331000000000008180C300C300620066006600F8
:1033200034003C00180018000000000000000000FD
:10333000000000000000000000000000000000008D
:103340000000830CC70CC708C5984D986C9068F0B6
:1033500028F038603060000000000000000000002D
:103360000000000000000000C3C6663C18382C6650
:10337000C6C30000000000000000000000000000C4
:1033800000000000000000C08061806180310033D7
:103390000033001A001E000C000C0008001800305A
:1033A000006000400000000000000000000000007D
:1033B00000000000007F800300060006000C0018DB
:1033C00000300070006000FF80000000000000007E
:1033D0000000000000000030604040606060C0C03D
:1033E00060606040406030000000000080808080AD
:1033F00080808080808080808080808080808080CD
:103400008000000000C0602060606060303060605C
:1034100060202060C00000000000000000000000EC
:1034200000000000000000000000000020407C4080
:1034300087C0818000000000000000000000000044
:10344000000000000000000000000000000000007C
:10345000000000000000000000000000000000006C
:10346000000000000000000000000000000000005C
:10347000000000000000000000000000000000004C
:10348000000000000000000000000000000000003C
:10349000000000000000000000000000C0E020402C
:1034A0004080000000000080034002C004000400CF
:1034B00004000C003F800C000C000C000800080009
:1034C000080018001800180010009000A00040002C
:1034D00000000000000000000000000000000000EC
:1034E00044EEE6224244000000000000000000001C
:1034F00000000000000000000000000000000000CC
:10350000000008000800080008000800FF8008000C
:10351000080008000800180008000800080008005B
:103520000800080008000800080000000000000073
:1035300008000800080008000800FF8008000800D4
:10354000080008001800080008001000F780C900F3
:103550000800080008001800000038CE0000000035
:10356000000000000000000000000000000000005B
:10357000000000000000000040003880006780006C
:10358000450000450000C500008A00008A00009444
:10359000C18075A2800524400B2C400A2880122887
:1035A00080122880124900238D00200200000000B4
:1035B00000000000000063001C0000001D0063808C
:1035C0004180C080C080E000700038001C0007000F
:1035D00003800180808080808080C180FF000000A7
:1035E00000000000000000000000000000081020A3
:1035F00060C0402010100800000000000000000023
:103600000000000007FFF0183010201010601010AC
:10361000401000401020401020C01060C01FE0C0CB
:103620001020401020401000601000601008301082
:10363000081838180FFFF00000000000000000001C
:10364000000000000000000000000000000000007A
:10365000000000000000000000000000000000006A
:10366000000000000000000000000000000000005A
:10367000000000000000000000000000000000004A
:10368000000000000000000000000000000000003A
:10369000000000000000000000000000000040806A
:1036A0008080C0E0800000000000000000000000FA
:1036B000000000000080C0E020408080000000008A
:1036C000000000000000000000000000428484842C
:1036D000C7E78200000000000000000000000000BA
:1036E00000000084C7E7214282840000000000003F
:1036F00000000000000000000000000000000000CA
:1037000000000000000000000000000000000000B9
:10371000000000000000000000FE000000000000AB
:103720000000000000000000000000000000000099
:103730000000000000000000000000000000000089
:1037400000000000000000FFFFF800000000000083
:103750000000000000000000000000000000000069
:10376000000000000000000000000000E4980000DD
:103770000000000000000000000000000000000049
:103780000000000000000000000000FEE0709260F9
:10379000401050C0105140105140104940104A4054
:1037A0001046401044403864F00000000000000063
:1037B0000000000000000000000000000000000009
:1037C000000000000000000000000000C6780000BB
:1037D0007C8484C060381C048484F80000000000ED
:1037E00000000000000000808040203020408080E9
:1037F0008000000000000000000000000000000049
:1038000000000010002CE04510431083F08200827D
:1038100000830083084310459038E000000000005A
:103820000000000000000000000000000000000098
:103830000000000000000000000000000000000088
:103840000000000000000000000000000000000078
:1038500000186018600000FC3C3010101018200C9C
:10386000400C4006800280030003000300030003B5
:1038700000030003000FC000000000000000000073
:103880000000000000000000000000000000000038
:103890000000000000000000000000000000E0E068
:1038A000000040404040404040C0C0C00000000018
:1038B0000004041F396060C0C04060711F04040030
:1038C0000000000000000000000000000F001F00CA
:1038D0003000300030003000FE00FE00100010000C
:1038E000300020007F80FF8000000000000000000A
:1038F00000000000000000000000000000008080C8
:10390000FF8063004100C100C10041006300FF80EF
:1039100080800000000000000000000000000000A7
:103920000000000000000000C0C060C021803180A5
:1039300013001A000E007F800C007F800C000C002A
:103940000C000C000000000000000000000000005F
:1039500000008080808080808000000080808080E7
:10396000808080800000000000000000003F0060B8
:10397000006000600038004F00C300C18071803DCE
:103980000007000300030043007E00000000000069
:1039900000000000000000CCCC000000000000008F
:1039A0000000000000000000000000000000000017
:1039B0000000060010C0606047B098109010901092
:1039C000901090109810472020601D80000000008B
:1039D0000000000000000000000000000000F808E7
:1039E00078C888F800000000000000000000000017
:1039F00000000000000000002664C898C84C263271
:103A000000000000000000000000000000000000B6
:103A100000000000000000000000FFE00060006007
:103A200000600060000000000000000000000000D6
:103A30000000000000000000000000000000000086
:103A40000000000000000000000000000000006C0A
:103A5000B2AABAAA44100000000000000000000052
:103A6000000000000000F8F8000000000000000066
:103A700000000000000000000000000000F0888846
:103A8000887000000000000000000000000000003E
:103A9000000000000000000000000000040004001E
:103AA00004000400FFE0040004000400040004001B
:103AB0000000FFE00000000000000000000030787F
:103AC0000C0C08102040FC0000000000000000006A
:103AD000000000000030580C18380C0C8C700000EE
:103AE0000000000000000000000000000000006076
:103AF000C080000000000000000000000000000086
:103B000000000000000000000000000000000000B5
:103B10000000008300830083008300830083008310
:103B200000C300E700B980800080008000800000B2
:103B300000000000003F79F9F9F9F9F9790909095C
:103B40000909090900000000000000000000000051
:103B5000000000C0C0C00000000000000000000025
:103B60000000000000000000000000000000000055
:103B700000206030E00030F0303030303030300045
:103B80000000000000000000000000000000000035
:103B90000000007C46C2C2467C000000000000001D
:103BA00000000000000000000000000000984C64CD
:103BB00032264CC890000000000000000000000009
:103BC0000000006020E04020402080218021002271
:103BD000182228046804C8088819FC100830080056
:103BE00000000000000000000000000000000000D5
:103BF000006040E040608060806100630062F864C3
:103C00000C040C080808181030306020FC0000007C
:103C10000000000000000000000000000000007034
:103C200030982018403040788008800918FB28021E
:103C3000680648048808FC08081008000000000016
:103C40000000000000000000000000000018180044
:103C500000181818306060C0C0E07E00000000004E
:103C6000000000000E000E001A001B0013003100BF
:103C7000318021807F807FC060C0C060C060C06034
:103C80000000000000000000000000000000000034
:103C90000000FF008000800080008000FC00FE002B
:103CA000830081808180818083008E00FC00000081
:103CB000000000000000000000000000FC8783837B
:103CC0008386FC878381818387FC000000000000DD
:103CD000000000FE808080808080808080808080E6
:103CE00080000000000000000000000000001FE055
:103CF0001860186018601860186018601860186004
:103D00001060306030607FE0FFF0C010C010C01065
:103D10000000000000000000FE8080808080FE80A7
:103D200080808080FFFF0000000000000000000095
:103D300000000060833086108C188C0C9806B00749
:103D4000F01FFC308E3086608260836083C0830009
:103D500000000000000000000000000000FEC7039B
:103D6000030306380E03010103C7FE000000000034
:103D7000000000000000000080C081C0814083403E
:103D8000864086408C408C4098C0B0C0B0C0E0C037
:103D9000C0C0C0C000000000000000000000000023
:103DA00032001E00000080C081C0814083408640F8
:103DB00086408C408C4098C0B0C0B0C0E0C0C0C04D
:103DC000C0C0000000000000000000000000000073
:103DD000000000008300830086008C009800B00083
:103DE000F000FC00860086008300830081808180D3
:103DF00000000000000000000000000000000000C3
:103E000000001FE010601060106010601060106013
:103E1000106030603060306030606060C060000012
:103E20000000000000000000000000000000000092
:103E3000701C701C703C783C782C4C6C4C6C4C4466
:103E400046C446C4C684C386C306C3060000000039
:103E5000000000000000000000000000000080C022
:103E600080C080C080C080C080C0FFC080C080C0D3
:103E700080C080C080C080C080C000000000000002
:103E80000000000000000000000000001FC030E043
:103E90006070C030C030C018C018C018C018C03022
:103EA000E030606038E01F8000000000000000008B
:103EB00000000000000000000000FFC080C080C0C3
:103EC00080C080C080C080C080C080C080C080C0F2
:103ED00080C080C080C00000000000000000000022
:103EE00000000000FE878383838387FE80808080BC
:103EF0008080000000000000000000000000001FA3
:103F0000C0384060006000C000C000C000C000C0F9
:103F100000C000E00070003C401FC0000000000036
:103F200000000000000000000000000000FFC00CC6
:103F3000000C000C000C000C000C000C000C000C21
:103F4000000C000C000C000C000000000000000041
:103F50000000000000000000000000C06060C060C1
:103F6000C030C03180198019000F000F0006000614
:103F7000000C0018007000000000000000000000AD
:103F800000000000000000030003001FE073306326
:103F900018C318C318C308C308C318C318633873F9
:103FA000701FC002000200000000000000000000BE
:103FB00000000000000000C0C0618061803300325A
:103FC000001E000C001E001E00330033006180C183
:103FD000C0C0C000000000000000000000000000A1
:103FE0000000000000C0C0C0C0C0C0C0C0C0C04011
:103FF000C060C07FC01EC000C000C000C000C000C4
:10400000C0000000000000000000000000000000F0
:10401000000000830C830C830C830C830C830C83C3
:104020000C830C830C830C830C830CFFFCFFFC00C3
:104030000000000000000000000000000000000080
:1040400000830C830C830C830C830C830C830C8304
:104050000C830C830C830C830CFFFCFFFE0002001E
:10406000020002000000000000000000000000F854
:104070000008000800080008000FC00FE008300822
:104080003008100830083008E00FC00000000000C1
:1040900000000000000000000000000000830C830E
:1040A0000C830C830C830C830C830C830C830C8398
:1040B0000C830C830CFFFCFFFE00020002000200D8
:1040C0000000000000000000000000803080308010
:1040D0003080308030FC30FE308330833081B081DE
:1040E0003083308E30FC3000000000000000000003
:1040F00000000000000000000080008000800080C0
:10410000008000FC00FF008300818081808180832B
:10411000008F00FC00000000000000000000000014
:1041200000000000000000FE008700018001C000C8
:10413000C000C03FC000C000C000C0018003808735
:1041400000FE000000000000000000000000000071
:10415000000000000083F8871C860C8C068C068803
:1041600006F802980288068C068C06860C871C834B
:10417000F00000000000000000000000000000004F
:104180000000003F806180C180C180C18061807F6C
:10419000801F80318061806180C180C180C18000CA
:1041A000000000000000000000000000000000000F
:1041B00000FE0603037FC3C3C3C77B0000000000EB
:1041C00000000000000007001F0030006000C00079
:1041D000DE00A300C180C180C180C180C180418058
:1041E00063003E000000000000000000000000002E
:1041F0000000000000000000000000000000FE00C1
:10420000C300C300C300FC00C700C180C180C3005D
:10421000FE000000000000000000000000000000A0
:1042200000000000FEC0C0C0C0C0C0C0C0C00000D0
:10423000000000000000000000000000000000007E
:104240000000001F8010801080108030803080308F
:104250008020806080FFC0C040C040C0400000009F
:10426000000000000000000000000000000000004E
:10427000003E006300C100C180FF80C000C000C0DC
:104280000071003F0000000000000000000000007E
:1042900000000000000000000000000000000063BB
:1042A00018333013201B600FC03FF03330631863A6
:1042B00018C30C0000000000000000000000000017
:1042C0000000000000FC8E060C780E06068EFC0036
:1042D00000000000000000000000000000000000DE
:1042E00000000000C180C380C780C580CD80C98028
:1042F000D980D180F180E180000000000000000042
:104300000000000000000000000032001E0000005D
:104310000000C180C380C780C580CD80C980D9809E
:10432000D180F180E180000000000000000000006A
:104330000000000000000000868C98B0F0FC8C8625
:104340008683000000000000000000000000000064
:10435000000000000000003F80318031803180315A
:10436000803180318031806180C180000000000098
:10437000000000000000000000000000000000003D
:10438000000000000060E070E0F0E0D1E0D920DB48
:1043900020CB20CE20CE20C4300000000000000042
:1043A000000000000000000000000000000000000D
:1043B000000000C180C180C180C180FF80C180C178
:1043C00080C180C180C180000000000000000000AA
:1043D00000000000000000000000000000000000DD
:1043E000003F006380C180C0C0C0C0C0C0C0C0C1A9
:1043F0008063803E0000000000000000000000001C
:10440000000000000000000000000000000000FFAD
:1044100080C180C180C180C180C180C180C180C194
:1044200080C18000000000000000000000000000CB
:1044300000000000000000000000000000DF00712C
:104440008060C040C040C040C040C060C071805F5C
:10445000004000400040004000000000000000005C
:104460000000003F60C0C0C0C0C0C0713F0000007D
:1044700000000000000000000000FF1818181818C5
:1044800018181818000000000000000000000000CC
:10449000000000000000000000C0806180618031E9
:1044A00000330033001A001E000C000C0008001836
:1044B0000030006000400000000000000006000620
:1044C000000600060006003F8066E0C660C630C6F3
:1044D00030C630C620C66076C03F800600060006A3
:1044E00000060000000000000000000000C3C666D7
:1044F0003C18382C66C6C300000000000000000015
:10450000000000000000000000000000C180C18029
:10451000C180C180C180C180C180C180C180FFC015
:1045200000C000C000C0000000000000000000004B
:104530000000C3C3C3C3C37F3F03030300000000E5
:10454000000000000000000000000000000000006B
:1045500000C318C318C318C318C318C318C318C39B
:1045600018C318FFF8000000000000000000000061
:10457000000000000000000000000000000000C378
:1045800018C318C318C318C318C318C318C318C353
:1045900018FFFC000C000C000400000000000000EC
:1045A00000000000000000000000000000F80018FB
:1045B0000018001F801DE018601820186018E01F08
:1045C000800000000000000000000000000000006B
:1045D0000000000000000000000000C020C020C05B
:1045E00020FC20EF20C320C120C320C720FC2000D6
:1045F00000000000000000000000000000000000BB
:10460000000000000000000000C000C000C000FC6E
:1046100000EF00C180C180C180C700FE0000000023
:10462000000000000000000000000000000000FC8E
:104630000603037F0303068EFC0000000000000059
:104640000000000000000000000000000000C3E0C7
:10465000C630CC18CC18FC18FC18CC18CC10C630BE
:10466000C3E00000000000000000000000000000A7
:104670000000007FFFC3C3C37F3F336363C30000F9
:104680000000000030B403000C0015006A1E002D6D
:1046900004D025781D70641C5B1CF6E730BC7047A5
:1046A00010B403001400621E002C02D019705B1CB1
:1046B000F8E710BC704770B403001C000D00002028
:1046C0001600721E002E06D020782E78801B6D1CDE
:1046D000641C0028F4D070BC70470278002A04D013
:1046E00002788A4201D0401CF7E70078704730B466
:1046F000002423001A00022A25D2844C0C2505FB35
:1047000002F56459002C1AD0804C0C2505FB02F5EB
:1047100064590568AC4214D17C4C0C2505FB02F5AC
:104720002C4464688568AC420BD1784C0C2505FBA1
:1047300002F52C442489C588AC4202D103E001244F
:104740002300521CD7E7022A08D1002B01D10229ED
:1047500001D1002000E01220C0B20EE0002908D1F3
:104760006A480C2101FB02F108444089B0F5807FC2
:1047700001D1102000E00020C0B230BC7047002101
:104780000800022808D261490C2202FB00F2895875
:10479000002901D0401CF4E7022801D1002000E0EC
:1047A0000120704730B4020000200300022B1BD20E
:1047B00056480C2404FB03F400591468A04211D19C
:1047C00052480C2404FB03F4204440689468A0423F
:1047D00008D14E480C2404FB03F420440089D488FB
:1047E000A04201D05B1CE1E7022B2BD1002003008B
:1047F000022B08D245480C2404FB03F4005900287E
:1048000001D05B1CF4E7022B01D1002039E01068D5
:104810003E4C0C2505FB03F5605190683B4C0C2584
:1048200005FB03F52C446060D088384C0C2505FB53
:1048300003F52C4420810020344C0C2505FB03F5A6
:104840002C446081002909D030480C2404FB03F477
:1048500020444089002801D0002012E0002902D025
:104860004FF4807006E029480C2404FB03F4204434
:104870004089401C254C0C2505FB03F52C44608128
:10488000581C30BC704730B40100491E022922D2A6
:104890001E4B0C2404FB01F423445B891A0092B2E2
:1048A000B2F5807F01D100231A0092B2002A00D015
:1048B000521E164B0C2404FB01F423445A8192B27D
:1048C000002A05D10023114C0C2505FB01F563518D
:1048D0000023180001E002231800C0B230BC70476A
:1048E00010B40022110002290ED2084A0C2303FB47
:1048F00001F3D258824205D10022044B0C2404FB60
:1049000001F41A51491CEEE710BC704748A600207C
:10491000F8B50400002741F20400205C002831D0E3
:1049200041F22C002058050001232A00210041F209
:104930000100205C01F028FE002802D001200700C1
:1049400020E0002041F2040160544FF481502058CF
:10495000281A41F218016158884213D241F203002B
:10496000205C0600022E0DD341F218002058451994
:1049700001232A00210041F20100205C01F004FE25
:10498000761EEFE73800C0B2F2BD70B504000D002E
:10499000002641F22C002058854218D02000FFF755
:1049A000B7FF0600F6B2002E11D101232A00210024
:1049B00041F20100205C01F0CBFD002804D05FF043
:1049C000FF3005000120060041F22C002550300088
:1049D000C0B270BD38B504002000FFF799FF050094
:1049E000EDB2002D7AD14FF48050205C03286AD1BB
:1049F00041F20500205C012865D141F20A00225AEB
:104A000000212000FFF74CFE552084F8FE01AA206B
:104A100084F8FF0152202070522060706120A07045
:104A20004120E070722084F8E401722084F8E501EE
:104A3000412084F8E601612084F8E70141F210008A
:104A4000205884F8E80141F21000205880B2000A92
:104A500084F8E90141F210002058000C84F8EA01C2
:104A600041F210002058000E84F8EB0141F20C00D6
:104A7000205884F8EC0141F20C00205880B2000A62
:104A800084F8ED0141F20C002058000C84F8EE018E
:104A900041F20C002058000E84F8EF0141F21C0096
:104AA0002058401C41F22C016050012341F22C009F
:104AB0002258210041F20100205C01F065FD002038
:104AC00041F2050160540022002141F20100205C06
:104AD00001F076FD002801D0012005002800C0B2B9
:104AE00032BD0200891E41F214001058801E81421E
:104AF00001D3002007E041F20200105C41F22803DC
:104B0000D25800FB012070472DE9F84304000D0046
:104B1000022D04D341F214002058854202D3012013
:104B2000804699E05FF0FF3080464FF48050205C73
:104B3000012805D0C0F08E80032862D03FD389E0E1
:104B4000A94619EB59094FF48150205841F20A0146
:104B5000615AB9FBF1F109182000FFF716FF002890
:104B60007AD1484619F1010941F20A01615AB0FBB4
:104B7000F1F201FB1200205C06004FF48150205836
:104B800041F20A01615AB9FBF1F109182000FFF75F
:104B9000FCFE002860D141F20A00205AB9FBF0F176
:104BA00000FB1190205C56EA0026E80702D55FEA78
:104BB000161803E05FEA06585FEA18584CE04FF415
:104BC0008150205841F20A01615A022291FBF2F110
:104BD000B5FBF1F109182000FFF7D7FE00283BD103
:104BE000680041F20A01615AB0FBF1F201FB1200C8
:104BF000204407007878397851EA002080B2804656
:104C00002AE04FF48150205841F20A01615A0422EF
:104C100091FBF2F1B5FBF1F109182000FFF7B5FEA9
:104C2000002819D1A80041F20A01615AB0FBF1F243
:104C300001FB120020440700F878B978090451EA12
:104C40000060797850EA01203978084320F07040FC
:104C5000804601E0012080464046BDE8F2832DE910
:104C6000F84304000D001600022D04D341F2140095
:104C70002058854202D302208046C4E04FF4805081
:104C8000205C012806D0C0F0BC80032800F087809B
:104C90005CD3B6E0A94619EB59094FF4815020586E
:104CA00041F20A01615AB9FBF1F109182000FFF73E
:104CB0006CFE80465FFA88F8B8F1000F40F0A380E0
:104CC000484619F1010941F20A01615AB0FBF1F2BB
:104CD00001FB120020440700E80705D5387810F0E2
:104CE0000F0050EA061000E030003870012041F259
:104CF000040160544FF48150205841F20A01615A76
:104D0000B9FBF1F109182000FFF73FFE80465FFA7A
:104D100088F8B8F1000F76D141F20A00205AB9FBA9
:104D2000F0F100FB119020440700E80701D530099D
:104D300006E0387810F0F000310A11F00F01084356
:104D40003870012041F2040160545CE04FF481505E
:104D5000205841F20A01615A022291FBF2F1B5FB9F
:104D6000F1F109182000FFF710FE80465FFA88F87D
:104D7000B8F1000F47D1680041F20A01615AB0FB57
:104D8000F1F201FB1200204407003E70300080B2B7
:104D9000000A7870012041F20401605433E04FF4BE
:104DA0008150205841F20A01615A042291FBF2F12C
:104DB000B5FBF1F109182000FFF7E7FD80465FFA27
:104DC00088F8B8F1000F1ED1A80041F20A01615A1B
:104DD000B0FBF1F201FB120020440700F878000656
:104DE00010F0704006433E70300080B2000A7870C8
:104DF000300CB870300EF870012041F2040160549C
:104E000001E0022080464046C0B2BDE8F283F8B51A
:104E100004000D00022D04D341F2140020588542F5
:104E200002D30220060038E00020060041F2140000
:104E30002058854231D229002000FFF765FE070087
:104E4000002F2AD0012F02D10220060025E017F101
:104E5000010F02D1012006001FE0002229002000DE
:104E6000FFF7FDFE0600F6B2002E16D141F210004B
:104E7000205810F1010F0ED041F210002058401CB4
:104E800041F21001605041F20500205C50F0010039
:104E900041F2050160543D00C8E73000C0B2F2BDE8
:104EA0002DE9F84304000D00002D0ED141F20C0055
:104EB00020588046B8F1000F04D041F21400205869
:104EC000804518D30120804615E029002000FFF717
:104ED0001BFE0600022E01D2012068E016F1010F30
:104EE00001D1300063E041F214002058864201D223
:104EF00030005CE0A84647467F1C41F21400205871
:104F0000874205D302200700B84501D200204EE0B9
:104F100039002000FFF7F8FD0600002E0CD17FF0CD
:104F2000704239002000FFF79AFE81465FFA89F946
:104F3000B9F1000F13D10AE016F1010F01D0012ED3
:104F400001D1300033E04745D6D100202FE0002DBD
:104F500005D03A0029002000FFF781FE81465FFA64
:104F600089F9B9F1000F18D141F20C00275041F234
:104F70001000205810F1010F18D041F210002058F5
:104F8000401E41F21001605041F20500205C50F0DB
:104F9000010041F20501605408E05FFA89F9B9F1B6
:104FA000010F02D15FF0FF3700E001273800BDE8B4
:104FB000F283F0B40200506A001D0500106841F24F
:104FC0000A06805BB1FBF0F0166841F20207F65D5D
:104FD000B0FBF6F00300286804002D1D002C01D161
:104FE000002007E0A34202D22868C01802E01B1B81
:104FF0002D1DF0E7F0BC70472DE9F04104000D00D5
:10500000E580A0680600012E05D0206841F2140159
:105010004058864201D3022067E0002E0AD1206862
:105020004FF48051405C032804D1206841F22401F0
:1050300040580600002E0DD1206841F20801405A68
:10504000854201D3022050E0206841F224014058FB
:1050500007002AE0206841F20A01405A202190FB13
:10506000F1F0216841F20202895C484380464545DF
:1050700016D331002068FFF747FD060016F1010F37
:1050800001D1012031E0022E05D3206841F2140144
:105090004058864201D3022027E0B5EB0805E6E739
:1050A00031002068FFF71DFD0700E660002F01D1E9
:1050B00002201AE0206841F20A01405A202190FBA8
:1050C000F1F0B5FBF0F0C0192061206841F20A014F
:1050D000405A202190FBF1F0B5FBF0F100FB11509C
:1050E00040012168084460610020BDE8F0812DE99D
:1050F000F04104000D00E088401C0700380402D095
:105100002069002801D10420AEE0206841F20A01A4
:10511000405A202190FBF1F0B7FBF0F100FB117039
:10512000002840F090802069401C2061E068002841
:1051300008D1206841F20801405A8742C0F08380BC
:10514000042091E0206841F20A01405A202190FB9E
:10515000F1F0B7FBF0F0216841F20202895C491ED0
:10516000084270D1E1682068FFF7CEFC0600022EED
:1051700001D2022078E016F1010F01D1012073E085
:10518000206841F214014058864256D3002D01D1C7
:10519000042069E0E1682068FFF782FE0600002E27
:1051A00001D1072060E0012E01D102205CE016F160
:1051B000010F01D1012057E02068FFF7A9FB00286B
:1051C00001D0012050E0206841F20A01425A00213A
:1051D0002068FFF765FA31002068FFF782FC21683C
:1051E00041F22C02885000208046206841F20201E2
:1051F000405C804517D20120216841F204028854A6
:105200002068FFF785FB002801D001202CE02068F2
:1052100041F22C014058401C216841F22C02885078
:1052200018F10108E1E7206841F22C014058B0EB89
:105230000800216841F22C028850E66031002068A5
:10524000FFF74FFC2061E780206841F20A01405AD5
:10525000202190FBF1F0B7FBF0F100FB1170400151
:105260002168084460610020BDE8F081F8B50400C1
:105270000D0000212000FFF7BFFE0600F6B2002E51
:105280001FD10020070021692068FFF77EFB060080
:10529000F6B2002E15D160690078E52803D0606968
:1052A0000078002803D17F1CAF4202D109E0002022
:1052B000070001212000FFF71AFF0600F6B2002EBA
:1052C000E1D0F6B2042E01D1072006003000C0B2B2
:1052D000F2BD10B40200CB7E8C7E54EA03239BB255
:1052E00018004FF48053D35C032B06D14B7D0C7D0B
:1052F00054EA03239BB250EA034010BC7047817606
:105300000A0092B2120AC2760A0C02750A0C92B214
:10531000120A42757047F8B5040000212000FFF71B
:105320006BFE0700FFB2002F02D03800C0B225E0AC
:1053300021692068FFF729FB0700FFB2002F1BD16E
:105340006069060030780500EDB2002D02D104201E
:10535000070011E0F07A000706D40B22A1693000A3
:10536000FFF7A9F9002807D000212000FFF7BFFEB2
:105370000700FFB2002FDBD03800C0B2F2BD38B555
:10538000040001212000FFF771FF0500EDB2002DA0
:1053900016D121692068FFF7F8FA0500EDB2002D5B
:1053A0000ED1202200216069FFF77AF90B22A16952
:1053B0006069FFF767F90120216841F2040288540F
:1053C0002800C0B232BD2DE9F14F0C0020688346A1
:1053D0009BF800002F2803D09BF800005C2802D126
:1053E0001BF1010BF4E70098806907000B222021D4
:1053F0003800FFF755F900200500EDB2AA46D14666
:10540000082080461BF80900060019F10109F6B2D0
:10541000212E05DBF6B22F2E02D0F6B25C2E06D17D
:105420000BEB09002060F6B2212E41DA3EE0F6B225
:105430002E2E01D0C2450DD3B8F1080F02D1F6B21D
:105440002E2E01D0062052E0082082460B208046F6
:10545000AD00D7E7F6B2802E07DB55F00305DFF885
:105460001008F6B2304410F8806CF6B23100DFF864
:105470000408FFF732F9002801D0062037E0F6B221
:10548000412E05DBF6B25B2E02DA55F0020508E08C
:10549000F6B2612E05DBF6B27B2E02DA55F001057D
:1054A000203E07F80A601AF1010AABE7042600E083
:1054B0000026BAF1000F01D1062018E03878E5285F
:1054C00001D105203870B8F1080F00D1AD00EDB260
:1054D00015F00300012801D156F01006EDB215F0C9
:1054E0000C00042801D156F00806FE720020BDE829
:1054F000F28FF2B50400009800782F2803D00098AE
:1055000000785C2802D10098401C00900020A06028
:1055100000980078202807D200212000FFF76CFDBA
:1055200005000020606129E069462000FFF74BFF7D
:105530000500EDB2002D21D12000FFF7ECFE0500A3
:10554000A069C07A0700EDB2002D07D0EDB2042D9E
:1055500003D1780701D4052005000FE078070DD4AA
:1055600060690600F07AC00602D40520050005E057
:1055700031002068FFF7ADFEA060D5E72800C0B27B
:10558000F2BD30B401005FF0FF300D68002D1ED079
:105590000D682B001D78212D04D31D783A2D01D0E4
:1055A0005B1CF7E71D783A2D0FD10D682A0015789E
:1055B000303D2C00521C0A2C06D29A4204D1032CF6
:1055C00002D220005B1C0B6001E00025280030BCEB
:1055D000704738B504000D00002041F2040160540A
:1055E0005FF0FF3041F22C01605029002000FFF7EE
:1055F000CCF9002801D003202DE094F8FF0194F8A5
:10560000FE1151EA002080B24AF65521884201D0AD
:10561000022020E094F8380094F83710090251EA8B
:10562000004094F836100843DFF84C16884201D148
:10563000002010E094F8540094F85310090251EA45
:10564000004094F852100843DFF82C16884201D12C
:10565000002000E0012032BD2DE9F34F89B09346D0
:105660000020099908600A98FFF78BFF04900498BE
:10567000002801D50B20A0E2DFF80006049950F8BD
:1056800021008146B9F1000F01D10C2095E2099863
:10569000C0F800904FF4805019F80000002818D08E
:1056A00041F2010019F8000000F026FF8DF800001B
:1056B0009DF80000C0070CD45FFA8BFBBBF1000F14
:1056C00005D09DF80000400701D50A2075E20020B2
:1056D00073E200204FF4805109F80100049841F270
:1056E000010109F8010041F2010019F8000000F081
:1056F00014FF8DF800009DF80000C00701D50320BD
:105700005BE25FFA8BFBBBF1000F05D09DF8000058
:10571000400701D50A2050E241F20A0009EB0002DD
:10572000022141F2010019F8000000F049FF0028B1
:105730000DD141F20A0039F80000B0F5007F06DB18
:1057400041F20A0039F80000B0F5805F01DD012068
:1057500033E20020060031004846FFF73AFF04001C
:10576000E4B2012C3CD100208246BAF1040F1BD2D6
:105770005FEA0A1048444FF4DF71084405002879B5
:1057800000280AD0E87AA97A090451EA0060697A07
:1057900050EA0120297A084300E0002005A941F8D9
:1057A0002A001AF1010AE0E700208246BAF1000F50
:1057B00001D0BAF1010A05A850F82A000600002E0F
:1057C00004D031004846FFF704FF00E00220040047
:1057D000E4B2002C04D01AF1010ABAF1040FEAD3A2
:1057E000E4B2032C01D10120E7E1E4B2002C01D0A6
:1057F0000D20E2E199F80C0099F80B1051EA002015
:1058000041F20A0139F8011080B2884201D00D201E
:10581000D3E199F8170099F8161051EA002080B2E8
:105820000700002F0ED199F8270099F826100904D7
:1058300051EA006099F8251050EA012099F82410E7
:105840000843070041F2180049F8007099F8100069
:1058500041F2030109F8010041F2030019F80000C8
:10586000012807D041F2030019F80000022801D0F6
:105870000D20A2E141F2030019F80000474399F816
:105880000D0041F2020109F8010041F2020019F88D
:10589000000000280AD041F2020019F8000041F28D
:1058A000020119F80110491E084201D00D2084E1BF
:1058B00099F8120099F8111051EA002041F20801FC
:1058C00029F8010041F2080039F8000041F20A010C
:1058D00039F80110202291FBF2F190FBF1F201FB6B
:1058E0001200002801D00D2067E199F8140099F802
:1058F000131051EA002080B20290029800280ED1C5
:1059000099F8230099F82210090451EA006099F8E7
:10591000211050EA012099F820100843029099F8CC
:105920000F0099F80E1051EA0020ADF80200BDF802
:105930000200002801D10D203FE1BDF8020017FA56
:1059400080F041F20A0139F80110202291FBF2F1B6
:1059500041F2080239F8022092FBF1F10818039095
:1059600002980399884201D20D2026E102980399FA
:10597000401A41F2020119F80110B0FBF1F0019058
:105980000198002801D10D2017E1012004000198A1
:1059900040F6F671884201D30220040001984FF6C8
:1059A000F671884201D3032004000198801C41F263
:1059B000140149F8010041F21C0049F80060BDF8EB
:1059C000020016FA80F04FF4815149F80100039863
:1059D000801941F2280149F80100E4B2032C20D1DA
:1059E00041F2080039F80000002801D00D20E4E061
:1059F00099F82F0099F82E10090451EA006099F8DF
:105A00002D1050EA012099F82C10084341F224018E
:105A100049F8010041F2140059F800008000804666
:105A200028E041F2080039F80000002801D10D20DB
:105A3000C3E04FF4815059F80000381841F22401B6
:105A400049F80100E4B2022C06D141F2140059F8E1
:105A500000005FEA40080DE041F2140059F8000030
:105A60000321484341F2140119F8011011F001011A
:105A700011EB500841F20A0039F80000401E10EB0B
:105A8000080041F20A0139F80110B0FBF1F041F2CF
:105A9000180159F80110814201D20D208DE05FF00C
:105AA000FF3041F2100149F8010041F2100059F8AD
:105AB000000041F20C0149F80100802041F205018B
:105AC00009F80100E4B2032C64D199F8310099F887
:105AD000301051EA002080B201285BD1711C484689
