:020000040800F2
:1000000058250020F92A02085D2B0208612B0208FE
:1000100075260208652B0208692B02080000000003
:100020000000000000000000000000006D2B02082E
:10003000712B020800000000752B020877260208C9
:10004000792B02087D2B0208812B0208852B0208E0
:10005000892B02088D2B020883260208912B0208A7
:10006000952B0208992B02089D2B0208A12B020850
:10007000A52B0208A92B0208911E0208811E020866
:10008000AD2B0208B12B0208B52B02088D26020801
:1000900097260208A1260208B92B02087B02010854
:1000A000BD2B0208C12B0208AB260208C52B020893
:1000B000C92B0208CD2B0208D12B0208D52B020830
:1000C000D92B0208B9260208C3260208DD2B020834
:1000D000E12B0208E52B0208E92B0208ED2B0208B0
:1000E000F12B0208F52B0208F92B0208FD2B020860
:1000F000CD260208DB260208012C0208052C020886
:10010000E9260208092C02080D2C0208112C02080D
:10011000152C0208192C02081D2C0208212C02089B
:10012000252C0208292C02082D2C0208312C02084B
:10013000352C0208392C02083D2C0208412C0208FB
:10014000452C0208492C02084D2C0208F926020809
:10015000512C0208552C0208592C020803270208CA
:100160005D2C0208612C0208652C0208692C02082B
:100170006D2C0208712C0208752C0208000000008A
:10018000792C02087D2C0208812C0208852C02089B
:10019000892C02088D2C0208912C0208952C02084B
:1001A0000D2702081727020821270208992C0208A8
:1001B0009D2C0208A12C0208A52C0208A92C0208DB
:1001C000AD2C0208B12C0208000000000000000065
:1001D000000000000000000000000000000000001F
:1001E00000000000000000000000F0F0F0F0F0F06F
:1001F000F0F0F060606060600000F0F0F0F000008F
:10020000000000000000000000000000F3C0F3C088
:10021000F3C0F3C0F3C0F3C0618000000000000031
:1002200000000000000000000000000000000000CE
:1002300000000000000000000000000000000000BE
:100240000000000000000000071C071C0F3C0E38D7
:100250000E38FFFEFFFEFFFE1C701C701C701C7031
:10026000FFFEFFFEFFFE38E038E079E071C071C0AC
:10027000000000000000000000000000000000007E
:10028000000006001F803FC07FE0F6F0E670E60049
:10029000E600FE007F003FC01FE007F006F006709A
:1002A000E670F67076F07FE03FC01F800600060023
:1002B000000000000000000000000000000000003E
:1002C000000000003E03807F0380E38700E3870097
:1002D000E38F00E38E00E38E00E39C007F1C003E72
:1002E00038000038000071F00073F800E71C00E7E8
:1002F0001C01C71C01C71C03871C03871C0703F8CC
:100300000701F000000000000000000000000000F5
:10031000000000000000000000000000000007C016
:10032000001FF0003FF8003C78003C78003C78006B
:100330001EF0001FF0000FC0001FC0003FC0007F74
:10034000E700F9FF00F0FF00F07E00F07E00F8FF0C
:10035000807FFFC03FF7800FC10000000000000059
:10036000000000000000000000000000000000008D
:10037000F0F0F0F0F0F0600000000000000000007D
:1003800000000000000000000000000000000E1C43
:100390001C3C38787870F0F0F0F0F0F0F0F0F0708D
:1003A0007878383C1C1C0E0000000000E07070786B
:1003B000383C3C1C1E1E1E1E1E1E1E1E1E1C3C3CCF
:1003C00038787070E00000000000000000000C00B1
:1003D0000C00CCC0FFC01E001E0033007380210043
:1003E000000000000000000000000000000000000D
:1003F00000000000000000000000000000000000FD
:1004000000000000000000000000000000000000EC
:1004100007800780078007800780FFFCFFFCFFFC48
:10042000FFFC07800780078007800780000000002E
:1004300000000000000000000000000000000000BC
:1004400000000000000000000000000000000000AC
:100450000000F0F0F0F03070E0400000000000001C
:100460000000000000000000000000FFFFFFFF0090
:10047000000000000000000000000000000000007C
:100480000000000000000000000000000000F0F08C
:10049000F0F00000000000000000000007070E0E52
:1004A0000E0E1C1C1C1C3838383870707070E0E060
:1004B00000000000000000000000000000000F80AD
:1004C0003FE03FE078F078F0F078F078F078F0787E
:1004D000F078F078F078F078F078F07878F078F0DC
:1004E0003FE03FE00F80000000000000000000003F
:1004F00000000000000000000000038007800F8063
:100500001F807F80FF80F780E780878007800780DB
:1005100007800780078007800780078007800780A3
:100520000780000000000000000000000000000044
:100530000000000000000FC03FE07FF078F8F07886
:10054000F0780078007800F001F003E007C00F8039
:100550001F003E003C0078007FF8FFF8FFF8000025
:10056000000000000000000000000000000000008B
:1005700000001F803FC07FE0F9F0F0F000F001E0E4
:1005800007E0078007E000F0007800780078F07856
:10059000F07878F07FF03FE00F800000000000006E
:1005A000000000000000000000000000000000F05B
:1005B00000F001F003F003F007F00EF00EF01CF075
:1005C00038F038F070F0E0F0FFFCFFFCFFFC00F0CA
:1005D00000F000F000F0000000000000000000004B
:1005E000000000000000000000003FF03FF07FF03E
:1005F00078007000700077C0FFE0FFF0F0F0007846
:100600000078007800780078F078F8F07FE03FE03C
:100610001F8000000000000000000000000000003B
:1006200000000000000007C01FE03FF078F8787875
:100630007000F000F7C0FFE0FFF0F8F0F078F0781D
:10064000F078F078707878F03FF01FE00F800000CD
:10065000000000000000000000000000000000009A
:100660000000FFF8FFF8FFF800F801F001E003C018
:1006700007C007800F800F000F001E001E001E0025
:100680001E003C003C003C003C000000000000005C
:1006900000000000000000000000000000001FC07B
:1006A0003FE07FF0F8F8F078F078F07878F03FE00D
:1006B0001FC03FE078F0F078F078F078F078F8F844
:1006C0007FF03FE00F80000000000000000000000D
:1006D000000000000000000000000F803FC07FE02D
:1006E00078F0F070F078F078F078F07878F87FF8BB
:1006F0003FF81F7800780070F0F0F8F07FE07FC0DE
:100700001F000000000000000000000000000000CA
:1007100000000000000000F0F0F0F0000000000019
:100720000000F0F0F0F00000000000000000000009
:100730000000000000F0F0F0F000000000000000F9
:10074000F0F0F0F03070E040000000000000000029
:1007500000000000000000000008003801F807F861
:100760001FF07F80FC00F000FC007F801FF007F886
:1007700001F8003800080000000000000000000040
:100780000000000000000000000000000000000069
:100790000000000000000000FFFCFFFCFFFCFFFC6D
:1007A00000000000FFFCFFFCFFFCFFFC000000005D
:1007B0000000000000000000000000000000000039
:1007C0000000000000000000000000000000000029
:1007D0008000E000FC00FF007FC00FF001F800780F
:1007E00001F80FF07FC0FF00FC00E0008000000077
:1007F00000000000000000000000000000000000F9
:100800000000000000000FC03FF07FF8787CF83C4B
:10081000F03C003C007C00F803F003E007C00780D8
:100820000780000000000780078007800780000025
:1008300000000000000000000000000000000000B8
:1008400000000000000000000000007F800001FFA9
:10085000E00007FFF8000FC0FC001E003C003C7BDE
:10086000DE0038FFCE0079FFCF0073CF870073879B
:100870008700F3878700E7078700E7078700E70718
:100880000E00E70F0E00E70F1E00E79F3C00E3FF9E
:10089000F80073FFF00071E7C000780007803C00AB
:1008A0000F001E001F001F807E0007FFFC0003FFDB
:1008B000F00000000000000000000000000001F057
:1008C0000003F80003F80003F80007BC0007BC00B1
:1008D00007BC000F1E000F1E000F1E001E0F001E83
:1008E0000F001FFF003FFF803FFF803C0780780321
:1008F000C07803C07803C0F001E0000000000000F1
:1009000000000000000000000000000000000000E7
:100910000000000000000000FFF800FFFC00FFFEE8
:1009200000FFFF00F01F00F00F00F00F00F01E00AE
:10093000FFFE00FFFC00FFFE00FFFF00F00F80F055
:100940000780F00780F00F80FFFF80FFFF00FFFEB1
:1009500000FFFC000000000000000000000000009C
:100960000000000000000000000000000000000087
:10097000000003F8000FFE001FFF003FFF807E0F06
:10098000807807C0F80300F00000F00000F00000DD
:10099000F00000F00000F00300F807C07807C07E08
:1009A0001F803FFF801FFF000FFE0003F8000000C4
:1009B0000000000000000000000000000000000037
:1009C000000000000000000000000000FFF000FF39
:1009D000FC00FFFE00FFFE00F01F00F00F00F00F14
:1009E00080F00780F00780F00780F00780F0078034
:1009F000F00780F00F80F00F00F01F00FFFE00FFF7
:100A0000FE00FFFC00FFF0000000000000000000FE
:100A100000000000000000000000000000000000D6
:100A20000000FFFEFFFEFFFEFFFEF000F000F00002
:100A3000F000FFFCFFFCFFFCFFFCF000F000F0000A
:100A4000F000FFFEFFFEFFFEFFFE000000000000C2
:100A50000000000000000000000000000000FFFC9B
:100A6000FFFCFFFCFFFCF000F000F000F000FFF8DE
:100A7000FFF8FFF8FFF8F000F000F000F000F000E1
:100A8000F000F000F0000000000000000000000096
:100A9000000000000000000000000000000003F85B
:100AA000000FFE001FFF003FFF807E0FC07807C0D1
:100AB000F80300F00000F00000F03FC0F03FC0F08D
:100AC0003FC0F03FC07803C07C03C07E0FC03FFF33
:100AD000C01FFF800FFE0003F800000000000000B0
:100AE0000000000000000000000000000000000006
:100AF00000000000F00FF00FF00FF00FF00FF00FFC
:100B0000F00FF00FFFFFFFFFFFFFFFFFF00FF00FF1
:100B1000F00FF00FF00FF00FF00FF00F00000000DB
:100B2000000000000000000000000000F0F0F0F005
:100B3000F0F0F0F0F0F0F0F0F0F0F0F0F0F0F0F0B5
:100B4000000000000000000000000000000000782D
:100B500000780078007800780078007800780078D5
:100B60000078007800780078F078F078F8F87FF076
:100B70007FF03FE01F800000000000000000000048
:100B80000000000000000000000000000000F00F66
:100B900080F01F00F03E00F07C00F0F800F1F00063
:100BA000F3E000F7C000FFC000FFE000FFF000FC32
:100BB000F000F8F800F07800F03C00F03E00F01E85
:100BC00000F01F00F00F80F0078000000000000020
:100BD0000000000000000000000000000000000015
:100BE00000000000F000F000F000F000F000F00065
:100BF000F000F000F000F000F000F000F000F00075
:100C0000F000F000FFFCFFFCFFFCFFFC0000000018
:100C100000000000000000000000000000000000D4
:100C200000000000FC07E0FE0FE0FE0FE0FE0FE01A
:100C3000F60DE0F71DE0F71DE0F71DE0F71DE0F30E
:100C4000B9E0F3B9E0F3B9E0F3B9E0F1B1E0F1F103
:100C5000E0F1F1E0F1F1E0F1F1E0F0E1E0F0E1E00C
:100C60000000000000000000000000000000000084
:100C700000000000000000000000F00FF80FFC0F63
:100C8000FC0FFE0FFE0FFF0FF70FF78FF3CFF3CF21
:100C9000F1EFF0EFF0FFF07FF07FF03FF03FF01F5B
:100CA000F01F000000000000000000000000000035
:100CB0000000000000000000000003F8000FFE002C
:100CC0001FFF003FFF807E0FC07807C0F803E0F0F1
:100CD00001E0F001E0F001E0F001E0F001E0F001FE
:100CE000E0F803E07C07C07E0FC03FFF801FFF00DD
:100CF0000FFE0003F80000000000000000000000EC
:100D000000000000000000000000000000000000E3
:100D1000FFF0FFF8FFFCFFFEF03EF01EF01EF03E7D
:100D2000FFFEFFFCFFF8FFE0F000F000F000F00035
:100D3000F000F000F000F0000000000000000000F3
:100D400000000000000000000000000000000000A3
:100D500003F8000FFE001FFF003FFF807E0FC07CE6
:100D600007C0F803E0F001E0F001E0F001E0F0017D
:100D7000E0F001E0F001E0F833E07C7FC07E1FC0CE
:100D80003FFF801FFF800FFFE003F9F00000E0004D
:100D900000600000000000000000000000000000F3
:100DA00000000000000000000000FFF800FFFC0051
:100DB000FFFE00FFFF00F01F00F00F00F00F00F03B
:100DC0001F00FFFE00FFFE00FFFC00FFE000F0F848
:100DD00000F07C00F03C00F03E00F01F00F00F003F
:100DE000F00F80F007C000000000000000000000CD
:100DF00000000000000000000000000000000000F3
:100E000007E01FF83FFC7FFC7C3E781E7C007F8063
:100E10003FF01FFC07FE00FF001FF00FF80F7C1FC4
:100E20007FFE3FFE1FFC07F00000000000000000F6
:100E3000000000000000000000000000FFFFFFFFB6
:100E4000FFFFFFFF03C003C003C003C003C003C014
:100E500003C003C003C003C003C003C003C003C07A
:100E600003C003C0000000000000000000000000FC
:100E70000000000000000000F00FF00FF00FF00F76
:100E8000F00FF00FF00FF00FF00FF00FF00FF00F6A
:100E9000F00FF00FF80FFC3F7FFE7FFE3FFC0FF0DE
:100EA0000000000000000000000000000000000042
:100EB0000000000000000000F00780F80F80780FAD
:100EC00000780F00780F003C1E003C1E003C1E0006
:100ED0001C1C001E3C001E3C001E3C000E38000F77
:100EE00078000F780007700007700007F00003E03B
:100EF0000003E0000000000000000000000000000F
:100F000000000000000000000000000000000000E1
:100F1000000000000000F03E0780F03E0780703EB9
:100F20000700787F0F0078770F0078770F007877C9
:100F30000F0038F78E0038E38E003CE39E003CE360
:100F40009E003CE39E001DC1DC001DC1DC001DC1F4
:100F5000DC001DC1DC001F80FC000F80F8000F804A
:100F6000F8000F80F8000000000000000000000002
:100F70000000000000000000000000000000000071
:100F8000000000000000781E7C3E3C3C1E781E786D
:100F90000FF00FF007E003C003C007E00FE00FF011
:100FA0001E781E783C3C3C3C781EF81FF00F000079
:100FB0000000000000000000000000000000000031
:100FC000000000000000F003C0F807C07C0F803C68
:100FD0000F003E1F001E1E000F3C000FFC0007F814
:100FE0000003F00003F00001E00001E00001E00078
:100FF00001E00001E00001E00001E00001E000018B
:10100000E000000000000000000000000000000000
:101010000000000000000000000000007FFF7FFFD4
:101020007FFF7FFF001E003C007800F001E003C05E
:1010300007C007800F001E003C007800FFFFFFFF85
:10104000FFFFFFFF000000000000000000000000A4
:1010500000000000FEFEFEFEF0F0F0F0F0F0F0F018
:10106000F0F0F0F0F0F0F0F0F0FEFEFEFE00000018
:101070000000E0E070707070383838381C1C1C1CA0
:101080000E0E0E0E0707000000000000000000001A
:10109000FEFEFEFE1E1E1E1E1E1E1E1E1E1E1E1EF0
:1010A0001E1E1E1E1EFEFEFEFE00000000000000B2
:1010B00000000F000F001F801F801F8039C039C043
:1010C00079E070E0F0F00000000000000000000097
:1010D0000000000000000000000000000000000010
:1010E0000000000000000000000000000000000000
:1010F00000000000000000000000000000000000F0
:1011000000000000000000000000000000000000DF
:1011100000000000000000000000FFFFFFFFFFFFD5
:10112000000000000000F078381C00000000000003
:1011300000000000000000000000000000000000AF
:10114000000000000000000000000000000000009F
:1011500000001FC03FE07FF0F1F0E0F000F003F08E
:101160003FF07CF0F0F0F0F0F1F0FFF07F703E78AF
:10117000000000000000000000000000000000006F
:1011800000000000F000F000F000F000F000F3C0FC
:10119000FFF0FFF8F878F87CF03CF03CF03CF03CD5
:1011A000F03CF87CFC78FFF8FFF0F3C00000000092
:1011B000000000000000000000000000000000002F
:1011C000000000000000000000000FC03FE07FF0C2
:1011D00078F8F060F000F000F000F000F000F0604F
:1011E00078F87FF03FF00FC0000000000000000022
:1011F000000000000000000000000000003C003C77
:10120000003C003C003C0F3C3FFC7FFC787CF87CC1
:10121000F03CF03CF03CF03CF03CF87C787C7FFC0F
:101220003FFC0F3C00000000000000000000000038
:1012300000000000000000000000000000000000AE
:1012400000000F803FE07FF078F0F070F078FFF85A
:10125000FFF8FFF8F000F00078607FF83FF00FC073
:10126000000000000000000000000000000000007E
:10127000000000000FC01FC03FC03C003C00FF80CA
:10128000FF80FF803C003C003C003C003C003C00F8
:101290003C003C003C003C003C003C0000000000E6
:1012A000000000000000000000000000000000003E
:1012B000000000000000000000000F3C3FBC7FFC6D
:1012C000787CF87CF03CF03CF03CF03CF03CF87C66
:1012D00078FC7FFC3FBC1F3C003CC07CFFF87FF0EB
:1012E0001FE000000000000000000000F000F0001F
:1012F000F000F000F000F3E0FFF0FFF8F8F8F0780D
:10130000F078F078F078F078F078F078F078F0789D
:10131000F078F078000000000000000000000000FD
:1013200000000000F0F0F00000F0F0F0F0F0F0F05D
:10133000F0F0F0F0F0F0F0F000000000000000002D
:1013400000001E1E1E00001E1E1E1E1E1E1E1E1E35
:101350001E1E1E1E1E1E1E1EFEFCF80000000000AB
:1013600000000000F000F000F000F000F000F0F0ED
:10137000F1E0F1C0F3C0F780F700FF00FF80FF80CD
:10138000FBC0F3C0F1E0F1E0F0F0F0F0000000008D
:10139000000000000000000000000000F0F0F0F08D
:1013A000F0F0F0F0F0F0F0F0F0F0F0F0F0F0F0F03D
:1013B000000000000000000000000000000000002D
:1013C000000000000000000000000000000000001D
:1013D00000F3E1F0FFF7F8FFFFFCF8FC7CF07C3C49
:1013E000F0783CF0783CF0783CF0783CF0783CF0D9
:1013F000783CF0783CF0783CF0783CF0783C0000A9
:1014000000000000000000000000000000000000DC
:1014100000000000000000000000000000000000CC
:101420000000F3E0F7F0FFF8F8F8F078F078F078E3
:10143000F078F078F078F078F078F078F078F0786C
:10144000000000000000000000000000000000009C
:10145000000000000000000000000000000007C0C5
:101460001FF03FF87C7C783CF01EF01EF01EF01E52
:10147000F01E783C7C7C3FF81FF007C000000000A5
:10148000000000000000000000000000000000005C
:1014900000000000000000000000F3E0FFF0FFF893
:1014A000F878F87CF03CF03CF03CF03CF03CF87C08
:1014B000FC78FFF8F7F0F3C0F000F000F000F00067
:1014C000F00000000000000000000000000000002C
:1014D0000000000000000F3C3FFC7FFC787CF87CA3
:1014E000F03CF03CF03CF03CF03CF87C78FC7FFCBD
:1014F0003FFC0F3C003C003C003C003C003C00003A
:1015000000000000000000000000000000000000DB
:101510000000F780FF80FF80F800F800F000F00086
:10152000F000F000F000F000F000F000F000F0003B
:1015300000000000000000000000000000000000AB
:1015400000000000000000000000000000001FC0BC
:101550007FF0FFF8F060F000FC007F803FE00FF0CC
:1015600001F800783078FFF07FF01FC00000000025
:10157000000000000000000000000000000000006B
:1015800004001C003C003C003C00FF80FF80FF800A
:101590003C003C003C003C003C003C003C003C006B
:1015A0003C003F801F800F80000000000000000012
:1015B000000000000000000000000000000000002B
:1015C000000000000000F078F078F078F078F07813
:1015D000F078F078F078F078F078F078F8F8FFF8B4
:1015E0007FF83E78000000000000000000000000CE
:1015F00000000000000000000000000000000000EB
:101600000000F078F078F078707078F078F038E0DA
:1016100038E03CE01DC01DC01FC00F800F800F8050
:1016200000000000000000000000000000000000BA
:1016300000000000000000000000000000000000AA
:1016400000000000000000F07078F0F87870F8708A
:1016500078F8F078F8F038DCE03DDDE03DDDE01DC5
:10166000DDC01DDDC01F8FC00F8F800F8F800F8FDB
:10167000800F078000000000000000000000000054
:10168000000000000000000000000000000000005A
:101690000000000000000000F078F07878F03DE0F5
:1016A0003DC01FC00F800F800F801FC03DE03DE098
:1016B00078F0F078F07800000000000000000000F2
:1016C000000000000000000000000000000000001A
:1016D00000000000F01EF01E783C783C78383C7822
:1016E0003C781C701C701EF00EE00EE007C007C0B6
:1016F00007C007800F807F007F007C000000000093
:1017000000000000000000000000000000000000D9
:10171000FFF0FFF0FFF000F001E003C007800F00D2
:101720001E003C007800F000FFF0FFF0FFF000002A
:1017300000000000000000000000000000000000A9
:10174000000007800F801F801C001C001C001C0074
:101750001C001C001C003C00F800F000F8003C00DD
:101760001C001C001C001C001C001C001C001F8016
:101770000F800780000000000000E0E0E0E0E0E013
:10178000E0E0E0E0E0E0E0E0E0E0E0E0E0E0E0E059
:10179000E0E0E0000000000000000000F000F800C1
:1017A000FC001C001C001C001C001C001C001C0079
:1017B0001E000F8007800F801E001C001C001C00F4
:1017C0001C001C001C001C00FC00F800F0000000C5
:1017D0000000000000000000000000000000000009
:1017E0000000000000003C00FF8CFFFCFFFCC3FC7D
:1017F00000F00000000000000000000000000000F9
:1018000000000000000000000000000000000000D8
:1018100000000000000000000000000000000000C8
:1018200000000000000000000000000000000000B8
:1018300000000000000000000000000000000000A8
:101840000000000000000000000000000000000098
:101850000000000000000000000000000000000088
:101860000000000000000000000000000000000078
:1018700000000000000000000000000060F0F8F828
:10188000183060C00000000000000000007C00DC98
:1018900001DC01C0018003800380038003801FF806
:1018A0000380038007800700070007000700070088
:1018B0000700060006000E000E00EC00CC00F80049
:1018C0000000000000000000000000000000000018
:1018D0000000000000000000000000000000000008
:1018E000000000000000000000000000F3C0FBC08A
:1018F000FBC018C018C030C06180C30000000000E9
:1019000000000000000000000000000000000000D7
:1019100000000000000000000000000000000000C7
:101920000E000E000E000E000C000C00ECE0FFE0BC
:10193000CC600C000C0006000E000E000E000E0025
:101940000E0006000C000C000C000C000C000C003B
:101950000C000C0000000000000000000E000E0053
:101960000E000E000C000C00ECE0FFE0CC600C0060
:101970000C000C000E000E000E000C000C000C0001
:10198000ECE0FFE0CC600C000C000E000E000E003E
:10199000000000003F00F3C0000000000000000055
:1019A0000000000000000000000000000000000037
:1019B0000000000000000000000000000000000027
:1019C0000000000000000000000000000000000017
:1019D000000000000000000000001F18003BF8009D
:1019E00033F000733000733000636000E36000E3A5
:1019F000C000E3C000E6C00067BE1E7DF63303737F
:101A00007303E3E303E3E306C3E306C6C607C6C600
:101A10000CC7C60CCCCC18F8EC187078000000008D
:101A2000000000000000000000003CF00FC00000BB
:101A300000001FF030707038603870187018700037
:101A400078003E001F000FC003E001F000F80078AE
:101A5000C038C03CC038E038F03878706FC0000043
:101A60000000000000000000000000000000000076
:101A700006060C183870F070381C0C0606000000C2
:101A80000000000000000000000000000000000056
:101A9000000001E000000F3FFFE01C0F00E03007F6
:101AA0000060700700607007000060070000E0073A
:101AB0000180E0070180E0070180E007FF80E00788
:101AC000FF80E0070180E0070180E0070180E00778
:101AD0000000F0070000700700307807003038077A
:101AE00000601C0780E00F1FFFE003F00000000013
:101AF00000000000000000000000000000000000E6
:101B000000000000000000000000000000000000D5
:101B100000000000000000000000000000000000C5
:101B200000000000000000000000000000000000B5
:101B300000000000000000000000000000000000A5
:101B40000000000000000000000000000000000095
:101B50000000000000000000000000000000000085
:101B60000000000000000000000000000000000075
:101B70000000000000003060C0C0F0F8F830000045
:101B80000000000000000000000000000000000055
:101B900000000000F0F8F818303060C000000000CD
:101BA0000000000000000000000000000000000035
:101BB00000000000000030E06180C180C180F1E0E1
:101BC000F9E0F9E030E00000000000000000000053
:101BD0000000000000000000000000000000000005
:101BE00000000000000000000000000000000000F5
:101BF0000000F1E0F9E0F9E018603060306060C0AA
:101C0000C180000000000000000000000000000093
:101C100000000000000000000000000000000000C4
:101C200000000000000000000000000000000000B4
:101C300000000000000000000000000000000000A4
:101C40000000000000000000000000000000000094
:101C50000000000000000000000000000000000084
:101C6000FFC00000000000000000000000000000B5
:101C70000000000000000000000000000000000064
:101C80000000000000000000000000000000000054
:101C90000000000000000000000000000000000044
:101CA0000000000000000000000000000000000034
:101CB0000000000000000000FFFFFFF0FFFFFFF04A
:101CC0000000000000000000000000000000000014
:101CD0000000000000000000000000000000000004
:101CE00000000000000000000000000000000000F4
:101CF000000000000000000000003180FD80CF00E7
:101D000000000000000000000000000000000000D3
:101D100000000000000000000000000000000000C3
:101D200000000000000000000000000000000000B3
:101D300000000000000000000000000000000000A3
:101D400000000000FFDE01E0CCCF0380CCCF038099
:101D50000C0F07800C0F87800C0D8D800C0DCD8033
:101D60000C0CCD800C0CF9800C0CF9800C0C7180E3
:101D70000C0C71803F0F37E00000000000000000F5
:101D80000000000000000000000000000000000053
:101D90000000000000000000000000000000000043
:101DA0000000000000000000000000000000000033
:101DB00000000000000000000000E1C03F001E0025
:101DC000000000003F806380E180E180E00070005F
:101DD0003C001E000F800380C1C0C1C0C180E180F3
:101DE000FF000000000000000000000000000000F4
:101DF00000000000C0C06030381C1E1C387060C07D
:101E0000C000000000000000000000000000000012
:101E100000000000000000000000000000000000C2
:101E2000000000000E0C003B3F0071B30061E38036
:101E300061E180E0FF80E0E000E0E000E0E000E061
:101E4000E000E0E18061E18061F18071FB003B3FF7
:101E5000000E1E0000000000000000000000000056
:101E60000000000000000000000000000000000072
:101E70000000000000000000000000000000000062
:101E80000000000000000000000000000000000052
:101E9000000000000000000000000000070E000F1E
:101EA0000F00070E00000000FF87F03C01C01C017E
:101EB000800E03800E0300070600078600038C00D7
:101EC00001DC0001D80000F00000F000007000000C
:101ED0007000007000007000007000007000007062
:101EE0000000F00000F00007FE000000000000000D
:101EF00000000000000000000000000000000000E2
:101F000000000000000000000000000000000000D1
:101F100000000000000000000000000000F0F0F0F1
:101F2000F000006060606060F0F0F0F0F0F0F0F061
:101F3000F0000000000000000000003000700060B1
:101F4000006000E00FC03FE07FF079F0F1F8F18031
:101F5000F300F300F300F678F6787EF07FF03FE0D0
:101F60001F8018001800180030003000000000002A
:101F70000000000000000FC01FE03FF07CF8787800
:101F8000787878007800FFC0FFC0FFC03C003C00BC
:101F90003C0078007800FF08FFFC7FFC41F800005F
:101FA0000000000000000000000000000000000031
:101FB00000000000000000000000201077B8FFFCC7
:101FC0007FF83870703870387038703838707FF833
:101FD000FFFC77B8201000000000000000000000A7
:101FE0000000000000000000000000000000F03CC5
:101FF0007878787838703CF01CE01FE01FE07FF8BC
:102000007FF87FF8078007807FF87FF87FF80780E8
:10201000078007800780000000000000000000002B
:10202000000000000000E0E0E0E0E0E0E0E0E0E0F0
:10203000E000000000E0E0E0E0E0E0E0E0E0E00000
:1020400000000000000000000F803FC07FE078F03B
:1020500078F07C003E003F007FC0F7E0E3F0E0F85E
:10206000F078F8387C383E781FF00FE007E001F098
:1020700000F078F07CF03FE01FE00F8000000000EF
:1020800000000000E380E380E38000000000000027
:102090000000000000000000000000000000000040
:1020A0000000000000000000000000000000000030
:1020B0000000000000000000000000000000000020
:1020C0000000000001F80007FE001E07803801C074
:1020D00030F0C063F860631C60C60C30C60030C6C8
:1020E0000030C60030C60030C60C30631C6063F898
:1020F0006030F0C03801C01E078007FE0001F80004
:1021000000000000000000000000000000000000CF
:10211000000000000000000000003F007F80E3801E
:1021200003803F80FF80E380E780FF807B800000AA
:10213000000000000000000000000000000000009F
:10214000000000000000000000000000000000008F
:10215000000000000000000000000000000000007F
:10216000000000000E381C703CF038E079E0F3C04D
:10217000F3C079E038E03CF01C700E38000000003D
:10218000000000000000000000000000000000004F
:10219000000000000000000000000000FFFCFFFC49
:1021A000FFFCFFFC003C003C003C003C003C003CD1
:1021B000000000000000000000000000000000001F
:1021C000000000000000000000000000000000000F
:1021D00000000000000000000000000000000000FF
:1021E00000000000000000000000000000000000EF
:1021F00001F80007FE001E07803801C033F0C063FD
:10220000F860631860C31830C31830C3F830C3F0E7
:1022100030C33030C33830631860631C60330CC087
:102220003801C01E078007FE0001F8000000000012
:10223000000000000000000000000000000000009E
:10224000FFFEFFFEFFFE0000000000000000000097
:10225000000000000000000000000000000000007E
:10226000000000000000000000000000000000006E
:1022700000000000000000000000000000003C7EA4
:10228000E7C3C3E77E3C0000000000000000000040
:10229000000000000000000000000000000000003E
:1022A000000007800780078007800780FFFCFFFC95
:1022B000FFFCFFFC07800780078007800780000085
:1022C000FFFCFFFCFFFCFFFC000000000000000022
:1022D00000000000000000003CFFE7070E1E387001
:1022E000FFFF0000000000000000000000000000F0
:1022F0000000000000003E7FE71E1E0707E77E3C4F
:1023000000000000000000000000000000000000CD
:10231000000000003C7870E00000000000000000B9
:1023200000000000000000000000000000000000AD
:10233000000000000000000000000000000000009D
:10234000F078F078F078F078F078F078F078F0784D
:10235000F078F078F078F8F8FFF8FFF8F778F00008
:10236000F000F000F000F0000000000000000000AD
:1023700000001FFC7FFC7FFCFF38FF38FF38FF3870
:10238000FF387F387F381F38073807380738073855
:102390000738073807380738073807380738073845
:1023A00007380738000000000000000000000000AF
:1023B0000000F0F0F0F0000000000000000000005D
:1023C000000000000000000000000000000000000D
:1023D0000000000000000000000000007C0E0E0E57
:1023E000F800000000003878F8B838383838383845
:1023F00000000000000000000000000000000000DD
:1024000000000000000000003E007F00F780E38035
:10241000E380E380E380F7807F003E00000000005F
:1024200000000000000000000000000000000000AC
:10243000000000000000000000000000000000009C
:10244000000000000000000000000000000000008C
:102450000000E38071C079E038E03CF01E781E781F
:102460003CF038E079E071C0E3800000000000003B
:10247000000000000000000000000000000000005C
:10248000000000001C03803C0380FC0700DC0F0000
:102490001C0E001C1C001C1C001C38001C38001CDE
:1024A000700000E03800E07801C0F801C1B8038393
:1024B000380386380707FC0E07FC0E00381C00386E
:1024C000000000000000000000000000000000000C
:1024D00000000000000000000000000000001C03DD
:1024E000803C0700FC0700DC0E001C0E001C1C00DA
:1024F0001C38001C38001C70001C700000E1E0005B
:10250000E7F801C73801C0380380700780F0070181
:10251000C00E03800E07F81C07F800000000000042
:1025200000000000000000000000000000000000AB
:1025300000000000000000003E00E07F01C0E70353
:10254000801E03801E0700070700070E00E71C001F
:102550007E1C003C380000381C00703C00E07C0011
:10256000E0DC01C19C01C31C0383FE0703FE0700DE
:102570001C0E001C00000000000000000000000015
:10258000000000000000000000000000000000004B
:10259000000000000000000007800780078007801F
:1025A00000000000078007800F801F003E007C00B5
:1025B000F800F000F03CF07C78787FF83FF00FC036
:1025C000000000000000000000000000000000000B
:1025D0000001F00001F00003F80003F80003BC0064
:1025E00007BC0007BC000F1E000F1E000F0F001ECF
:1025F0000F001FFF001FFF803FFF803FFFC07803D9
:10260000C07803C07801E0F001E0000000000000A5
:1026100000000000000000000000000000000000BA
:10262000000000000000FFFEFFFEFFFEF000F000D3
:10263000F000F000FFE0FFFCFFFEFFFFF00FF00FE7
:10264000F00FF00FF01FFFFEFFFCFFF8000000008E
:10265000000000000000000000000000000000007A
:102660000000FFF8FFFCFFFEF01EF01EF01EF01E43
:10267000FFFCFFF8FFFCFFFEF00FF00FF00FF00F74
:10268000F01FFFFEFFFCFFF800000000000000004C
:102690000000000000000000000000000000FFF843
:1026A000FFF8FFF8F000F000F000F000F000F0009C
:1026B000F000F000F000F000F000F000F000F0009A
:1026C000F000F0000000000000000000000000002A
:1026D0000000000000000000000000000000000FEB
:1026E000FF800FFF800FFF800E07801E07801E07F0
:1026F000801E07801E07801E07801E07801E078021
:102700001E07801E07803C07803C07803C0780FF37
:10271000FFE0FFFFE0FFFFE0E001E0E001E0E001BB
:10272000E0E001E000000000000000000000000008
:1027300000000000FFFCFFFCFFFCF000F000F000D8
:10274000F000FFFCFFFCFFFCF000F000F000F000E8
:10275000F000F000FFFEFFFEFFFE000000000000A2
:102760000000000000000000000000000000000069
:102770000000000000F83C1FFC3C3F3E3C3C0E3C8F
:10278000780F3C700F3CF0073CF007BDE003FFC042
:1027900003FFC007FFF00FBCF00F3CF81E3C781E93
:1027A0003C7C3E3C3C3C3C3E7C3C1E783C1F00005C
:1027B0000000000000000000000000000000000019
:1027C000000000000000000007803FF07FF87FF865
:1027D000F07C303C003C007800F003E003F003F8AC
:1027E000007C003C003CF03CF07CFFFC7FF81FE0EC
:1027F00000000000000000000000000000000000D9
:10280000000000000000F01EF03EF03EF07EF07E82
:10281000F0FEF1FEF1EEF3CEF3CEF78EFF8EFF0E5B
:10282000FE0EFE0EFC0EF80EF80EF00E000000007C
:1028300000000000000000000C300C6007E0038086
:102840000000F01EF03EF03EF07EF07EF0FEF1FE65
:10285000F1EEF3CEF3CEF78EFF8EFF0EFE0EFE0EE0
:10286000FC0EF80EF80EF00E000000000000000054
:102870000000000000000000000000000000F07CEC
:10288000F0FCF0F0F1E0F1C0F1C0F3C0F780FF0020
:10289000FF80FFC0F3C0F1E0F1F0F0F0F0F8F0F8E5
:1028A000F07CF07C00000000000000000000000050
:1028B0000000000000000000000000000000001FF9
:1028C000FF801FFF801FFF801E07801E07801E07DE
:1028D000801E07801E07801E07801E07801E07803F
:1028E0001E07801E07801E07801E07801E0780FEB1
:1028F0000780FC0780FC078000000000000000004B
:1029000000000000000000000000000000000000C7
:10291000000000000000000000FC07E0FC0FE0FEEB
:102920000FE0FE0FE0FE1FE0FE1FE0FF1DE0FF1DB9
:10293000E0F73DE0F73DE0F7B9E0F7B9E0F3F9E0A3
:10294000F3F9E0F3F1E0F3F1E0F1F1E0F1F1E0F1BE
:10295000E1E00000000000000000000000000000B6
:102960000000000000000000000000000000F00E69
:10297000F00EF00EF00EF00EF00EF00EFFFEFFFE69
:10298000FFFEFFFEF00EF00EF00EF00EF00EF00E59
:10299000F00EF00E0000000000000000000000003B
:1029A00000000000000000000000000001E000073F
:1029B000FC001FFF003FFF803E07C07C03C0780380
:1029C000C0F801E0F001E0F001E0F001E0F001E02A
:1029D000F001E0F803E07803C07C07C03E0F801FE1
:1029E000FF800FFE0007FC00000000000000000058
:1029F00000000000000000000000000000000000D7
:102A000000000000FFFEFFFEFFFEF01EF01EF01EA5
:102A1000F01EF01EF01EF01EF01EF01EF01EF01E46
:102A2000F01EF01EF01EF01EF01E00000000000060
:102A30000000000000000000000000000000000096
:102A4000FFF0FFF8FFFCF03CF01EF01EF01EF03E21
:102A5000FFFCFFFCFFF8FFC0F000F000F000F0000A
:102A6000F000F000F0000000000000000000000096
:102A7000000000000000000000000000000001E075
:102A80000007FC001FFE003FFF003C0F807807801E
:102A9000780600780000F00000F00000F00000F080
:102AA0000000F000007806007807807C0F803E1F51
:102AB000001FFF000FFE0007F800000000000000EC
:102AC0000000000000000000000000000000000006
:102AD000000000000000FFFEFFFEFFFE07800780F1
:102AE00007800780078007800780078007800780AE
:102AF00007800780078007800780078000000000AC
:102B000000000000000000000000000000000000C5
:102B10000000F80F780F7C0F3C1E3E1E1E3C1E3C32
:102B20000F38077807F003F003F001E001E001C07F
:102B300003C01F801F001F000000000000000000F5
:102B40000000000000000000000000000000000085
:102B50000000000070000070000FFF803FFFE03FAA
:102B6000FFE07C71F07870F0F07078F07078F070C1
:102B700078F07078F070787870F07FFFF03FFFE0C9
:102B80001FFFC003FE000070000070000000000086
:102B90000000000000000000000000000000000035
:102BA000000000000000000000000000007C0F801A
:102BB0003C0F003E1F001F1E000F3C000FFC0007D3
:102BC000F80003F00003F00003F00003F00007F842
:102BD000000FFC000F3C001F3E003E1F003C0F009A
:102BE0007C0F80F807C0000000000000000000001B
:102BF00000000000000000000000000000000000D5
:102C000000000000000000F01E00F01E00F01E009A
:102C1000F01E00F01E00F01E00F01E00F01E00F07E
:102C20001E00F01E00F01E00F01E00F01E00F01E40
:102C300000F01E00F01E00FFFF80FFFF80FFFF80FE
:102C40000003800003800003800003800000000078
:102C5000000000000000000000000000F01EF01E58
:102C6000F01EF01EF01EF01EF01EF01EF83EFFFEDD
:102C70007FFE1FDE001E001E001E001E001E001E26
:102C8000001E000000000000000000000000000026
:102C900000000000000000000000000000F0381EEE
:102CA000F0381EF0381EF0381EF0381EF0381EF0D6
:102CB000381EF0381EF0381EF0381EF0381EF0387E
:102CC0001EF0381EF0381EF0381EF0381EFFFFFED2
:102CD000FFFFFEFFFFFE00000000000000000000FC
:102CE00000000000000000000000000000000000E4
:102CF000000000000000000000000000F0381E008E
:102D0000F0381E00F0381E00F0381E00F0381E00AB
:102D1000F0381E00F0381E00F0381E00F0381E009B
:102D2000F0381E00F0381E00F0381E00F0381E008B
:102D3000F0381E00F0381E00F0381E00FFFFFF8044
:102D4000FFFFFF80FFFFFF80000003800000038083
:102D5000000003800000038000000000000000006D
:102D6000000000000000000000000000000000FF64
:102D7000C000FFC000FFC00003C00003C00003C0CC
:102D80000003C00003FF8003FFF003FFF803FFFC14
:102D900003C03C03C03C03C03C03C03C03C07C03F5
:102DA000FFF803FFF003FFE0000000000000000058
:102DB0000000000000000000000000000000000013
:102DC000000000000000000000F0003CF0003CF0BB
:102DD000003CF0003CF0003CF0003CF0003CFFE028
:102DE0003CFFFC3CFFFE3CFFFF3CF00F3CF00F3C87
:102DF000F00F3CF00F3CF01F3CFFFE3CFFFC3CFFA3
:102E0000F83C00000000000000000000000000008E
:102E10000000000000000000000000000000F000C2
:102E2000F000F000F000F000F000F000FFE0FFFC28
:102E3000FFFEFFFFF00FF00FF00FF00FF01FFFFE8F
:102E4000FFFCFFF800000000000000000000000090
:102E500000000000000000000000000003C0001F90
:102E6000F8003FFC007FFE007C1F00F80F00300FD1
:102E70000000078000078001FF8001FF8001FF80C4
:102E8000000780300780F00F00780F007C3F003F84
:102E9000FE001FFC000FF00000000000000000001A
:102EA0000000000000000000000000000000000022
:102EB000000000000000000000000003C000F01F40
:102EC000F000F03FFC00F07FFE00F0F83E00F0F074
:102ED0001F00F1F00F00F1E00F00F1E00F00FFE044
:102EE0000780FFE00780FFE00780F1E00F00F1E0DE
:102EF0000F00F0F00F00F0F01F00F0F83E00F07F40
:102F0000FC00F03FF800F00FF000000000000000AF
:102F100000000000000000000000000000000000B1
:102F200000000000000000000000000000000000A1
:102F3000000FFF801FFF803FFF803C03803C038029
:102F40003C03803C03803E03801FFF800FFF800115
:102F5000FF8007C3800F83800F03801F03803E0321
:102F6000803C03807C0380F80380000000000000A8
:102F70000000000000000000000000000000000051
:102F80000000000000000000000000000000000041
:102F90001FE07FF07FF0F0F0007003F03FF07F70F3
:102FA000F070F070F0F0F9F07FF83F78000000006A
:102FB0000000000000000000000000000000000011
:102FC000001C0FFC1FF83FE07000600067C0EFF0CE
:102FD000FFF8FC7CF83CF03CF01EF01EF01C783C46
:102FE000787C3FF83FF00FE0000000000000000098
:102FF00000000000000000000000000000000000D1
:103000000000000000000000FFE0FFF0F0F8F078A2
:10301000F078F0F8FFE0FFF0F078F038F03CF0F8EE
:10302000FFF8FFF0000000000000000000000000BA
:103030000000000000000000000000000000000090
:1030400000000000FF80FF80FF80F000F000F00033
:10305000F000F000F000F000F000F000F000F000F0
:103060000000000000000000000000000000000060
:103070000000000000000000000000000000000050
:10308000000000000000000000000FFE000FFE0026
:103090000FFE000E1E000E1E001E1E001E1E001C37
:1030A0001E001C1E003C1E00381E00FFFF80FFFF9C
:1030B00080FFFF80E00380E00380E00380E0038086
:1030C0000000000000000000000000000000000000
:1030D000000000000000000000001FC03FE07FF083
:1030E0007070F078F078FFF8FFF8F000F000F078FA
:1030F0007DF03FE01FC00000000000000000000065
:1031000000000000000000000000000000000000BF
:1031100000000000000000000000000000000000AF
:10312000F0E1E0F8E3E038E3801CE7001CE7000E84
:10313000EE0007FE000FFE001EE7003CE78038E3CC
:103140008078E3C078E1C0F0E1E00000000000001A
:10315000000000000000000000000000000000006F
:10316000000000000000000000000000000000005F
:103170001FC03FE078F070F000F000E003C003E013
:1031800000F00070F07078F07FF01FC000000000C9
:10319000000000000000000000000000000000002F
:1031A000000000000000000000000000E078E0F8EF
:1031B000E1F8E1F8E3F8E3F8E778EF78EE78FC7807
:1031C000FC78F878F078F07800000000000000004B
:1031D000000000000000000000000000306018C087
:1031E0001FC00F8000000000E078E0F8E1F8E1F88F
:1031F000E3F8E3F8E778EF78EE78FC78FC78F87895
:10320000F078F078000000000000000000000000EE
:1032100000000000000000000000000000000000AE
:1032200000000000E1E0E3E0E3C0E380E700EF003E
:10323000FE00FF00E780E780E3C0E3C0E1E0E1E0FB
:10324000000000000000000000000000000000007E
:10325000000000000000000000000000000000006E
:103260001FFE1FFE1FFE1E0E1E0E1E0E1E0E1E0E2B
:103270001E0E1E0E1E0EFC0EFC0EF80E00000000B0
:10328000000000000000000000000000000000003E
:10329000000000000000000000000000F81FF81F00
:1032A000FC1FFC3FFC3FFE3FEE77EE77E777E7E75A
:1032B000E7E7E3E7E3C7E3C7000000000000000022
:1032C00000000000000000000000000000000000FE
:1032D0000000000000000000F078F078F078F0784E
:1032E000F078FFF8FFF8FFF8F078F078F078F078F1
:1032F000F078F078000000000000000000000000FE
:1033000000000000000000000000000000000000BD
:10331000000000000FE03FF07FF8787CF03CF01CEC
:10332000F01EF01EF01CF03C787C7FF83FF00FE0C0
:10333000000000000000000000000000000000008D
:10334000000000000000000000000000000000007D
:10335000FFF0FFF0FFF0F070F070F070F070F070C0
:10336000F070F070F070F070F070F070000000001D
:10337000000000000000000000000000000000004D
:10338000000000000000000000000000E7E0EFF097
:10339000FFF0F878F078F038F038F038F038F0785E
:1033A000F878FFF0FFF0F7C0F000F000F000F00058
:1033B000F00000000000000000000000000000001D
:1033C00000000000000000001FE03FF07FF0787870
:1033D000F060F000F000F000F000F07878787FF016
:1033E0003FF01FC0000000000000000000000000CF
:1033F00000000000000000000000000000000000CD
:1034000000000000FFF8FFF8FFF8070007000700C2
:103410000700070007000700070007000700070074
:10342000000000000000000000000000000000009C
:10343000000000000000000000000000000000008C
:10344000F01C783C783C38383C783C781C701EF096
:103450001EE00EE00FE007C007C007C0078007802E
:103460000F807F007E003800000000000000000098
:1034700000000000000000007800007800007800E4
:103480000078000078001F7BE03FFFF07FFFF078BE
:10349000FC78F07878F07838F0783CF0783CF07888
:1034A00038F0787878F8787FFFF03FFFF01F7BE006
:1034B00000780000780000780000780000780000B4
:1034C00000000000000000000000000000000000FC
:1034D000000000000000F078F8F07DF03DE01FC033
:1034E0001F800F800F801FC03FE03DE078F0F0F8B4
:1034F000F078000000000000000000000000000064
:1035000000000000000000000000000000000000BB
:103510000000F078F078F078F078F078F078F078D3
:10352000F078F078F078F078FFFCFFFCFFFC001CEE
:10353000001C001C001C0000000000000000000037
:103540000000000000000000000000000000F07813
:10355000F078F0787078707878787FF83FF81FF816
:103560000078007800780078007800000000000003
:10357000000000000000000000000000000000004B
:10358000000000000000000000000000000000003B
:1035900000000000E0E1E0E0E1E0E0E1E0E0E1E0A7
:1035A000E0E1E0E0E1E0E0E1E0E0E1E0E0E1E0E016
:1035B000E1E0E0E1E0FFFFE0FFFFE0FFFFE000000F
:1035C00000000000000000000000000000000000FB
:1035D00000000000000000000000000000000000EB
:1035E0000000000000000000000000000000E0E11A
:1035F000E0E0E1E0E0E1E0E0E1E0E0E1E0E0E1E0C6
:10360000E0E1E0E0E1E0E0E1E0E0E1E0E0E1E0FF96
:10361000FFF0FFFFF0FFFFF00000700000700000FF
:1036200070000070000000000000000000000000BA
:10363000000000000000000000000000000000008A
:103640000000000000000000FF0000FF0000FF007D
:10365000000F00000F00000F00000FFF000FFF80A1
:103660000F07800F03C00F03C00F07800FFF800FED
:10367000FE0000000000000000000000000000004C
:10368000000000000000000000000000000000003A
:10369000000000000000000000000000000000002A
:1036A0000000F000E0F000E0F000E0F000E0F000EA
:1036B000E0F000E0FFF0E0FFF8E0F078E0F038E064
:1036C000F038E0F0F8E0FFF8E0FFE0E00000000094
:1036D00000000000000000000000000000000000EA
:1036E00000000000000000000000000000000000DA
:1036F0000000F000F000F000F000F000F000FFF03B
:10370000FFF8F078F03CF03CF078FFF8FFE00000C4
:1037100000000000000000000000000000000000A9
:1037200000000000000000000000000000003FC09A
:103730007FE07FF0F0F00078007807F807F8007875
:103740002078F0F0FFF07FE03FC0000000000000B4
:103750000000000000000000000000000000000069
:103760000000000000000000000000000000000059
:1037700000000000F03F80F0FFC0F0FFE0F1E1E06A
:10378000F1E0F0F1C0F0FFC0F0FFC0F0FFC0F0F1D9
:10379000E0F0F1E1E0F0FFE0F0FFC0F03F8000007A
:1037A0000000000000000000000000000000000019
:1037B0000000000000000000000000000000000009
:1037C000000000001FF83FF8783870387038703803
:1037D00078383FF80FF81C38383878387038E038C7
:1037E00000000000000000000000000000000000D9
:1037F00000000000000000000000000000000000C9
:10380000000000000011880000000000000000001F
:1038100000000000000000000000000000000000A8
:103820000000000000000000000000000000000098
:1038300000000000000000006666666600000000F0
:103840000000000000000000000000000000000078
:1038500000000000000000006000000066000000A2
:10386000660000006600000066000000666666668E
:1038700066000000660000006600000066000000B0
:1038800006000000000000000000000060000000D2
:103890006600000066000000660000006600000090
:1038A0006600000066000000660000006600000080
:1038B000660000000600000000000000000000009C
:1038C00060606060666666666666666666666666B0
:1038D0006666666666666666666666666666666688
:1038E0006666666666666666060606060000000090
:1038F0000000000060600000666600006666000070
:1039000066660000666600006666666666660000BB
:103910006666000066660000666600000606000037
:103920000000000000000000606060006666660045
:103930006666660066666600666666006666666659
:1039400066666600666666006666660066666600AF
:103950000606060000000000000000000000000055
:103960000000000000000000000000000000000057
:103970000000000000000000000000000000000047
:103980000000000000000000000000000000000037
:103990000000000000000000000000000000000027
:1039A0000000000000000000000000000000000017
:1039B0000000000000000000000000000000000007
:1039C00000000000000000000000000000000000F7
:1039D00000000000000000000000000000000000E7
:1039E00000000000000000000000000000000000D7
:1039F00000000000000000000000000000000000C7
:103A000000000000000000000000000000000000B6
:103A100000000000000000000000000000000000A6
:103A20000000000000000000000000000000000096
:103A30000000000000000000000000000000000086
:103A40000000000000000000000000000000000076
:103A50000000000000000000000000000000000066
:103A60000000000000000000000000000000000056
:103A70000000000000000000000000000000000046
:103A80000000000000000000000000000000000036
:103A90000000000000000000000000000000000026
:103AA0000000000000000000000000000000000016
:103AB0000000000000000000000000000000000006
:103AC0000000000000000070000071CF0010CE0068
:103AD000003308000067000000CE000000CC0000AA
:103AE00000EC000000760000003380000001EC00D4
:103AF000000017FC00000007E0000000FFE80000E5
:103B0000FFFF8000FFFFCC00FFFFEE00FFFFFF0084
:103B1000FFFFFF00FFFFFF00FFFFEE00FFFFCC00F5
:103B2000FFFF0800FF8E00000E00000000000010E4
:103B3000001000110013C8F300007F0C0000C60045
:103B400000108C0000FF88000001C80000006C001D
:103B50000000F7C000318C3F00010011000000019F
:103B60008000000088008000FC318C0003EF000022
:103B700000360000001380000011FF000031080033
:103B80000063000030FE0000CF13C800880008006A
:103B9000080000000000000000000060000010EEBF
:103BA0000000736E0010CE6677FF086666660066DA
:103BB00077FF80660001EC66000037E6000001EE4A
:103BC0000000000600000000000000000000C0002F
:103BD00000007E00007633803033918833919988DD
:103BE0001199998833199988033319880067330824
:103BF0000000E70000000C000000000000000000D2
:103C000000000060000010EE1380733D006CCEC613
:103C100077DBB16A6666EE6677BD1BA600C6EC6C04
:103C2000310837D3000001EE00000006000000005C
:103C30000000000000000000000000000000000084
:103C40000000000000000000000000000000000074
:103C50000000000000000000000000000000000064
:103C60000000000000000000000000000000000054
:103C70000000000000000000000000000000000044
:103C80000000000000000000000000000000000034
:103C90000000000000000000000000000000000024
:103CA0000000000000000000000000000000000014
:103CB0000000000000000000000000000000000004
:103CC00000000000000000000000000000000000F4
:103CD00000000000000000000000000000000000E4
:103CE00000000000000000000000000000000000D4
:103CF00000000000000000000000000000000000C4
:103D000000000000000000000000000000000000B3
:103D100000000000000000000000000000000000A3
:103D20000000000000000000000000000000000093
:103D30000000000000000000000000000000000083
:103D40000000000000000000000000000000000073
:103D50000000000000000000000000000000000063
:103D600000000000000000000000000000001088BB
:103D7000000073880010FF880073FF8810FFFF8821
:103D800013FFFF88007FFF880013FF8800007F88F3
:103D90000000138800000008000000000000000080
:103DA0001180000011EC000011FF800011FFEC00F9
:103DB00011FFFF8011FFFF8C11FFEF0011FF8C003E
:103DC00011EF0000118C0000010000000000000055
:103DD0000000000000000000001080000031C8005A
:103DE0000073EC0000F7FE0010FFFF8031FFFFC8FA
:103DF00073FFFFEC77FFFFEE000000000000000003
:103E000000000000000000000000000000000000B2
:103E100077FFFFEE37FFFFCE13FFFF8C01FFFF0898
:103E2000007FEF000037CE0000138C000001080077
:103E30000000000000000000000000000000000082
:103E40000000000000000000000000000000000072
:103E50000000000000000000000000000000000062
:103E60000000000000000000000000000000000052
:103E70000000000000000000000000000000000042
:103E80000000000000000000000000000000000032
:103E90000000000000000000000000000000000022
:103EA00000108000001188000011880000118800B7
:103EB000001188000011880000118800000108002E
:103EC000001080000033CC0000010800000000005A
:103ED0000000000000E0700000EE770000EE33000C
:103EE00000EE3300000000000000000000000000B1
:103EF00000000000000000000000000000000000C2
:103F000000000000000000000000000000661188B2
:103F10000066318870F6F3E007CF3F0E00CC330027
:103F200000CC330077FFFFEE00CC6700118C6600F9
:103F30000108060000000000000000000000C600AC
:103F40000070FC0010CFCF883388CC0033D98800B4
:103F500001FFC8000013FFC0003189CC003310CC32
:103F600032F3F38C013F0E000067000000000000F8
:103F700010E00070673F00CE6633318876E373004F
:103F8000030CC60000118C00007330C000C6E76E41
:103F9000118CCC7773007CE60600030C0000000057
:103FA000000000000070C00010CF7E0011883300B8
:103FB00011C8670001FD8E0010FF00E0731BC8CE22
:103FC00067007ECC7700378833F8F7EC000F080FD6
:103FD00000000000000000000010C0000011CC0034
:103FE00000118C000011880000000000000000009B
:103FF00000000000000000000000000000000000C1
:10400000000000000000000000000000000072003E
:104010000000C60000318C0000330800006700007B
:1040200000E6000000EE000000EE00000066000068
:1040300000770000003388000001EC0000007E00E3
:1040400000E40000003700000013C8000000EC008E
:1040500000006E000000770000007700000077008D
:10406000000067000000EE000010CC0000330800E4
:1040700000E70000001080001011888001FDF908A1
:104080000033CC0010DFBF80011188080001080058
:104090000000000000000000000000000000000020
:1040A0000000000000000000000000000000000010
:1040B0000000000000118800001188000011880035
:1040C00077FFFFEE001188000011880000118800C2
:1040D00000000000000000000000000000000000E0
:1040E00000000000000000000000000000000000D0
:1040F0000000000000000000000000000030800010
:104100000033CC000011CC0000318C0011EF000016
:10411000000000000000000000000000000000009F
:10412000000000000000000000FFFF000000000091
:10413000000000000000000000000000000000007F
:10414000000000000000000000000000000000006F
:10415000000000000000000000000000000000005F
:10416000000000000031C8000033CC00000108004E
:104170000000000000000000000010C000003188B6
:1041800000003300000066000000CE0000118C002B
:10419000003188000073000000E6000000CC000041
:1041A000118C000033080000000000000000000037
:1041B00000F3FE00118C13C8330810CC730073EEAB
:1041C00077108EEE77E300EE338C00CE338811CC7F
:1041D00001FCF30800070E000000000000000000D2
:1041E000000000000071CC00319FCC000111CC0018
:1041F0000011CC000011CC000011CC000011CC004B
:104200000011CC0010F1FCC0010F0F0C00000000E9
:10421000000000000000000010F7FC0013083788C1
:104220000000138800003188000073080010EF00C0
:1042300000338C0000E7000031FCF0C0030F0F0CCE
:1042400000000000000000000000000010FFFC0063
:104250000100378800003188000073080077FE00F5
:10426000000013C8000011CC0000118C30F0F708DA
:10427000030F0C0000000000000000000000000020
:104280000000FF000031BF000073330000E6330080
:10429000118C33003308330076F0F3E0070F3F0E44
:1042A00000003300000003000000000000000000D8
:1042B0000000000011FFFF88118800001188000035
:1042C0001188000011FFFE00000017C8000011CC8B
:1042D0000000318C10F0F708010F0800000000000A
:1042E00000000000000000000030FF8800CF000048
:1042F0001188000033B8F00033CF1FC8330000EC42
:10430000338800EE138810CC01FCF38800070E0000
:1043100000000000000000000000000033FFFFCCA0
:10432000000010CC00003188000073000000E6009F
:104330000010CC00003188000073080000E7000086
:10434000000E00000000000000000000000000005F
:1043500000F7FE80318C13CC338810CC11EC718CBB
:10436000003FEE0010CF3FC8338801CC338800CC2B
:1043700013FCF38C00070E0000000000000000009A
:104380000000000000F7FE00318C1388330011CCD0
:10439000330000CC33C810CC017FEFCC000010CC30
:1043A0000000318810F0CF00010F00000000000075
:1043B00000000000000000000000000000000000FD
:1043C0000010C0000033CC0000010C000000000011
:1043D000000000000010C0000033CC0000010C0001
:1043E00000000000000000000000000000000000CD
:1043F000000000000010C0000033CC0000010C00E1
:104400000000000000000000001080000033CC001D
:104410000011CC0000318C0000EF00000000000013
:104420000000000000001000000073080031CE0002
:1044300000E7000031CC0000007E00000013EC001B
:1044400000003780000001000000000000000000B4
:10445000000000000000000000000000000000005C
:104460000000000033FFFFCC0000000030F0F0C07F
:10447000030F0F0C0000000000000000000000000F
:1044800000000000000000000000000000800000AC
:1044900001FC00000017C80000007E00000033CCC3
:1044A0000000E70000718C0010CF00000008000041
:1044B000000000000000000000F00000000FFC0001
:1044C0000000378000001388000033880033EF00BD
:1044D0000033000000030000003000000077880077
:1044E0000003000000000000000000000010F000C9
:1044F00000E71FC8118C006E330000366631FF33B1
:1045000066673333CCCE6733CCCC6623CCCCE6663F
:10451000CC7F3F8C660000007600000013F8F100AD
:10452000000000000033CC0000636E0000667600DF
:1045300000CE370010CC33881188118833F8F1CCC5
:10454000730F0FEC6700006E0E0000070000000004
:10455000000000000000000033FFFE80338813C815
:10456000338811CC3388318833FFFE80338813CCF5
:10457000338800EE338810CC33F8F38C030F0E0031
:104580000000000000000000000000000071FFC8F3
:1045900010CE0004338800003300000077000000D4
:1045A000370000003380000013C8000001FEF0C493
:1045B00000030F08000000000000000000000000E1
:1045C00033FFFC00330017C8330001EC330000EE6A
:1045D000330000EE330000EE330000EE330011CC68
:1045E00033F0F708030F080000000000000000008F
:1045F0000000000011FFFF881188000011880000F2
:104600001188000011FFFF88118800001188000048
:104610001188000011F8F080010F0F080000000061
:10462000000000000000000011FFFF8811CC000016
:1046300011CC000011CC000011FCF08011CF0F084C
:1046400011CC000011CC000011CC0000010C0000C6
:104650000000000000000000000000000071FFC822
:1046600010CE000433880000770000007700F0C00F
:1046700077000FCC370000CC33C800CC01FEF0CC63
:1046800000030F0800000000000000000000000010
:10469000330000EE330000EE330000EE330000EE96
:1046A00033FFFFEE330000EE330000EE330000EE88
:1046B000330000EE0300000E0000000000000000C8
:1046C0000000000011FFFFCC0011880000118800DD
:1046D0000011880000118800001188000011880076
:1046E0000011880010F1F8C0010F0F0C000000004D
:1046F000000000000000000011FFFF880000338868
:1047000000003388000033880000338800003388BD
:10471000000033880000330011F0E700000F0800AC
:104720000000000000000000000000003388318C11
:10473000338873083388CE0033B9880033EF000024
:1047400033BF80003389EC0033887E00338813C880
:104750000308010E0000000000000000000000003F
:1047600011CC000011CC000011CC000011CC0000D5
:1047700011CC000011CC000011CC000011CC0000C5
:1047800011FCF0C0010F0F0C000000000000000041
:1047900000000000338811EE33CC31EE774C2366F5
:1047A000676666666632C46666138C66660108666E
:1047B0006600006666000066060000060000000055
:1047C000000000000000000033C800CC33EC00CC37
:1047D000336600CC333300CC331388CC3301CCCCDC
:1047E00033006ECC330036CC330033CC0300010CE5
:1047F00000000000000000000000000000F3FE8048
:10480000318C13CC730000EE7700006E77000066E9
:1048100077000066770000EE338010CC01FCF308CF
:1048200000070E0000000000000000000000000073
:1048300033FFFE80338813CC338800EE338800CEFC
:104840003388318C33FFCF00338800003388000079
:104850003388000003080000000000000000000092
:104860000000000000F3FE80318C13CC730800EED2
:104870007700006E7700006677000066770000EE34
:10488000338010CE11FCF30800178E000011EC20CD
:1048900000003FEF0000000011FFFE80118813C8E8
:1048A000118811CC1188718811FFCF0011887E000A
:1048B0001188370011881388118801CC0108000E77
:1048C00000000000000000000000000000F3FF8076
:1048D000318C00083388000013E80000007FF800E6
:1048E00000003FC8000001CC000010CC32F0F38C77
:1048F000010F0E000000000000000000000000009A
:1049000077FFFFEE00118800001188000011880079
:104910000011880000118800001188000011880033
:1049200000118800000108000000000000000000E5
:1049300000000000330000EE330000EE330000EE14
:10494000330000EE330000EE330000EE330000EEE3
:10495000338010CC11FCF38800070E00000000002B
:1049600000000000000000006E000077770000E605
:10497000338000CE138811CC11CC318800EC330881
:10498000006E77000077E6000033CE0000030C00D5
:10499000000000000000000000000000660000664B
:1049A0006600006666000066761188667733CC661E
:1049B00037236C66336666EE33C637CC33CC33CCE4
:1049C0000308010C000000000000000000000000CF
:1049D000378010CE13C8318C00EC77000077EE00E2
:1049E0000033CC000073EC0000EF770011CC33886B
:1049F000730801EC0F00000F000000000000000031
:104A0000000000007E0000E7378010CE11CC318C12
:104A100000EE73000077E6000013CC000011880060
:104A2000001188000011880000010800000000004B
:104A3000000000000000000033FFFFCC00003188C0
:104A4000000073000000CE0000118C00003308004D
:104A500000E6000010CC000031F8F0E0030F0F0E6C
:104A600000000000000000000077FF00006600006A
:104A7000006600000066000000660000006600009E
:104A8000006600000066000000660000006600008E
:104A900000660000006600000076F0007000000074
:104AA0003380000011C8000000CC00000066000048
:104AB00000370000001388000011C8000000EC005F
:104AC00000007600000033000000138800000000A2
:104AD00011FFCC000000CC000000CC000000CC0096
:104AE0000000CC000000CC000000CC000000CC0096
:104AF0000000CC000000CC000000CC000000CC0086
:104B000010F0CC00000000000031C80000636E000F
:104B100000CC3700118811C80300000C0000000011
:104B20000000000000000000000000000000000085
:104B30000000000000000000000000000000000075
:104B40000000000000000000000000000000000065
:104B50000000000000000000000000000000000055
:104B60000000000000000000F0F0F0F00000000085
:104B7000017E0000000308000000000000000000AB
:104B80000000000000000000000000000000000025
:104B90000000000000000000000000000000000015
:104BA0000000000000000000000000000070E000B5
:104BB000118F3F88000011CC0070F1CC31CF1FCC99
:104BC000338811CC13F8F7CC000F080C000000005C
:104BD00000000000308000003388000033880000AF
:104BE0003398F00033EB1FC8338C01CC338800ECD2
:104BF000338800CE338810CC33F8F308000F0C0054
:104C000000000000000000000000000000000000A4
:104C1000000000000010F00000E70F88118C000079
:104C2000338800003388000011C8000000FEF088BF
:104C300000030F000000000000000000000010C092
:104C4000000011CC000011CC0030F1CC10CF1FCCF3
:104C5000338811CC330011CC330011CC338031CCEC
:104C600011FCC7CC000F080C000000000000000081
:104C70000000000000000000000000000030E00024
:104C800010CF3F88318801CC33F0F0CC330F0F0CBC
:104C90003388000001FCF0CC00030F00000000008E
:104CA00000000000000070E00031CF0E003308006B
:104CB0000033000070F3F0E0073F0F0E00330000F8
:104CC0000033000000330000003300000003000048
:104CD00000000000000000000000000000000000D4
:104CE000000000000070F0E010CF3F8E3388118884
:104CF00013C8318811FFEF003300000013F8F08073
:104D0000318F0FEC770000EE33F8F18C308000002B
:104D100033880000338800003398F00033EB3F887D
:104D2000338C11CC338811CC338811CC338811CC1F
:104D3000338811CC0308010C0000000000000000C3
:104D40000010C0000033CC0000010C0010F0C000C7
:104D5000011FCC000011CC000011CC000011CC00D0
:104D60000011CC0010F1FCC0010F0F0C000000007E
:104D700000000000000070000000FF0000000700BD
:104D800010F0F000010F3F0000003300000033007E
:104D90000000330000003300000033000000730007
:104DA0000000770032F0CE00108000001188000073
:104DB00011880000118810E0118873081198CE0046
:104DC00011FB0800119BC80011887E00118833C8B0
:104DD0000108010E000000000000000010F0C000FB
:104DE000011FCC000011CC000011CC000011CC0040
:104DF0000011CC000011CC000011CC000011CC003F
:104E000010F1FCC0010F0F0C0000000000000000BA
:104E1000000000000000000000000000607010C0F2
:104E2000769FEBEC7719CC667711886677118866E8
:104E30007711886677118866070108060000000070
:104E40000000000000000000000000000000000062
:104E50003090F00033EF3F88338C11CC338811CC85
:104E6000338811CC338811CC338811CC0308010C62
:104E70000000000000000000000000000000000032
:104E8000000000000070E00010CF3FC8330801CCE4
:104E9000730000EE770000EE338010CC11FCF308B5
:104EA00000070E00000000000000000000000000ED
:104EB00000000000000000003090F00033EB1FC83D
:104EC000338C01CC338800EC338800CE338810CC8F
:104ED00033F8F308338F0C00338800003388000068
:104EE0000000000000000000000000000030F0C0E2
:104EF00010CF1FCC338811CC330011CC330011CC30
:104F0000338031CC11FCD7CC000F19CC000011CC70
:104F1000000011CC000000000000000000000000B4
:104F20001080F08011FB1FCC11CE00EE1188000024
:104F3000118800001188000011880000010800009D
:104F40000000000000000000000000000000000061
:104F5000000000000030F00010CF1F8811C80000D2
:104F600001FEC00000037F80000011CC11F0F308A7
:104F7000000F0E0000000000000000000000000014
:104F8000006200000066000070F6F0C0076F0F0CB2
:104F90000066000000660000006600000076000069
:104FA0000037F8C000010F0C0000000000000000F6
:104FB000000000000000000000000000308010C071
:104FC000338811CC338811CC338811CC338811CC81
:104FD000338831CC11FCE7CC000F080C0000000036
:104FE00000000000000000000000000000000000C1
:104FF000700000E0338010CC1388118C01CC330892
:1050000000EC7300007666000033CC0000030C0057
:105010000000000000000000000000000000000090
:10502000000000006000006066000066761188667F
:105030003733CCEE33236CCC33E676CC33CC33CC65
:10504000010C030C00000000000000000000000044
:105050000000000000000000708000E013CC318CE4
:10506000007E77000037CE000073EC0000E637804A
:10507000318C13C80708000E00000000000000007B
:10508000000000000000000000000000700000E0D0
:10509000338010CC1388118C01CC330800EE7300E0
:1050A0000076E6000033CC0000338C00007308006B
:1050B00070CE0000000000000000000000000000B2
:1050C00010F0F080010F3F88000067000010CC0056
:1050D0000033080000E6000011FCF0C0030F0F0CC5
:1050E00000000000000000000000F78800118C00A4
:1050F000003388000033880000338800007300000C
:1051000033EE000000378000003388000033880051
:1051100000338800001388000011FC800011880013
:10512000001188000011880000118800001188001B
:10513000001188000011880000118800001188000B
:1051400000118800001188000011880000118800FB
:1051500011FE80000013C8000011CC000011CC002B
:105160000011CC000000EC00000077CC0000CE0065
:105170000000CC000000CC000000CC000011CC00EE
:1051800010F3880000000000000000000000000094
:10519000000000000000000031FE00606713C8E658
:1051A00006007F8C000000000000000000000000EE
:1051B00000000000000000000000000000000000EF
:1051C00000000000000000000000000000000000DF
:1051D00000000000000000000000000000000000CF
:1051E00000000000000000000000000000000000BF
:1051F00000000030000000330000003300000033E6
:105200000000003330F0F0F033FFFFFF33FFFFFF0B
:1052100033FFFFFF33FFFFFF030F0F0F00000000FE
:10522000FFFFFFFFCF0F3FFFCC0033FFCC0033FF6A
:10523000CC0033FFCC0033FFFFCF0F3FFFCC003358
:10524000FFCC0033FFCC0033FFCC0033FFFCF0F386
:10525000FFFFFFFFFFFFFFFFCF3FCF0FCC33CC009F
:10526000CC33CC00CC33CC00CC33CC00FFCF3FCF01
:10527000FFCC33CCFFCC33CCFFCC33CCFFCC33CC06
:10528000FFFCF3FCFFFFFFFF00000000F0F0F0C0A8
:10529000FFFFFFCCFFFFFFCCFFFFFFCCFFFFFFCCEA
:1052A000C0000000CC000000CC000000CC000000DA
:1052B000CC0000000C00000000000000FFFFFFFF1A
:1052C000CF0F3FFFCC0033FFCC0033FFCC0033FFC8
:1052D000CC0033FFFFCF0F3FFFCC0033FFCC0033B8
:1052E000FFCC0033FFCC0033FFFCF0F3FFFFFFFFE8
:1052F000FFFFFFFF3FCF3FFF33CC33FF33CC33FF04
:1053000033CC33FF33CC33FF0F3FCF3F0033CC33AD
:105310000033CC330033CC330033CC33F0F3FCF325
:10532000FFFFFFFF00000000000000000000000081
:10533000000000000000000000000000000000006D
:10534000000000000000000000000000000000005D
:105350000000000000000000FFFFFFFFFFFFFFFF55
:10536000FFFFFFCFFFFFFF08FFFFCEC4FF0F39CCC9
:10537000FF3333CCFF0033CCFFFFC9CCFFFFFE046B
:10538000FFFFFFC8FFFFFFFFFFFFFFFFFFFFFFFF64
:10539000FFFFFFFFFFFFFFCFFFFFFF08FFFFCEC4B0
:1053A000FF0F39CCFF3333CCFF0033CCFFFFC9CC28
:1053B000FFFFFE04FFFFFFC8FFFFFFFFFFFFFFFF30
:1053C00000000000000000000011C80000C07E00C6
:1053D000003E138833919988119999881199998879
:1053E0003319998800E33188000CE70000118C0024
:1053F00000000000FFFFFFFFFFFFFFFFFFEE37FF92
:10540000FF3F81FFFFC1EC77FFEE6677FFEE667727
:10541000FFEE6677FFEE6677FF1CCE77FFF318FF8F
:10542000FFEE73FFFFFFFFFFFFFFFFFFFFFFFFFF29
:10543000FFEE37FFFFFF81FFFFFFEC77CC7FEE77BA
:10544000EE77EE77EE77EE77CCF7EE77FFFFCE775D
:10545000FFFF18FFFFEE73FFFFFFFFFF00000000DC
:1054600031FFFFFF77FFFFFF77FFFFFF37FFFFFFF2
:10547000010F0F0E000000000000000000000000FF
:10548000000000000000000000000000000000001C
:10549000FFFFFFFFCE00000098FFFFFE99FFFFFF18
:1054A000C80F0F0EFEF0F0F1FFFF8F1FFFFF887F88
:1054B000FFFFBA13FFFFFFC8FFFFFFFFFFFFFFFF64
:1054C000FFFFFFFFFFFFFFFFCE00000098AFAFBE62
:1054D00099AFAFBFC80F0F0EFEF0F0F1FFFFFFFF57
:1054E000FFFFFFFFFFFFFFFFFFFFFFFFFFFFFFFFCC
:1054F000FFFFFFFFFFFFFFFF000000008000000034
:10550000CC000000CC0000000800000000000000FB
:105510000010F0000073FFC800FFFFEE00FFFFEE79
:10552000007FFFCE0013FF0800000000FFFFFFFF19
:105530007FFFFFFF330FFFFF33E055FFF7FF11FF42
:10554000FFFCF1FFFFEF0FFFFF9CF037FF33FF99E8
:105550003333FF99FF93FF39FFEC00F7FFFFFFFFA5
:10556000FFFFFFFF7FFFFFFF33FFFFFF33FFFFFF63
:10557000F7FFFFFFFFFFFFFFFFEF0FFFFF9CF0377D
:10558000FF33BF99FF33B199FF93FF39FFEC00F769
:10559000FFFFFFFF000010070010080000001023AD
:1055A000000800A2000000F1100AC3FF80400008BC
:1055B000005300000055008D1004780808C28000D8
:1055C00001FEF680000F0FB8000020080000046004
:1055D00000420008000410010000007000FC03FFFE
:1055E000403FFEF08001FFFF8888FF8849000F08D8
:1055F0000030000000FEE800004F1F4F00002008B0
:1056000000100460004200FE008C11DD008830466E
:105610001000353F420000078077000088BB00770C
:105620005B77F0F700BB7FFF11F1DD7F0070F17752
:10563000000020F80000FB9F0073EF1A00FBEF3220
:1056400000FFFF7E00953E40B3AC03777FDDB8F0EE
:1056500077458105D6CC4700089C80001181CA801F
:105660000077FF770F40000000004800220802008A
:1056700025880080F0400000FF8E438861002010E4
:1056800000E12C000A0002000000325000009400EB
:105690000071F608E00F0E080028000030008000BE
:1056A0004404200040441000FD280000FFDE308844
:1056B00090F9CF00FFCF0211000010110000002967
:1056C000000020000010FE001F471E0800280000F8
:1056D0003001C00077CC220076C411802FA800884A
:1056E000AD7D00000E0800240030EE11FDFFFD111D
:1056F000FFFFED3DFFFF6B00FFFF6F88FFFEF30034
:10570000F0A80000CFFF0800E873CC00E9BBEF0071
:10571000E397FF885263BC009E8751FCF02611EE90
:105720000A0013EE0000036E0000F70000108F88DF
:10573000FFF7FF000000000000F7EE00110C3380BF
:10574000000031CC0000138C000077800000C60000
:105750000071080010EE000033FCF0E0030F0F0EA4
:105760000000000000000000000000000000120027
:1057700000082408000020000000100800000200BB
:105780000000004000001104000021042000140863
:105790000200040000000000000000000000000003
:1057A0002100108002006048000002440000948044
:1057B000008800800000244400000026000003440C
:1057C00000001008000000000000000000000000C1
:1057D0000000000010FFFE00010813800000138885
:1057E0000000730000FFFC0000001788000000CCE0
:1057F000000030C810F0E300010F080000000000B6
:1058000000000000000000000000080000208000F0
:1058100000500000002000002144000002080000A9
:1058200080000010080000010000000000000000DF
:1058300000000000000000000000000000110888C7
:105840000002C08800D44C881009448800064488AF
:10585000468844880900040800004080000044880D
:10586000000004080000000000000000000000002C
:105870000010F7000011FF0000237F0000CE77002A
:1058800030CC770071007700F7F0F7F00F0F7F0F43
:10589000000077000000070000000000000000008A
:1058A00000000000000000880044000000440000E8
:1058B00000440000000002000000244400001144E5
:1058C000000020040000100800000000000000009C
:1058D0000000000000000000220000CC22000000B8
:1058E0002200000022000000220000800000004092
:1058F000000033660000024420000800020004009B
:1059000000000000000000000000000011FFFF8800
:1059100011CC000011CC000011CC000011FFFC8064
:105920000000338C000000CC000011C830F0E7000C
:10593000030F0C0000000000000000000000000049
:1059400000000044000800000080000002881000F1
:1059500000400040000000220088002202081100E0
:1059600000000280000402000000000000000000AF
:1059700000000000004100001020080022C40000C8
:10598000464800004400206444881100448011000F
:10599000264C002212020604000002000000000053
:1059A00000000000000000000071FFCC10E70000C4
:1059B000318C00003170E000338F3FC8338801CE56
:1059C000330000CC31C801CE01FEF10C00030C0005
:1059D0000000000000000000000000004400002261
:1059E0000000004000000080000010080000A90036
:1059F0000011400000220000004408000091000057
:105A00000002000000000000000000000000000094
:105A10000000000000002102000042840000940009
:105A20000010B00000306200006044000000800000
:105A3000000800000102000000000000000000005B
:105A40000000000077FFFFEE0000118C000033081B
:105A50000000670800006F000001CE0000138C00FA
:105A60000037000000760000000C0000000000007D
:105A700000000000000000000004008020841244A8
:105A8000228810400014428400400000002040485A
:105A90000280000204880120020402840008000041
:105AA000000000000000000000000000100C01C019
:105AB00002C6306466C801622204C0800100110081
:105AC0002100004C4604122040801002260600C42B
:105AD00000000100000000000000000000000000C5
