:020000040800F2
:10000000F04600204D8601086D86010871860108C2
:100010001183010875860108798601080000000037
:100020000000000000000000000000007D860108C4
:1000300081860108000000008586010813830108FD
:10004000898601088D860108918601089586010838
:10005000998601089D86010821830108A18601086F
:10006000A5860108A9860108AD860108B1860108A8
:10007000B5860108B98601084F7C01083F7C01085C
:10008000BD860108C1860108C586010827830108CD
:100090002983010831830108C986010857480008EF
:1000A000CD860108D186010833830108D586010871
:1000B000D9860108DD860108E1860108E586010888
:1000C000E98601084383010849830108ED86010898
:1000D000F1860108F5860108F9860108FD86010808
:1000E0000187010805870108098701080D870108B4
:1000F0004F8301085F8301081187010815870108F4
:100100006F830108198701081D87010821870108ED
:1001100025870108298701082D87010831870108F3
:1001200035870108398701083D87010841870108A3
:1001300045870108498701084D8701085187010853
:1001400055870108598701085D87010881830108E7
:1001500061870108658701086987010887830108AD
:100160006D87010871870108758701087987010883
:100170007D8701088187010885870108000000004C
:10018000898701088D8701089187010895870108F3
:10019000998701089D870108A1870108A5870108A3
:1001A0008D8301088F83010897830108A9870108BF
:1001B000AD870108B1870108B5870108B987010833
:1001C000BD870108C187010870B500F031F8064607
:1001D0000FF22C00045D00F065F8204602F0E3FB0E
:1001E000002D14BF40F0800100F07F012046FFE7A2
:1001F00002F0CBFB3146FF20BDE8704002F0C5BBEA
:100200001020304038B5044600F014F800F049F8EA
:1002100024B100F015F800F0BF0403E000F010F87E
:1002200040F0400400F03AF8214600F006F8E1E022
:1002300004460D46FF2002F0B6BB0C2002F0A5BB21
:100240000C2002F0B0BB2DE9F84304460D461646DB
:10025000FFF7F0FF00F021F800F024F80C202F4603
:1002600002F0A1FB00F0C0080DE047EA0801FFF72B
:10027000E4FF20887F1C010A02F072FB34F8021BA5
:100280000E2000F06CF8FFB270198742EDDB494692
:10029000FF20BDE8F44302F078BB8146012002F064
:1002A000F1BB05460321FF2002F06FBB2DE9F84F9B
:1002B00005461E4688469246FF20374602F073FBED
:1002C000FFF7EBFF032002F057FB002002F06BFB6F
:1002D000102F0CBF40F0100100F0EF01002002F0E1
:1002E00054FB042002F05FFB02F041FB2946092089
:1002F00002F04BFB0A9C50204FEA540B594602F087
:1003000044FBB008002610FB0BF1512000F027F849
:1003100014FB07F0811000EB517044030AE018F859
:10032000011B0A207F1C02F030FBFFB2B7EB144F19
:10033000F5DB761CB0B2504504D27119C9B2092060
:100340000027F0E7042002F02EFB00F0FE0102F08F
:1003500010FB4946FF20BDE8F44F02F016BBC9B2BE
:1003600002F013BB38B50446FFF764FF054614B12D
:10037000012C15D034E012200C230090E8221649FD
:100380000020FFF793FFFFF78DFFC6210B2002F03F
:10039000FCFAC621532002F0F8FA02F0E4FA29E050
:1003A0001A201023009086220FF254010020FFF73C
:1003B0007DFFFFF777FF80210B2002F0E6FA802116
:1003C000532002F0E2FA922102F0CEFA2822102104
:1003D0000248FFF738FF0DE034F20008AC0A0108CC
:1003E00012200C2300904FF480724FF480210020E3
:1003F000FFF75CFF2946FF20BDE8344002F0C5BA94
:1004000000000000000000000000000000000000EC
:100410000000000000000000001188000000000043
:1004200000000000000000000000000000000000CC
:1004300000000000000000000000000000000000BC
:100440000000000000000000000000006666666614
:10045000000000000000000000000000000000009C
:10046000000000000000000000000000600000002C
:1004700066000000660000006600000066000000E4
:1004800066666666660000006600000066000000A2
:1004900066000000060000000000000000000000F0
:1004A00060000000660000006600000066000000BA
:1004B00066000000660000006600000066000000A4
:1004C000660000006600000006000000000000005A
:1004D000000000006060606066666666666666666C
:1004E00066666666666666666666666666666666AC
:1004F000666666666666666666666666060606061C
:10050000000000000000000060600000666600005F
:1005100066660000666600006666000066666666DF
:10052000666600006666000066660000666600009B
:10053000060600000000000000000000606060008F
:1005400066666600666666006666660066666600E3
:10055000666666666666660066666600666666006D
:100560006666660006060600000000000000000047
:10057000000000000000000000000000000000007B
:10058000000000000000000000000000000000006B
:10059000000000000000000000000000000000005B
:1005A000000000000000000000000000000000004B
:1005B000000000000000000000000000000000003B
:1005C000000000000000000000000000000000002B
:1005D000000000000000000000000000000000001B
:1005E000000000000000000000000000000000000B
:1005F00000000000000000000000000000000000FB
:1006000000000000000000000000000000000000EA
:1006100000000000000000000000000000000000DA
:1006200000000000000000000000000000000000CA
:1006300000000000000000000000000000000000BA
:1006400000000000000000000000000000000000AA
:10065000000000000000000000000000000000009A
:10066000000000000000000000000000000000008A
:10067000000000000000000000000000000000007A
:10068000000000000000000000000000000000006A
:10069000000000000000000000000000000000005A
:1006A000000000000000000000000000000000004A
:1006B000000000000000000000000000000000003A
:1006C000000000000000000000000000000000002A
:1006D000000000000000000000000070000071CF6A
:1006E0000010CE00003308000067000000CE0000BC
:1006F00000CC000000EC0000007600000033800019
:100700000001EC00000017FC00000007E000000002
:10071000FFE80000FFFF8000FFFFCC00FFFFEE00BE
:10072000FFFFFF00FFFFFF00FFFFFF00FFFFEE00E6
:10073000FFFFCC00FFFF0800FF8E00000E0000004E
:1007400000000010001000110013C8F300007F0C1F
:100750000000C60000108C0000FF88000001C800E7
:1007600000006C000000F7C000318C3F0001001158
:10077000000000018000000088008000FC318C0037
:1007800003EF000000360000001380000011FF009E
:10079000003108000063000030FE0000CF13C800E5
:1007A0008800080008000000000000000000006051
:1007B000000010EE0000736E0010CE6677FF086632
:1007C0006666006677FF80660001EC66000037E62B
:1007D000000001EE00000006000000000000000024
:1007E0000000C00000007E00007633803033918826
:1007F0003391998811999988331999880333198805
:10080000006733080000E70000000C000000000053
:100810000000000000000060000010EE1380733D37
:10082000006CCEC677DBB16A6666EE6677BD1BA646
:1008300000C6EC6C310837D3000001EE0000000662
:1008400000000000000000000000000000000000A8
:100850000000000000000000000000000000000098
:100860000000000000000000000000000000000088
:100870000000000000000000000000000000000078
:100880000000000000000000000000000000000068
:100890000000000000000000000000000000000058
:1008A0000000000000000000000000000000000048
:1008B0000000000000000000000000000000000038
:1008C0000000000000000000000000000000000028
:1008D0000000000000000000000000000000000018
:1008E0000000000000000000000000000000000008
:1008F00000000000000000000000000000000000F8
:1009000000000000000000000000000000000000E7
:1009100000000000000000000000000000000000D7
:1009200000000000000000000000000000000000C7
:1009300000000000000000000000000000000000B7
:1009400000000000000000000000000000000000A7
:100950000000000000000000000000000000000097
:100960000000000000000000000000000000000087
:100970000000000000000000000000000000000077
:1009800000001088000073880010FF880073FF8843
:1009900010FFFF8813FFFF88007FFF880013FF8888
:1009A00000007F880000138800000008000000009D
:1009B000000000001180000011EC000011FF800019
:1009C00011FFEC0011FFFF8011FFFF8C11FFEF0002
:1009D00011FF8C0011EF0000118C000001000000DD
:1009E0000000000000000000000000000010800077
:1009F0000031C8000073EC0000F7FE0010FFFF801C
:100A000031FFFFC873FFFFEC77FFFFEE000000002F
:100A100000000000000000000000000000000000D6
:100A20000000000077FFFFEE37FFFFCE13FFFF8CC3
:100A300001FFFF08007FEF000037CE0000138C009D
:100A4000000108000000000000000000000000009D
:100A50000000000000000000000000000000000096
:100A60000000000000000000000000000000000086
:100A70000000000000000000000000000000000076
:100A80000000000000000000000000000000000066
:100A90000000000000000000000000000000000056
:100AA0000000000000000000000000000000000046
:100AB0000000000000108000001188000011880074
:100AC00000118800001188000011880000118800C2
:100AD00000010800001080000033CC000001080075
:100AE000000000000000000000E0700000EE770051
:100AF00000EE330000EE33000000000000000000B4
:100B000000000000000000000000000000000000E5
:100B100000000000000000000000000000000000D5
:100B2000006611880066318870F6F3E007CF3F0E4B
:100B300000CC330000CC330077FFFFEE00CC670021
:100B4000118C660001080600000000000000000093
:100B50000000C6000070FC0010CFCF883388CC00A6
:100B600033D9880001FFC8000013FFC0003189CCD1
:100B7000003310CC32F3F38C013F0E00006700000D
:100B80000000000010E00070673F00CE663331883F
:100B900076E37300030CC60000118C00007330C0B4
:100BA00000C6E76E118CCC7773007CE60600030C60
:100BB00000000000000000000070C00010CF7E00A8
:100BC0001188330011C8670001FD8E0010FF00E09E
:100BD000731BC8CE67007ECC7700378833F8F7ECFC
:100BE000000F080F00000000000000000010C0000F
:100BF0000011CC0000118C000011880000000000E2
:100C000000000000000000000000000000000000E4
:100C100000000000000000000000000000000000D4
:100C2000000072000000C60000318C000033080094
:100C30000067000000E6000000EE000000EE00008B
:100C40000066000000770000003388000001EC001F
:100C500000007E0000E40000003700000013C80020
:100C60000000EC0000006E0000007700000077003C
:100C700000007700000067000000EE000010CC00CC
:100C80000033080000E70000001080001011888089
:100C900001FDF9080033CC0010DFBF800111880886
:100CA000000108000000000000000000000000003B
:100CB0000000000000000000000000000000000034
:100CC00000000000000000000011880000118800F2
:100CD0000011880077FFFFEE0011880000118800E6
:100CE000001188000000000000000000000000006B
:100CF00000000000000000000000000000000000F4
:100D000000000000000000000000000000000000E3
:100D1000003080000033CC000011CC0000318C008A
:100D200011EF0000000000000000000000000000C3
:100D300000000000000000000000000000FFFF00B5
:100D400000000000000000000000000000000000A3
:100D50000000000000000000000000000000000093
:100D60000000000000000000000000000000000083
:100D700000000000000000000031C8000033CC007B
:100D8000000108000000000000000000000010C08A
:100D90000000318800003300000066000000CE0033
:100DA00000118C00003188000073000000E6000094
:100DB00000CC0000118C000033080000000000008F
:100DC0000000000000F3FE00118C13C8330810CCA3
:100DD000730073EE77108EEE77E300EE338C00CE67
:100DE000338811CC01FCF30800070E00000000005E
:100DF00000000000000000000071CC00319FCC001A
:100E00000111CC000011CC000011CC000011CC006D
:100E10000011CC000011CC0010F1FCC0010F0F0C30
:100E200000000000000000000000000010F7FC00BF
:100E30001308378800001388000031880000730809
:100E40000010EF0000338C0000E7000031FCF0C020
:100E5000030F0F0C00000000000000000000000065
:100E600010FFFC0001003788000031880000730883
:100E70000077FE00000013C8000011CC0000118CA8
:100E800030F0F708030F0C00000000000000000025
:100E9000000000000000FF000031BF0000733300BD
:100EA00000E63300118C33003308330076F0F3E0B2
:100EB000070F3F0E00003300000003000000000099
:100EC000000000000000000011FFFF8811880000F2
:100ED000118800001188000011FFFE00000017C8F3
:100EE000000011CC0000318C10F0F708010F080051
:100EF0000000000000000000000000000030FF883B
:100F000000CF00001188000033B8F00033CF1FC8B5
:100F1000330000EC338800EE138810CC01FCF3881A
:100F200000070E00000000000000000000000000AC
:100F300033FFFFCC000010CC0000318800007300AC
:100F40000000E6000010CC000031880000730800AB
:100F500000E70000000E000000000000000000009C
:100F60000000000000F7FE80318C13CC338810CCD9
:100F700011EC718C003FEE0010CF3FC8338801CCDC
:100F8000338800CC13FCF38C00070E000000000037
:100F9000000000000000000000F7FE00318C138804
:100FA000330011CC330000CC33C810CC017FEFCC20
:100FB000000010CC0000318810F0CF00010F0000BD
:100FC0000000000000000000000000000000000021
:100FD000000000000010C0000033CC0000010C0035
:100FE00000000000000000000010C0000033CC0032
:100FF00000010C00000000000000000000000000E4
:1010000000000000000000000010C0000033CC0011
:1010100000010C0000000000000000000010800033
:101020000033CC000011CC0000318C0000EF000038
:101030000000000000000000000010000000730825
:101040000031CE0000E7000031CC0000007E00003F
:101050000013EC00000037800000010000000000D9
:101060000000000000000000000000000000000080
:10107000000000000000000033FFFFCC0000000073
:1010800030F0F0C0030F0F0C000000000000000063
:101090000000000000000000000000000000000050
:1010A0000080000001FC00000017C80000007E0066
:1010B000000033CC0000E70000718C0010CF00006E
:1010C00000080000000000000000000000F0000028
:1010D000000FFC00000037800000138800003388F8
:1010E0000033EF0000330000000300000030000078
:1010F00000778800000300000000000000000000EE
:101100000010F00000E71FC8118C006E330000369D
:101110006631FF3366673333CCCE6733CCCC66237E
:10112000CCCCE666CC7F3F8C6600000076000000E9
:1011300013F8F100000000000033CC0000636E00E3
:101140000066760000CE370010CC338811881188F5
:1011500033F8F1CC730F0FEC6700006E0E00000740
:1011600000000000000000000000000033FFFE80CF
:10117000338813C8338811CC3388318833FFFE801D
:10118000338813CC338800EE338810CC33F8F38CDB
:10119000030F0E000000000000000000000000002F
:1011A0000071FFC810CE0004338800003300000037
:1011B00077000000370000003380000013C80000F3
:1011C00001FEF0C400030F08000000000000000052
:1011D0000000000033FFFC00330017C8330001ECAF
:1011E000330000EE330000EE330000EE330000EE7B
:1011F000330011CC33F0F708030F080000000000A3
:10120000000000000000000011FFFF8811880000AE
:10121000118800001188000011FFFF88118800006C
:10122000118800001188000011F8F080010F0F08EC
:1012300000000000000000000000000011FFFF8817
:1012400011CC000011CC000011CC000011FCF0808A
:1012500011CF0F0811CC000011CC000011CC000000
:10126000010C000000000000000000000000000071
:101270000071FFC810CE0004338800007700000022
:101280007700F0C077000FCC370000CC33C800CC1B
:1012900001FEF0CC00030F08000000000000000079
:1012A00000000000330000EE330000EE330000EEDB
:1012B000330000EE33FFFFEE330000EE330000EEAC
:1012C000330000EE330000EE0300000E00000000CB
:1012D000000000000000000011FFFFCC001188009A
:1012E000001188000011880000118800001188009A
:1012F000001188000011880010F1F8C0010F0F0CD8
:1013000000000000000000000000000011FFFF8846
:1013100000003388000033880000338800003388E1
:1013200000003388000033880000330011F0E7002C
:10133000000F080000000000000000000000000096
:101340003388318C338873083388CE0033B98800F2
:1013500033EF000033BF80003389EC0033887E0018
:10136000338813C80308010E0000000000000000CD
:101370000000000011CC000011CC000011CC0000D6
:1013800011CC000011CC000011CC000011CC0000E9
:1013900011CC000011FCF0C0010F0F0C0000000088
:1013A0000000000000000000338811EE33CC31EE65
:1013B000774C2366676666666632C46666138C661B
:1013C00066010866660000666600006606000006A4
:1013D00000000000000000000000000033C800CC46
:1013E00033EC00CC336600CC333300CC331388CCE1
:1013F0003301CCCC33006ECC330036CC330033CC4D
:101400000300010C000000000000000000000000CC
:1014100000F3FE80318C13CC730000EE7700006E79
:101420007700006677000066770000EE338010CC0E
:1014300001FCF30800070E0000000000000000009F
:101440000000000033FFFE80338813CC338800EEA9
:10145000338800CE3388318C33FFCF0033880000CF
:1014600033880000338800000308000000000000FB
:10147000000000000000000000F3FE80318C13CC5F
:10148000730800EE7700006E770000667700006654
:10149000770000EE338010CE11FCF30800178E00A9
:1014A0000011EC2000003FEF0000000011FFFE8063
:1014B000118813C8118811CC1188718811FFCF00D1
:1014C00011887E001188370011881388118801CC9B
:1014D0000108000E000000000000000000000000F5
:1014E00000F3FF80318C00083388000013E800000F
:1014F000007FF80000003FC8000001CC000010CCC5
:1015000032F0F38C010F0E0000000000000000001C
:101510000000000077FFFFEE001188000011880036
:101520000011880000118800001188000011880057
:101530000011880000118800000108000000000070
:101540000000000000000000330000EE330000EE59
:10155000330000EE330000EE330000EE330000EE07
:10156000330000EE338010CC11FCF38800070E002E
:101570000000000000000000000000006E00007786
:10158000770000E6338000CE138811CC11CC31886F
:1015900000EC3308006E77000077E6000033CE00E1
:1015A00000030C000000000000000000000000002C
:1015B0006600006666000066660000667611886652
:1015C0007733CC6637236C66336666EE33C637CC2A
:1015D00033CC33CC0308010C0000000000000000F5
:1015E00000000000378010CE13C8318C00EC77006B
:1015F0000077EE000033CC000073EC0000EF7700C2
:1016000011CC3388730801EC0F00000F00000000BC
:1016100000000000000000007E0000E7378010CED0
:1016200011CC318C00EE73000077E6000013CC0083
:1016300000118800001188000011880000010800D6
:1016400000000000000000000000000033FFFFCC9D
:1016500000003188000073000000CE0000118C00F3
:101660000033080000E6000010CC000031F8F0E084
:10167000030F0F0E00000000000000000077FF00C5
:1016800000660000006600000066000000660000C2
:1016900000660000006600000066000000660000B2
:1016A0000066000000660000006600000076F000A2
:1016B000700000003380000011C8000000CC000062
:1016C0000066000000370000001388000011C80009
:1016D0000000EC00000076000000330000001388DA
:1016E0000000000011FFCC000000CC000000CC0086
:1016F0000000CC000000CC000000CC000000CC00BA
:101700000000CC000000CC000000CC000000CC00A9
:101710000000CC0010F0CC00000000000031C80038
:1017200000636E0000CC3700118811C80300000C64
:1017300000000000000000000000000000000000A9
:101740000000000000000000000000000000000099
:101750000000000000000000000000000000000089
:101760000000000000000000000000000000000079
:10177000000000000000000000000000F0F0F0F0A9
:1017800000000000017E00000003080000000000CF
:101790000000000000000000000000000000000049
:1017A0000000000000000000000000000000000039
:1017B0000000000000000000000000000000000029
:1017C0000070E000118F3F88000011CC0070F1CC58
:1017D00031CF1FCC338811CC13F8F7CC000F080C95
:1017E000000000000000000030800000338800008E
:1017F000338800003398F00033EB1FC8338C01CCE2
:10180000338800EC338800CE338810CC33F8F308EB
:10181000000F0C00000000000000000000000000AD
:1018200000000000000000000010F00000E70F883A
:10183000118C0000338800003388000011C80000BC
:1018400000FEF08800030F00000000000000000010
:10185000000010C0000011CC000011CC0030F1CC11
:1018600010CF1FCC338811CC330011CC330011CCF6
:10187000338031CC11FCC7CC000F080C00000000F5
:101880000000000000000000000000000000000058
:101890000030E00010CF3F88318801CC33F0F0CC2D
:1018A000330F0F0C3388000001FCF0CC00030F0055
:1018B0000000000000000000000070E00031CF0ECA
:1018C000003308000033000070F3F0E0073F0F0E14
:1018D000003300000033000000330000003300003C
:1018E00000030000000000000000000000000000F5
:1018F00000000000000000000070F0E010CF3F8EFC
:101900003388118813C8318811FFEF0033000000BD
:1019100013F8F080318F0FEC770000EE33F8F18C84
:101920003080000033880000338800003398F000D6
:1019300033EB3F88338C11CC338811CC338811CCF6
:10194000338811CC338811CC0308010C000000004F
:10195000000000000010C0000033CC0000010C00AB
:1019600010F0C000011FCC000011CC000011CC0011
:101970000011CC000011CC0010F1FCC0010F0F0CC5
:101980000000000000000000000070000000FF00E8
:101990000000070010F0F000010F3F0000003300CE
:1019A000000033000000330000003300000033006B
:1019B000000073000000770032F0CE0010800000BD
:1019C0001188000011880000118810E01188730848
:1019D0001198CE0011FB0800119BC80011887E00F1
:1019E000118833C80108010E00000000000000004B
:1019F00010F0C000011FCC000011CC000011CC0081
:101A00000011CC000011CC000011CC000011CC0062
:101A10000011CC0010F1FCC0010F0F0C0000000001
:101A200000000000000000000000000000000000B6
:101A3000607010C0769FEBEC7719CC6677118866E2
:101A4000771188667711886677118866070108061E
:101A50000000000000000000000000000000000086
:101A6000000000003090F00033EF3F88338C11CC41
:101A7000338811CC338811CC338811CC338811CC06
:101A80000308010C0000000000000000000000003E
:101A900000000000000000000070E00010CF3FC810
:101AA000330801CC730000EE770000EE338010CCD9
:101AB00011FCF30800070E00000000000000000009
:101AC0000000000000000000000000003090F00066
:101AD00033EB1FC8338C01CC338800EC338800CE45
:101AE000338810CC33F8F308338F0C0033880000B0
:101AF000338800000000000000000000000000002B
:101B00000030F0C010CF1FCC338811CC330011CC83
:101B1000330011CC338031CC11FCD7CC000F19CC61
:101B2000000011CC000011CC0000000000000000FB
:101B3000000000001080F08011FB1FCC11CE00EEE1
:101B40001188000011880000118800001188000031
:101B5000010800000000000000000000000000007C
:101B600000000000000000000030F00010CF1F88CF
:101B700011C8000001FEC00000037F80000011CCEE
:101B800011F0F308000F0E0000000000000000003C
:101B900000000000006200000066000070F6F0C067
:101BA000076F0F0C00660000006600000066000072
:101BB000007600000037F8C000010F0C00000000A4
:101BC0000000000000000000000000000000000015
:101BD000308010C0338811CC338811CC338811CCBD
:101BE000338811CC338831CC11FCE7CC000F080CC2
:101BF00000000000000000000000000000000000E5
:101C000000000000700000E0338010CC1388118CBD
:101C100001CC330800EC7300007666000033CC0082
:101C200000030C00000000000000000000000000A5
:101C30000000000000000000600000606600006618
:101C4000761188663733CCEE33236CCC33E676CC12
:101C500033CC33CC010C030C00000000000000006A
:101C6000000000000000000000000000708000E0A4
:101C700013CC318C007E77000037CE000073EC006F
:101C800000E63780318C13C80708000E0000000002
:101C90000000000000000000000000000000000044
:101CA000700000E0338010CC1388118C01CC330815
:101CB00000EE73000076E6000033CC0000338C00A9
:101CC0000073080070CE000000000000000000005B
:101CD0000000000010F0F080010F3F880000670056
:101CE0000010CC000033080000E6000011FCF0C03A
:101CF000030F0F0C00000000000000000000F78838
:101D000000118C0000338800003388000033880005
:101D10000073000033EE00000037800000338800BD
:101D20000033880000338800001388000011FC8015
:101D3000001188000011880000118800001188003F
:101D4000001188000011880000118800001188002F
:101D5000001188000011880000118800001188001F
:101D60000011880011FE80000013C8000011CC0093
:101D70000011CC000011CC000000EC00000077CC7A
:101D80000000CE000000CC000000CC000000CC0021
:101D90000011CC0010F388000000000000000000DB
:101DA00000000000000000000000000031FE0060A4
:101DB0006713C8E606007F8C0000000000000000EA
:101DC0000000000000000000000000000000000013
:101DD0000000000000000000000000000000000003
:101DE00000000000000000000000000000000000F3
:101DF00000000000000000000000000000000000E3
:101E0000000000000000003000000033000000333C
:101E1000000000330000003330F0F0F033FFFFFF2C
:101E200033FFFFFF33FFFFFF33FFFFFF030F0F0FF2
:101E300000000000FFFFFFFFCF0F3FFFCC0033FF8C
:101E4000CC0033FFCC0033FFCC0033FFFFCF0F3F7C
:101E5000FFCC0033FFCC0033FFCC0033FFCC00338A
:101E6000FFFCF0F3FFFFFFFFFFFFFFFFCF3FCF0FB0
:101E7000CC33CC00CC33CC00CC33CC00CC33CC0036
:101E8000FFCF3FCFFFCC33CCFFCC33CCFFCC33CC18
:101E9000FFCC33CCFFFCF3FCFFFFFFFF0000000092
:101EA000F0F0F0C0FFFFFFCCFFFFFFCCFFFFFFCC47
:101EB000FFFFFFCCC0000000CC000000CC00000001
:101EC000CC000000CC0000000C000000000000006E
:101ED000FFFFFFFFCF0F3FFFCC0033FFCC0033FFEE
:101EE000CC0033FFCC0033FFFFCF0F3FFFCC0033DC
:101EF000FFCC0033FFCC0033FFCC0033FFFCF0F30A
:101F0000FFFFFFFFFFFFFFFF3FCF3FFF33CC33FF5C
:101F100033CC33FF33CC33FF33CC33FF0F3FCF3FD2
:101F20000033CC330033CC330033CC330033CC33E9
:101F3000F0F3FCF3FFFFFFFF0000000000000000D3
:101F40000000000000000000000000000000000091
:101F50000000000000000000000000000000000081
:101F6000000000000000000000000000FFFFFFFF75
:101F7000FFFFFFFFFFFFFFCFFFFFFF08FFFFCEC404
:101F8000FF0F39CCFF3333CCFF0033CCFFFFC9CC7C
:101F9000FFFFFE04FFFFFFC8FFFFFFFFFFFFFFFF84
:101FA000FFFFFFFFFFFFFFFFFFFFFFCFFFFFFF0868
:101FB000FFFFCEC4FF0F39CCFF3333CCFF0033CC4F
:101FC000FFFFC9CCFFFFFE04FFFFFFC8FFFFFFFFBD
:101FD000FFFFFFFF00000000000000000011C8002C
:101FE00000C07E00003E138833919988119999882A
:101FF000119999883319998800E33188000CE7001A
:1020000000118C0000000000FFFFFFFFFFFFFFFF3B
:10201000FFEE37FFFF3F81FFFFC1EC77FFEE6677F2
:10202000FFEE6677FFEE6677FFEE6677FF1CCE77F2
:10203000FFF318FFFFEE73FFFFFFFFFFFFFFFFFF40
:10204000FFFFFFFFFFEE37FFFFFF81FFFFFFEC7792
:10205000CC7FEE77EE77EE77EE77EE77CCF7EE7714
:10206000FFFFCE77FFFF18FFFFEE73FFFFFFFFFFBD
:102070000000000031FFFFFF77FFFFFF77FFFFFF4A
:1020800037FFFFFF010F0F0E0000000000000000EF
:102090000000000000000000000000000000000040
:1020A00000000000FFFFFFFFCE00000098FFFFFED2
:1020B00099FFFFFFC80F0F0EFEF0F0F1FFFF8F1F1B
:1020C000FFFF887FFFFFBA13FFFFFFC8FFFFFFFF7F
:1020D000FFFFFFFFFFFFFFFFFFFFFFFFCE0000003E
:1020E00098AFAFBE99AFAFBFC80F0F0EFEF0F0F1C3
:1020F000FFFFFFFFFFFFFFFFFFFFFFFFFFFFFFFFF0
:10210000FFFFFFFFFFFFFFFFFFFFFFFF00000000DB
:1021100080000000CC000000CC000000080000009F
:10212000000000000010F0000073FFC800FFFFEE89
:1021300000FFFFEE007FFFCE0013FF08000000004D
:10214000FFFFFFFF7FFFFFFF330FFFFF33E055FF70
:10215000F7FF11FFFFFCF1FFFFEF0FFFFF9CF037D0
:10216000FF33FF993333FF99FF93FF39FFEC00F7FB
:10217000FFFFFFFFFFFFFFFF7FFFFFFF33FFFFFFBB
:1021800033FFFFFFF7FFFFFFFFFFFFFFFFEF0FFF33
:10219000FF9CF037FF33BF99FF33B199FF93FF39AD
:1021A000FFEC00F7FFFFFFFF000010070010080022
:1021B00000001023000800A2000000F1100AC3FF75
:1021C00080400008005300000055008D100478087E
:1021D00008C2800001FEF680000F0FB80000200842
:1021E00000000460004200080004100100000070BC
:1021F00000FC03FF403FFEF08001FFFF8888FF885E
:1022000049000F080030000000FEE800004F1F4F9B
:102210000000200800100460004200FE008C11DD68
:10222000008830461000353F4200000780770000EC
:1022300088BB00775B77F0F700BB7FFF11F1DD7F94
:102240000070F177000020F80000FB9F0073EF1A88
:1022500000FBEF3200FFFF7E00953E40B3AC0377FA
:102260007FDDB8F077458105D6CC4700089C80001B
:102270001181CA800077FF770F40000000004800FE
:102280002208020025880080F0400000FF8E43886D
:102290006100201000E12C000A0002000000325012
:1022A000000094000071F608E00F0E0800280000FE
:1022B000300080004404200040441000FD2800004D
:1022C000FFDE308890F9CF00FFCF0211000010111F
:1022D00000000029000020000010FE001F471E081B
:1022E000002800003001C00077CC220076C41180A5
:1022F0002FA80088AD7D00000E0800240030EE11EC
:10230000FDFFFD11FFFFED3DFFFF6B00FFFF6F883D
:10231000FFFEF300F0A80000CFFF0800E873CC0038
:10232000E9BBEF00E397FF885263BC009E8751FC36
:10233000F02611EE0A0013EE0000036E0000F70015
:1023400000108F88FFF7FF000000000000F7EE008C
:10235000110C3380000031CC0000138C000077801A
:102360000000C6000071080010EE000033FCF0E031
:10237000030F0F0E0000000000000000000000002E
:1023800000001200000824080000200000001008CF
:1023900000000200000000400000110400002104C1
:1023A00020001408020004000000000000000000EB
:1023B000000000002100108002006048000002447C
:1023C0000000948000880080000024440000002663
:1023D000000003440000100800000000000000009E
:1023E000000000000000000010FFFE000108138044
:1023F000000013880000730000FFFC000000178835
:10240000000000CC000030C810F0E300010F08000D
:1024100000000000000000000000000000000800B4
:102420000020800000500000002000002144000037
:1024300002080000800000100800000100000000F9
:10244000000000000000000000000000000000008C
:10245000001108880002C08800D44C881009448804
:10246000000644884688448809000408000040802B
:102470000000448800000408000000000000000084
:10248000000000000010F7000011FF0000237F0093
:1024900000CE770030CC770071007700F7F0F7F0CE
:1024A0000F0F7F0F00007700000007000000000002
:1024B0000000000000000000000000880044000050
:1024C000004400000044000000000200000024441A
:1024D000000011440000200400001008000000006B
:1024E000000000000000000000000000220000CCFE
:1024F00022000000220000002200000022000080D4
:102500000000004000003366000002442000080084
:1025100002000400000000000000000000000000B5
:1025200011FFFF8811CC000011CC000011CC00007D
:1025300011FFFC800000338C000000CC000011C8AB
:1025400030F0E700030F0C00000000000000000066
:1025500000000000000000440008000000800000AF
:102560000288100000400040000000220088002285
:1025700002081100000002800004020000000000B8
:1025800000000000000000000041000010200800D2
:1025900022C4000046480000440020644488110022
:1025A00044801100264C00221202060400000200A2
:1025B0000000000000000000000000000071FFCCDF
:1025C00010E70000318C00003170E000338F3FC80D
:1025D000338801CE330000CC31C801CE01FEF10CAE
:1025E00000030C00000000000000000000000000DC
:1025F000440000220000004000000080000010089D
:102600000000A90000114000002200000044080062
:102610000091000000020000000000000000000027
:1026200000000000000000000000210200004284C1
:10263000000094000010B000003062000060440010
:1026400000008000000800000102000000000000FF
:10265000000000000000000077FFFFEE0000118C7A
:10266000000033080000670800006F000001CE0082
:1026700000138C000037000000760000000C000002
:1026800000000000000000000000000000040080C6
:10269000208412442288104000144284004000002C
:1026A00000204048028000020488012002040284C5
:1026B0000008000000000000000000000000000012
:1026C000100C01C002C6306466C801622204C080DA
:1026D000010011002100004C46041220408010022D
:1026E000260600C4000001000000000000000000F9
:1026F0000000000010F3FF80118C01C8118001CC94
:1027000013F83308007FFF0010EF7F88310811EEC7
:10271000370011EE11FCF188000F0E0000000000E0
:1027200000000000000000001004020002842408E1
:102730000400110400801022204801220000300211
:10274000000010440000428000000100000008006A
:10275000000000000000000000000000000C0080ED
:1027600040C6004C40880324440801006400200057
:10277000028000200000310600000004200121003A
:102780000200000000000000000000000000000047
:1027900010F3FC00338C37C8770800C8778011EE3F
:1027A000138031EE01FFDFCE0000018C00007308C2
:1027B00030F0EE00030F08000000000000000000F1
:1027C000000010070010080000001023000800A2FD
:1027D000000000F1100AC3FF804000080053000011
:1027E0000055008D1004780808C2800001FEF680B4
:1027F000E00F0FB80000200800000460004200084D
:10280000000410030000007000FC03FF403FFEF0D6
:102810008001FFFF8888FF8849000F080030000012
:1028200000FEE800004F1F4F0000A00800310460C8
:1028300000C2003A008C11D1008830463100353F8B
:102840004A0000078077000088BB00355B56707730
:1028500081BB7FFF11F1DD3F0070F177000020F8B0
:102860000000FB9F0073EF1A00FBEF3000FFFF7EBC
:1028700000953E40B3AC03777FDDB8F07745810526
:10288000D6CC4700089C80001181CA80E077FF7792
:102890000F40000000004800220802002588008048
:1028A000F0400000FF8E43886100201000E12C0002
:1028B0000A00020000003250000094000071F60887
:1028C000E00F0EF8002800003000800044042000D3
:1028D00040441000FD280000FFDE308890F9CF0052
:1028E000FFCF02110000101100000029000020009D
:1028F0000010FE001F471E08002880003001E40081
:10290000664C220074C411882FA80088AD7D004059
:102910000E08002700206E11F8FBDD11FFFFEDBD52
:10292000FFFF6B02FF7F6F88FFFEF300F0A800003F
:10293000CFFF0800E873CC00E9BBEF00E397FF8806
:102940005263BC009E8751FCF02611EE0A0013EE84
:102950000000036E0000F70000108F88FFF7FFF003
:102960000D2000F012B8FF21542000F00EB840F006
:102970000101042000F009B880B5DFF8F42002233B
:1029800050700A2000908A2108E080B5DFF8E4202A
:10299000022310701E2051708A210090DFF8D800A9
:1029A00000F005F901BD00B585B01E21029101219D
:1029B000019103A90091024601238A212E4800F0CB
:1029C0004EFA9DF80C0005B000BD2C4800F02ABF5F
:1029D0002A4800F0D5BE10B5040008D0284800F001
:1029E00023F8012C0AD100F03AF8402117E000F05A
:1029F00038F82248BDE8104000F0C2BE022C03D1D6
:102A000000F02DF844210AE0032C03D100F027F850
:102A1000482104E0042C06D100F021F84C210220CA
:102A2000BDE81040B1E710BD7CB50446124E14F865
:102A3000025B0CE08DF805001E208DF804100223C7
:102A4000009001AA2946304600F0B1F8A41C217874
:102A50006078FF2908BFFF28ECD173BD0446012030
:102A60008AE70A2000F061BF0221FF208DE7000005
:102A7000E80600204EA90020B0A60020D0A100202A
:102A800074050020F8B500F01EF805460020FFF799
:102A900073FF002610E0FF210220FFF776FF0027DA
:102AA0000220FFF780FF400605D47F1CBFB24FF61F
:102AB000FF708742F4D1761CB0B2A042EBD3284617
:102AC000BDE8F24058E70446FF206CE770B5FFF719
:102AD000FBFF00F01BF81020FFF765FF05460D20F7
:102AE000FFF761FF00F00306032E08BF0226032153
:102AF000FFF7BBFF701900F12401C9B20320FFF7F3
:102B000044FF2146FF20BDE870403EE70446022115
:102B1000FF203AE738B5050001D1012032BD00F0B1
:102B200034F918B92070284600F034FF0220607094
:102B3000286801684908490001606868296820F030
:102B4000706008612868816821F400418160A8688C
:102B500040B1E968012929680CBF40F4004040F405
:102B600004408860E868022803D129684FF40060B7
:102B700048602868416841F0007100F001F9286957
:102B800069690843A96940EA01202968C860E869C1
:102B9000296A0843296808602868016841F0010132
:102BA00001600020606001206070002032BD2DE9CE
:102BB000F04D054682B000F0C6F850D1BBF1000FD1
:102BC00018BF002E4CD000F0CEF848D42078012851
:102BD00045D0012020701220607000206060FF2E20
:102BE0004FF40050009006DD00F0A7F800F053FD10
:102BF000DDF828A005E000F09AF8F7E700F0B8F952
:102C00003746514600F0A8F8F8B929681BF8010BBF
:102C10007F1EA6F101068862B0B210D188B153467A
:102C20000022802100F0B6F8A0B9B6B2FF2E0090C5
:102C3000E4DD00F010F900F09EF9FF27E1E700283D
:102C4000DFD1514600F08CF830B16068042808BF2D
:102C5000012005D0032003E000F004F800E002208A
:102C6000BDE8F68D29682020DFF80023C8612868B8
:102C70004168114041600120607000202070704761
:102C80002DE9F04D054682B000F05DF84CD1BBF166
:102C9000000F18BF002E48D000F065F844D420780B
:102CA000012841D000F063F8FF2E4FF4105000903F
:102CB00006DD00F042F800F0EEFCDDF828A005E0AB
:102CC00000F035F8F7E700F053F9374604212846BD
:102CD00000F07EFCF0B928687F1EA6F10106406A6C
:102CE0000BF8010BB0B210D188B1534600228021FD
:102CF00000F050F898B9B6B2FF2E0090E3DD00F076
:102D0000AAF800F038F9FF27E0E70028DED100F04C
:102D100026F830B16068042808BF012005D00320E0
:102D200003E0FFF79FFF00E00220BDE8F68D4FF0C3
:102D30000073F2B22846374670474FF08073FF2287
:102D40002846FF27704705F134048846607893468B
:102D50001E46012870474146284600F0FBBB19215A
:102D6000284600F010BC28688069000470470120E4
:102D700020702220607000206060704730684168D9
:102D800041F4004141607047054605F13404607824
:102D900070470821284600F0A4BB2DE9F84F00F049
:102DA000C7F855D10A9F002F4BD00B9C200048D06C
:102DB000FFF7D9FF4CD43078012849D0012030707A
:102DC000522000F0BCF800F02FFB40B170680428DE
:102DD00002D10020307034E00020307033E0FF2C4E
:102DE0004FF0FF0A009006DD00F035F8494600F08C
:102DF000C3F8D34606E04FF00073E2B2494600F054
:102E0000BBF8A346FFF7A7FFC0B9296817F8010B65
:102E100000F088F88862A0B20BD160B1434600226E
:102E20008021FFF7B7FF70B9A4B2FF2C0090E2DD5C
:102E3000DAE70028E6D1FFF792FF30B17068042886
:102E400001D1012005E0032003E000F081F800E05B
:102E50000220BDE8F28F4FF08073FF2270472DE90A
:102E6000F84F00F065F85AD10A9F002F50D00B9C04
:102E700020004DD0FFF777FF51D4307801284ED095
:102E800001203070622000F05AF800F0F4FA40B1EE
:102E90007068042802D10020307039E000203070C2
:102EA00038E0FF2C4FF410504FF0FF0A009006DD81
:102EB000FFF7D1FF494600F05FF8D34606E04FF038
:102EC0000073E2B2494600F057F8A3464346002299
:102ED0000421FFF75FFFE8B9286800F023F8406A93
:102EE00007F8010BA0B20BD160B14346002280214C
:102EF000FFF750FF70B9A4B2FF2C0090DFDDD7E7D9
:102F00000028E3D1FFF72BFF30B17068042801D10E
:102F1000012005E0032003E000F01AF800E00220A1
:102F2000BDE8F28FABF1010B641EBBF1000F7047DF
:102F3000054605F13406707889460128704770709F
:102F400000207060DDF83080CDF8008028467047A2
:102F500029682020054AC8612868416811404160FD
:102F600001207070002030707047000000E800FE03
:102F70004FF00073F2B24146284600F08CBB10B50A
:102F800004462068816989070ED4816909060BD43B
:102F90008169490608D48169890605D48169C90611
:102FA00002D4816909070AD5006800F07A007A28FE
:102FB00001BF94F835003228204600F0ACF92068B3
:102FC000816989070BD48169090608D4816949069A
:102FD00005D48169890602D48169C9060ED50068C5
:102FE00000F07200722809D194F83500122819BF38
:102FF00094F835005228204600F07AF8206881695C
:1030000049070ED4816909060BD48169490608D4A1
:103010008169890605D48169C90602D481690907D5
:103020000AD5006800F07C007C2801BF94F83500C8
:103030004228204600F0ABF92068816949070BD48B
:103040008169090608D48169490605D48169890620
:1030500002D48169C90610D5006800F07400742894
:103060000BD194F8350022281CBF94F83500622853
:1030700003D12046BDE81040A5E010BD80B5016831
:103080008A69D20509D50A68120606D5826B42F014
:10309000010282634FF48072CA6101688A69520535
:1030A00009D50A68120606D5826B42F008028263CF
:1030B0004FF48062CA6101688A69920509D50A687D
:1030C000120606D5826B42F0020282634FF4007250
:1030D000CA61816B21B1012180F8351000F007F839
:1030E00001BD704770477047704770477047704721
:1030F00038B500F0D7F801D1022032BD0120287088
:1031000020688169890707D5616A4A1C626209786B
:10311000816200F0C0F850E08169090610D5218D68
:1031200069B9618D59B100F0B0F803DD00F0C6F85F
:10313000FF2002E000F0CAF8608D20853DE007E046
:103140008169490607D5618D11B900F037F834E07F
:1031500000F0AEF82DE081698906816925D5C906A0
:1031600004D51021C16100F0BEF8686020686FF0DE
:10317000F20200F0BCF820688169C9075CBF012138
:10318000C161686820B1012068700020287011E0DA
:103190006878522804D100F0B8F8FFF7A6FF0CE0D9
:1031A00000F0B3F8FFF79DFF07E0C90605D500F072
:1031B00096F868602046FFF79AFF63E0416841F4A3
:1031C00080414160704738B500F06CF801D10220B1
:1031D00032BD0120287020688169490707D5616ADE
:1031E0004A1C6262406A087000F055F84AE0816942
:1031F000090610D5218D69B9618D59B100F045F8E6
:1032000003DD00F05BF8FF2002E000F05FF8608D66
:10321000208537E007E08169490607D5618D11B93E
:10322000FFF7CCFF2EE000F043F827E08169890624
:1032300081691FD5C90604D51021C16100F053F87A
:10324000686020686FF0F40200F051F8686820B1FF
:10325000012068700020287011E06878622804D18D
:1032600000F053F8FFF742FF0CE000F04EF8FFF7D4
:1032700039FF07E0C90605D500F031F8686020463F
:10328000FFF735FF0020287032BD4068C0F3090108
:10329000608DFF287047208D401E2085608D401E68
:1032A00060857047044604F134052878012870478A
:1032B00000202870686840F04000704700204FF000
:1032C00080730090FF22204600F0E5B900204FF007
:1032D00000730090628D2046D2B200F0DCB910215C
:1032E000C16100202870686840F0040070470168E0
:1032F0001140DFF8C023016021682020C8612068E8
:103300004168114041607047000001206870002052
:1033100028702046704710B500F134042178012947
:1033200001D1022010BD00F06AF811D5428D22B9FA
:103330001020C8610020207028E01022CA61616856
:1033400041F00401616000212170FFF7D0FE1DE013
:103350008A69120702D50820C86117E08A699206B7
:1033600007D50A686FF0FE0300F04FF8FFF7BBFEC9
:103370000CE08A69920709D5428D3AB1426A531C22
:10338000436212788A62418D491E418534E010B54E
:1033900000F134042178012901D1022010BD00F090
:1033A0002EF80AD51022CA6100212170616841F00F
:1033B00004016160FFF79BFE1EE08A69120702D5D7
:1033C0000820C86118E08A6952070BD5426A531C6D
:1033D0004362496A1170018D491E0185418D491E64
:1033E000418509E08A69920606D50A686FF0FC03F8
:1033F00000F00BF8FFF778FE0020207010BD0121CF
:10340000217001688A69D20670471A400A60016813
:103410004A6842F400424A6002682021D1610121D9
:103420006170002121707047F8B500F053F84FF03B
:103430008073F2B200F01DF800F042F818B1A06BF2
:10344000042813D107E0012E07D000F03DF820B189
:10345000A06B04280AD10120F2BD2068EDB23B46E2
:1034600000228021856200F029F800B10320F2BD1E
:10347000294620460FE1F8B500F02CF80023F2B2FF
:10348000FFF7F7FF00F01CF818B1A06B042813D168
:1034900007E0012E07D000F017F820B1A06B042838
:1034A0000AD10120F2BD2068EDB23B460022402146
:1034B000856200F003F800B10320F2BD204610E061
:1034C000069F2046394645E02168280A8862394629
:1034D00020463FE004464FF4005015461E4600903B
:1034E00070472DE9F04104460D4690461E4600F017
:1034F000B6FAB8F1000F07460CD100F022F81DD043
:1035000016F1010FF9D08EB100F0A9FAC01B864266
:10351000F3D20BE000F015F810D116F1010FF9D03D
:1035200026B100F09CFAC01B8642F3D204F13400AD
:103530000121417000210170032000E00020BDE85E
:10354000F0812068C5F3100180692840C0F31000A5
:103550008842704770B500F05DF8064620688069C3
:1035600080070ED400F025F808B1012070BD15F1D8
:10357000010FF3D025B100F072FA801B8542EDD225
:103580001AE0002070BD70B500F044F806462068CF
:10359000806980060BD400F00CF808B1012070BDE2
:1035A00025B100F05CFA801B8542F0D204E00020D7
:1035B00070BD2946204631E004F13400416841F0F5
:1035C000200141600121417000210170032070BD84
:1035D00070B500F01FF8064620688069400717D4D0
:1035E000FFF7E7FF58B920688169890609D52021CE
:1035F000304AC16100F048F8002100F03FF8012096
:1036000070BD25B100F02BFA801B8542E4D2D3E7D0
:10361000002070BD04460D4600F021BA70B5FFF7DA
:10362000F9FF064620688069C00621D520688169B7
:1036300089060BD415F1010FF8D025B100F00FFA6F
:10364000801B8542F2D204F13400BBE71021194AF5
:10365000C16100F00FF820688169C9075CBF0121D2
:10366000C16100F011F8042100F008F8012070BDDC
:10367000002070BD21682020C86170474160012191
:10368000417000210170704720684168114041601D
:1036900004F13400704730B50068074DC1F30901EB
:1036A00044682C40214341EA0241039A19431143E3
:1036B000416030BD00E800FE009800FC6F4800212A
:1036C0002DE9F0416E4C9AB02060002060604FF40C
:1036D000F076A0604FF48067E0604FF040482061D2
:1036E000012060614FF44875A0612D20E061152034
:1036F000206240F24D30606240F2F510A06240F26C
:103700005D30E0624FF4FE70206304F1340001800C
:103710008170204600F0B6F9002000210D900EA81F
:103720004160002200F01EF88DF8640019A8417075
:1037300081700DA90E95204600F059FA0020002155
:10374000009001A84160012200F00CF8ADF83000B3
:103750000CA8817069460195204600F048FA1AB01D
:10376000BDE8F081C160016141610521866087612A
:10377000C1610021C0F82080456286620020704748
:1037800000683E49884200D0704700B587B00020ED
:1037900005903C48016841F080610160006869461D
:1037A00000F0806005900598702000F032F83648EF
:1037B00000F0E4FA40F2F76000F02AF8334800F035
:1037C000DDFA4FF4806000F023F8314800F0D6FABB
:1037D0004FF60C7000F01CF82E4800F0CFFA4FF4B2
:1037E000E65000F015F82C4800F0C8FA002200213D
:1037F000582000F073FC582000F08DFC00220021BE
:10380000592000F06BFC592000F085FC07B000BD8A
:1038100069460090022001900290032003900E2040
:103820000490704780B500681449884224D1154837
:10383000016821F0806101607021134800F07AFB7B
:1038400040F2F761114800F075FB4FF480611048B9
:1038500000F070FB4FF60C710E4800F06BFB4FF45C
:10386000E6510D4800F066FB582000F05AFC592044
:10387000BDE8024000F055BC01BD000000680140F9
:10388000D0A1002044380240001002400020024035
:1038900000140240001C0240001802402078401C26
:1038A000207010BD2078810800EB5171C908B0EB81
:1038B000C100704710B5224CFFF7F4FF02D100F0B1
:1038C00024F88047EAE770477047704700201D4999
:1038D0001D4A02E000201D491D4A41F82020401CDD
:1038E0004028FADB704700201A491B4AF5E750F8D8
:1038F0002200521C52B2531102EB93639B11A2EBB4
:1039000083128A7000220A707047144991F90220CC
:1039100091F90100904201D10F48704708780028C2
:10392000FCD1012008700B48E1E710B5044603E024
:10393000FFF7EBFF8047641EE0B20028F8D110BD0E
:1039400051A9002000000020C73800080001002015
:10395000C938000800020020CB38000848A9002020
:1039600010B5264C26482060264860600020A060E4
:103970000120E060002020616061A061E0612062C0
:103980002046FFF7C7F820464FF48051BDE81040AD
:1039900000F003BC00681A49884200D0704700B5A7
:1039A00087B0302001901220029001200390022065
:1039B00004900420059001A9134800F0DFF90020CD
:1039C000002200901148016841F480010160006804
:1039D000002100F4800000900098212000F07EFB80
:1039E000212000F098FB00220021222000F076FB2D
:1039F000222000F090FB07B000BD0000B0A6002020
:103A0000005800405D195000001C02404038024040
:103A100080B51A48016841F400710160032000F08C
:103A200050FB002000F004F800F0EEFB002002BD87
:103A300010B5044600F083FE4FF47A71B0FBF1F04C
:103A400000F078FB002221464FF0FF3000F046FBEB
:103A5000002010BD0A480168491C016070470848F1
:103A60000068704711B581B0FFF7F9FF0446FFF712
:103A7000F6FF0199001B8842F9D313BD003C0240B8
:103A80003CA9002070B5040001D1012070BD04F1F3
:103A9000A005687818B928702046FFF771FE02204B
:103AA00068702068816921F07041816120688169B6
:103AB0006268A3681A43E3681A4323691A431143EF
:103AC00081612168DFF8AC028A6802408A6021685F
:103AD0008A68A669636946EA03431A438A602168D3
:103AE000CA680240CA602168CA68266AE36946EA71
:103AF00003431A43CA6021680A6902400A612168C7
:103B00000A69A66A636A46EA03431A430A6121689E
:103B10004A691040486120684169236BE26A43EAC0
:103B200002421143416104F13400236841788278F4
:103B3000DE6A06F07F46DE622368120442EA012153
:103B4000DE6A007808433043D8622068416B41F058
:103B5000040141632068416B41F002014163206828
:103B6000816941F001018161002068600120687075
:103B7000002070BD38B5044604F1A0052068816BB3
:103B800049070ED5816B49070BD50421C1636868CD
:103B900040F001006860002069702870204600F045
:103BA00024F82068816B89070FD5816B89070CD5B4
:103BB0000221C163686840F00200686004206870F8
:103BC00000202870204600F010F82068816BC9079B
:103BD0000AD5816BC90707D50121C163002069702F
:103BE0002870204600F002F831BD70477047F8B5E4
:103BF000044604F1A00738780D461646012801D185
:103C00000220F2BD01203422387002207870342066
:103C100070432044383000F0E1FD3246294620460A
:103C200000F02BF82168012048627870002038707D
:103C3000F2BD044604F1A00528780128704701462A
:103C4000204600F01AF821680120486268700020C0
:103C5000287032BD01202870022068703420504343
:103C600020443830704738B5FFF7E3FF01D1022018
:103C700032BDFFF7EFFF4162E1E770B500684B68C6
:103C8000C46800EBC212C4F30B44E31884325468D6
:103C900004F4704454600C68C568C5F30B452C19D6
:103CA000641C44EA03435360CB68C468C4F30A0449
:103CB000E318946804F4704494608C68C068C0F39E
:103CC0000A000019401C40EA034090601069C008D7
:103CD000C00010610869106101F1300043788478F8
:103CE0008D69966900269661007840EA0320224B90
:103CF00040EA044040EA056090615069000A000211
:103D0000506148695061D0691840D061C8690B6A38
:103D10001843D061906A9662486A9062086908B94F
:103D200004200EE0012808BF03200AD0042818BF91
:103D3000022803D0032818BF072801D1022000E081
:103D40000120D36A03F0E023D3628B6A4C680D68CC
:103D50004343641B6043C01C40EA0340D062106BC5
:103D6000C00AC0021063C86A1063106840F0010006
:103D7000106070BD00F800F0F8F8FFFF2DE9F84F73
:103D800002460023DFF8E882DFF8E892DFF8E8A2D5
:103D90004FF00F0B0C680120984000EA040E864596
:103DA00040F0C2804D689C00022D18BF122D0FD12B
:103DB000DD0802EB850C04F01C050BFA05F7DCF8B6
:103DC0002060BE430F6907FA05F53543CCF8205053
:103DD00016680F794FEA430C032505FA0CF5ED43FD
:103DE0002E4007F0030707FA0CF73E4316604E68B3
:103DF000012E18BF022E03D0112E18BF122E0FD184
:103E00009668CF682E4007FA0CF73E4396605668D6
:103E100026EA00004E68C6F300169E40304350600C
:103E2000D06828408D6805FA0CF52843D0604868B2
:103E3000C00079D5002004F00C060090DAF80000EC
:103E40000BFA06F440F48040CAF80000DAF80000EB
:103E500000F4804000900098980859F8205025EA16
:103E60000404864DAA4208BF00252CD0844DAA42E6
:103E700008BF012527D0834DAA4208BF022522D0C2
:103E8000814DAA4208BF03251DD0804DAA4208BF1C
:103E9000042518D07E4DAA4208BF052513D07D4DBC
:103EA000AA4208BF06250ED07B4DAA4208BF0725AF
:103EB00009D07A4DAA4208BF082504D0784DAA42FD
:103EC0000CBF09250A25B5402C4349F82040D8F8F5
:103ED00000406FEA0E0000EA040C4C68E40348BF9F
:103EE0004EEA0C0CC8F800C0D8F8044000EA040CF4
:103EF0004C68A40348BF4EEA0C0CC8F804C0D8F8BC
:103F0000084000EA040C4C68E40248BF4EEA0C0C7E
:103F1000C8F808C0D8F80C4020404C68A40248BF3C
:103F20004EEA0000C8F80C005B1C102BFFF432AF07
:103F3000BDE8F18F2DE9F04700224D4BDFF83481C9
:103F40004FF00F09012606FA02F707EA0106BE4202
:103F500073D103245500AC406FEA040C0468D50803
:103F60004FEA820E0EF01C0A09FA0AFA0CEA04045F
:103F7000046000EB8504256A25EA0A052562846849
:103F80003E4D0CEA04048460446824EA0707476055
:103F9000C7680CEA07070EF00C0CC760970858F8C2
:103FA000274009FA0CFEA8420EEA040408BF0025C7
:103FB0002CD0334DA84208BF012527D0314DA8424F
:103FC00008BF022522D0304DA84208BF03251DD0CE
:103FD0002E4DA84208BF042518D02D4DA84208BF79
:103FE000052513D02B4DA84208BF06250ED02A4D1B
:103FF000A84208BF072509D0284DA84208BF0825B8
:1040000004D0274DA8420CBF09250A2505FA0CF556
:10401000AC4212D158F82740F64324EA0E0448F87F
:1040200027401F6837401F605F6837405F609F68A8
:1040300037409F60DF683E40DE60521C102AFFF46C
:1040400081AFBDE8F0870069084018BF0120C0B209
:10405000704702B9090481617047124A136803422C
:1040600000D1704780B5106000F0E8FB01BD000092
:10407000003C014008380140443802400000024042
:104080000004024000080240000C02400010024000
:104090000014024000180240001C024000200240B0
:1040A00000240240143C01400901002806D5314A91
:1040B00000F00F00104400F8041C70472E4A115401
:1040C00070472E494FF6FF030A68000200F4E060D3
:1040D0001A4010432A4A10430860704738B5274BEE
:1040E0001B68C3F30223C3F10704052C28BF042473
:1040F0001D1D072D34BF0023DB1E012505FA04F426
:10410000641E2140994005FA03F35B1E1A401143D7
:10411000BDE83440C8E7012100F01F029140194A70
:1041200004E0012100F01F029140174A400942F8C3
:1041300020107047401EB0F1807F10B501D30120E0
:1041400010BD124C0F2160604FF0FF30FFF7ACFF45
:104150000020A06007202060002010BD0B4904282B
:1041600008680EBF40F004006FF0040210400860C1
:104170007047000018ED00E000E400E00CED00E006
:104180000000FA0500E100E080E100E010E000E05E
:1041900080B500F001F801BD704710B500F13402A0
:1041A0005378022B1CBF5378122B0BD05378222B41
:1041B0001CBF5378322B05D05378422B1CBF137889
:1041C000012B01D1022010BD00F012F824F480541C
:1041D0001C6003681C682143FFE7196000680168E0
:1041E00041F001010160012050700020107010BDED
:1041F000012313700223537003681C686408640071
:104200001C6003681C68704780B50320FFF759FFE6
:10421000002200216FF00B00FFF760FF0022002159
:104220006FF00A00FFF75AFF002200216FF009002B
:10423000FFF754FF002200216FF00300FFF74EFF4D
:10424000002200214FF0FF30BDE80840FFF746BFD5
:10425000F8B50446DFF834552078C0075CD5A86867
:1042600000F00C00042805D000F07CF90AD1686841
:10427000400207D5286880034ED5606800284BD1DE
:104280000120F2BD00F069F9286820F48020286040
:1042900000F063F9FFF7E3FB06462868800305D5C5
:1042A000FFF7DDFB801B6528F7D34CE100F055F9E3
:1042B0006068B0F5803F03D1286820F4802005E0D5
:1042C000B0F5A02F286806D140F480202860286827
:1042D00040F4803005E020F480202860286820F435
:1042E00080302860606858B1FFF7B9FB064628683F
:1042F000800311D4FFF7B3FB801B6528F7D322E1BD
:10430000FFF7ADFB06462868800305D5FFF7A7FB3E
:10431000801B6528F7D316E12078800717D5A86899
:1043200010F00C0F05D000F01DF926D1686840028E
:1043300023D42868800702D5E0680128A0D1286826
:104340006FF0F8010840216940EAC1002860207838
:10435000000743D560690028686F30D040F0010045
:104360006867FFF77CFB0646686F800736D4FFF767
:1043700076FB801B6528F7D3E5E0E0680028286815
:104380000ED040F001002860FFF769FB0646286860
:104390008007D4D4FFF763FB801B6528F7D3D2E0F6
:1043A000400840002860FFF75AFB0646286880074F
:1043B000CDD5FFF754FB801B6528F7D3C3E0400839
:1043C00040006867FFF74BFB0646686F800705D51E
:1043D000FFF745FB801B6528F7D3B4E02078400742
:1043E00069D50020DFF8A8730090286C40F0805059
:1043F0002864286C00F0805000900098386840F4E1
:1044000080703860FFF72BFB06463868C00505D47E
:10441000FFF725FB801B6528F7D394E0286F6FF02A
:10442000040141F28937400840002867286F00F0F6
:104430008EF82867FFF713FB0646286F800705D51F
:10444000FFF70DFB801BB842F7D37CE0286F4008D4
:1044500040002867A068012804D1286F6FF004018C
:10446000084004E00528286F06D140F004002867C2
:10447000286F40F0010003E06FF0040100F067F8DE
:104480002867A06858B1FFF7EAFA0646286F800748
:1044900011D4FFF7E4FA801BB842F7D353E0FFF7DB
:1044A000DEFA0646286F800705D5FFF7D8FA801B8D
:1044B000B842F7D347E0A069002846D0A96801F0C8
:1044C0000C0108293FF4DCAE0228286820F0807037
:1044D00028602DD1FFF7C3FA06462868800105D56C
:1044E000FFF7BDFA801B6528F7D32CE0206A616ACC
:1044F00040EA8110A16A891EC903090C40EA014003
:10450000E1690843E16A40EA016040F000506860F8
:10451000286840F080702860FFF7A1FA06462868F6
:10452000800112D4FFF79BFA801B6528F7D30AE0BD
:10453000FFF795FA06462868800106D5FFF78FFA3F
:10454000801B6528F7D30320F2BD0020F2BD084090
:104550002867286F400840007047286820F48030A2
:1045600028607047A86800F00C00082870472DE903
:10457000F8430446DFF81C522868894641F289381E
:10458000DFF8086200F00F0048453AD200F097F8D3
:1045900073D100F09EF872D56068012802D13168AD
:1045A000890303E00228316802D1890102D464E062
:1045B000890762D500F07CF80746606801280AD1B7
:1045C000B06800F00C00042859D0FFF748FAC01B6F
:1045D0004045F5D34CE0022809D1B068FFF7C3FF8E
:1045E0004DD0FFF73CFAC01B4045F6D340E0B06821
:1045F00010F00C0F43D0FFF732FAC01B4045F6D342
:1046000036E000F066F835D56068012802D13168DF
:10461000890303E00228316802D1890102D42CE029
:1046200089072AD500F044F80746606801280AD1B6
:10463000B06800F00C0004281CD0FFF710FAC01B73
:104640004045F5D314E0022809D1B068FFF78BFF8D
:1046500010D0FFF704FAC01B4045F6D308E0B0685D
:1046600010F00C0F06D0FFF7FAF9C01B4045F6D347
:1046700003201BE000F023F801D0012016E0207891
:10468000400705D5B068E16820F4E0500843B06009
:104690002078000706D5B068216920F4604040EA20
:1046A000C100B0600020FFF7C3F90020BDE8F2832D
:1046B000B168890840EA8100B060FFF7D0B9286886
:1046C000000949EA00102860286800F00F004845FA
:1046D00070472078800706D5B0686FF0F001084079
:1046E000A1680843B0602078C00770472748016878
:1046F00041F40021016070472848416801F00C0135
:10470000042902D0082902D017E025487047016823
:104710000268520201F03F014CBF214A214AB2FB1C
:10472000F1F102680068C2F388125143C0F30140FE
:10473000401C4000B1FBF0F070471A48704780B54C
:10474000FFF7DAFF144B0FF264021B681649C3F33C
:104750000313D25CD0400860086802BD80B5FFF743
:10476000EEFF00F00DF8C2F3822206E080B5FFF7FD
:10477000E6FF00F005F8C2F34232895CC84002BD92
:10478000054A0FF228011268704700000038024005
:1047900000700040003C02400838024004380240EB
:1047A00000127A000024F4007005002000000000D0
:1047B00001020304010203040607080962B38B0720
:1047C00008D0521E11F8013B00F8013B00F0248094
:1047D0008B07F6D1830740F0208000BF103A07D343
:1047E00030B4B1E83810103AA0E83810F9D230BC33
:1047F000530724BFB1E80810A0E8081044BF51F8DF
:10480000043B40F8043BD20724BF31F8022B20F8C8
:10481000022B44BF0B7803707047083A07D3B1E806
:104820000810083A40F8043B40F804CBF7D253078D
:10483000E4E70268531C03601170704740200A4986
:1048400008600A48016841F00101016001214FF44C
:10485000AF7000F00FB801200549087003480168E7
:1048600041F080010160704780E200E0143C0140AB
:104870004BA900202A4A42F25F239362D062D0689B
:1048800040F00100D060012050622648017021B93B
:104890004FF40050244908607047106840F0010050
:1048A0001060704738B521481E4D4168204C4908BA
:1048B00049004160016849084900016028780128E1
:1048C00004D028D3032823D012D324E0207810B1B9
:1048D0000121642010E00120207000F0D4F800F0E5
:1048E0003EF80020022120703220FFF7C3FF12E0C3
:1048F000207820B102213220BDE83440BAE70120FF
:10490000207000F02CF80020207000F0C7FC02E0BE
:104910000120084988716868401C686031BD00004A
:104920000020004028A9002004E100E00C20004005
:1049300050A900201C03002080B500F02CF940F69F
:104940001101884201D0002002BD00F067F801216A
:10495000012000F07DF800F0A9F8012002BD00BFA1
:1049600070B584B000F032F9402200F02BF92878BD
:10497000002848BF002043D400F08000401E804142
:10498000C00F28712879A0BB4D2000F03DF9913867
:1049900040F256314843C11200EB115029790013FF
:1049A000D0F5487648BF0026B6B271B94F2000F066
:1049B0002BF9A03840F223214843C11200EB1150DB
:1049C0000013D0F5F07048BF0020E9682A6980B272
:1049D000B14234BF711A891B824234BF821A121A43
:1049E0005118062924BFEE602861E868E88028692C
:1049F0002881012000F006F8002000F003F80120D3
:104A000004B070BD00952870022002900120019032
:104A100001234B2282212046FEF7BFB93EB58C4CC4
:104A2000022020708B4D00F029F8009400F00BF864
:104A30001420FEF77AFF00200094207000F01DF88B
:104A400000F001F837BD032282212846FEF7A5B900
:104A5000FEB500F0CEF8042200F0B4F82878002863
:104A600001D50120FEBD002F009514BFB043304397
:104A700000F002F80422B2E0287002200290012027
:104A800001900123704700B585B001208DF80C001E
:104A9000022002900120019003A8009001230B2224
:104AA00082216C48FEF779F905B000BD3EB50121C1
:104AB0000220FFF7CDFF0220654D029001200190FA
:104AC00005F11400634C00900123202200F08DF8C2
:104AD00000F05BF805F11E000090092200F085F857
:104AE00000F053F805F11F0000900A2200F07DF855
:104AF0001420FEF71AFF00F048F805F115000090A9
:104B0000212200F072F800F040F805F11600009044
:104B1000412200F06AF800F038F805F11700009023
:104B20004A2200F062F800F030F805F1180000F0B9
:104B30005AF800F02AF805F1190000F054F800F0D6
:104B400024F805F11A000090562200F04EF800F00B
:104B50001CF805F11B000090582200F046F800F008
:104B600014F805F11C000090402200F03EF800F01F
:104B70000CF805F11D0000900B2200F036F8012022
:104B800028710020E880288137BD0220012302908F
:104B900001200190704770B584B000F017F8002232
:104BA00000F010F802202E78FFF768FF0095012230
:104BB00000F008F82878002E04B04CBF002040EA2E
:104BC000062070BD82212046FEF749B902200290DE
:104BD0000120204C1E4D019001230095704700F0EC
:104BE00004F80020FEBD00904B2282212046FEF7F3
:104BF000D4B806460220029001200F46144D154CF1
:104C00000190009501237047FEB5044602200290F2
:104C10000120104D0E4E019001230096A2B2822178
:104C20002846FEF71CF90220621C02900120019028
:104C300037780096012392B282212846FEF70FF9B9
:104C40003078002F4CBF002040EA0720FEBD000056
:104C500050050020B0A60020F0B587B0DFF8A848C6
:104C60000020DFF8A858207000F012FD00F062FA72
:104C70000FF6C4000290F02001908C2000F037FA6B
:104C8000A0614FF4D07026180021304600F002FFDA
:104C900000F050FAF02001904FF4C8700090072304
:104CA000029600F026FAE0614FF0404000F0ABFAC7
:104CB00000F040FA4FF4CA702044072302900A2003
:104CC00001902820009000F014FA20620020069045
:104CD00001200490032003904FF4C47000F0D7F932
:104CE0000A2001904FF42F7000F0FAF9DFF82058F5
:104CF00000F0E2FC606200F025FA4FF4AC7000F0C6
:104D0000C6F9642000F00CFAA06200F01BFA4FF420
:104D1000B07000F0BCF99B2000F002FA206300F0B4
:104D200011FA4FF4B47000F0B6F9822000F0D8F90F
:104D3000DFF8E06700F0C0FCA06300F003FA4FF476
:104D4000C07000F0A8F940F2EE2000F0D0F9206425
:104D500000F0F8F94FF4B87000F099F9E8200190EC
:104D600040F29F1000F0C3F9A06400F0EBF94FF49B
:104D7000BC7000F08CF9AA2001904FF4107000F084
:104D8000AFF9DFF8945700F097FC206500F089F93F
:104D90000420019006F6481000F0BBF9286000F0EE
:104DA00080F96720019006F6E80000F0B2F968602B
:104DB00000F077F9CA2001904FF49F6000F09FF94E
:104DC000A86000F06EF940F22D10019006F2045038
:104DD00000F09FF9E86000F064F94FF4C8700190AA
:104DE0004FF4A26000F08BF9286100F05AF940F20C
:104DF000F31001904FF4136000F081F9686100F046
:104E000050F940F25620019006F21C5000F081F952
:104E1000A86100F046F940F2B92001904FF4A56076
:104E200000F06DF9E861002002907E20019006F606
:104E3000340000F06EF9286200200290CB2001902F
:104E40004FF4046000F05BF96862002002904FF4B8
:104E50008C70019006F64C0000F05BF9A86200200F
:104E6000029040F26510019006F6C40000F051F97E
:104E7000E862002002904FF4D97001904FF40D6069
:104E800000F03DF928630020029040F2FF100190ED
:104E900006F6DC0000F03DF96863002002904FF454
:104EA0001370019006F67C0000F005F940F24517FA
:104EB00000F002FCA863592002902E20019006F118
:104EC000780000F026F9E863902002902E200190EF
:104ED0004FF49C7000F013F92864C72002902E2034
:104EE000019006F1B40000F014F968644FF4A0706A
:104EF0000290242001904FF4967000F000F9A8640D
:104F00004FF4A0700290562001904FF48A7000F088
:104F1000F6F8E864E62001904FF40A7000F0F7F824
:104F200028654FF48A7001904FF4197000F0EFF883
:104F300068654FF49E7001904FF4287030440297DA
:104F400000F0B9F806F2345700F0B6FBA8654FF44C
:104F5000A070029040F26710019003230097012295
:104F60000021092000F0A8FBE8654FF4A07000972D
:104F700002904FF4C8700190032301220021092000
:104F800040F20B1700F098FB28664FF4A2700290D5
:104F90004FF4DC7001904FF4377000F0B0F86866A1
:104FA0004FF4A27002904FF4ED7001904FF44070F6
:104FB00000F0A5F8A8664FF4A270029040F2162007
:104FC00001904FF4497000F09AF8E8664FF49D7034
:104FD00001904FF4527000F09AF828674FF4B970BE
:104FE000019006F1480000F073F8686740F2AF10D6
:104FF000019006F1840000F06BF8A867872002900A
:105000004FF42E70019006F6B800009003230122A1
:1050100000210920DFF8046500F04EFBE8674FF43B
:105020007A6003900FF270500290042001900FF20A
:10503000285000F03AF8DFF8E85400F03DFB286013
:105040004DF2FC0003900FF25450029004200190A6
:105050000FF2145000F029F800F02EFB68600020D9
:1050600002900FF23C5001900FF20C5000F029F822
:10507000A860002002900FF22C5001900FF208500F
:1050800000F01FF8E8600120A07407B0F0BD2044D4
:10509000059502907047204405950290D22001901A
:1050A00070474FF4C57002907047009004230222AD
:1050B000314612207047009003230022002109206E
:1050C00070470090032302223146142000F0F4BA06
:1050D00000900323029700220021092000F0ECBA7F
:1050E0000090072303224FF0FF310B207047009000
:1050F000072303224FF0FF310B2000F0DDBA3044CC
:105100000323009000220021092000F0D5BA30448A
:1051100002970090032300220021092000F0CCBA5E
:10512000019082200090072303224FF0FF310B20D3
:1051300000F0C2BA002005950690012004900320DB
:1051400003907047002006900120049002200390F5
:1051500070470000F8B5DFF8CC53DFF8AC4328788F
:10516000DFF8C46300281AD030780028FCD1012071
:1051700030704FF408702718384600F0E3FC002028
:10518000394630704FF4C470204400F029FD4FF4CC
:10519000CA703946204400F046FD0020287060782F
:1051A00010B394F903001C280ED1607C30B90120A3
:1051B00001216074042000F0E8FD05E000210420D6
:1051C00000F0E3FD002060742078032807D8DFE8B2
:1051D00000F0040204040020207194F903004FF051
:1051E000FF30E0700020607094F9060050B1CF48A5
:1051F000007828B1CE480078C00758BF00F08EF87C
:105200000020A071F1BD70B50446C24D00204FF4DE
:105210008F72A5F8100E04F58000002100F5EE1045
:1052200000F008F905F28E7604F580017388328863
:10523000D5F8940701F5CA2101F0A7FA73883288DE
:10524000D5F89407214601F0A0FA7388328804F556
:105250008011D5F8940701F5EE21BDE8704001F00A
:1052600094BAB348A8490068C20708D50122C0F320
:1052700085004A70887091F90400087870470878B2
:10528000012804D009D3032804D002D37047487101
:1052900002E00220487101208871704738B5A34AA6
:1052A000994C50889188127862BB4FF0FF32E270BF
:1052B000002223782378012B18BF237823780FF25C
:1052C000E82303EBC203B3F900508542BCBFB3F936
:1052D0000450A84207DAB3F902508D42BEBFB3F9B9
:1052E00006309942E2701C2A1FBF637C002B6423A6
:1052F000E370521C1D2ADCD38E480021016032214C
:10530000416003E00321C820FFF7B4FA94F90300D9
:1053100010F1010F1CBF0120607031BD7A4890F977
:105320000510002141717047B0B5774CA07CE58A2B
:1053300000283BD00A20B5F5167F00FB05F71BDDE2
:10534000C5F5966080B200F053F8A5F5167000F030
:105350002FF8C5F59660062190FBF1F080B200F0C1
:105360005AF842F6E060C01B4B2190FBF1F0283068
:1053700080B200F057F813E0284600F039F8062014
:1053800095FBF0F080B200F046F84B2097FBF0F070
:10539000283080B200F046F8C5F5167000F008F825
:1053A0006D1CADB2B5F5966F08BF0025E582B0BDA6
:1053B0004000032190FBF1F080B222E05248817C52
:1053C000A9B1C17C544A81F00101C174136A1971F9
:1053D000536A1971936A1971D36A1971136B197130
:1053E000536B1971926B1171017D491C01757047E6
:1053F0004FF4947148434A49096800F57A6048615E
:1054000070474FF4C1714DF2FC0201FB002044498A
:105410004968486170474FF4E161484340498968F1
:1054200008617047283840F6CA0148433C49C968BA
:10543000086170472DE9F84304460F469046012065
:1054400001F09CFA00285BD10C26DFF8C8902E4DA5
:105450004BE064200A2297FBF0F000F13001297242
:105460000A2197FBF1F102FB10103030687202FB49
:10547000117021463030A87205F1080000F012FCCE
:105480000090B9F8100E704329F80070B9F8100EAA
:10549000BDF800107F1C704348444180B9F8101ECD
:1054A000BDF80200714349448880B9F8101E714369
:1054B00049448C60BDF80010484300EB40000419DB
:1054C000287C60B14FF4D070B9B2281800F0E2FA2D
:1054D000FFF740FE00F0F7F900202874A871B9F832
:1054E000100EBFB2401CA9F8100E08F1010087424F
:1054F000AFDBA96900208871E969887101F03EFA83
:105500002046BDE8F28300001C03002000030020B9
:105510004405002000880020DC9900200000FFFFE7
:1055200040A800204BA9002050A9002054050020CD
:105530001803002020A90020C7E0E3F0F3E7EAE029
:1055400020E8E7EEE1F0E0E6E5EDE8E920E220EF33
:10555000E0ECFFF2FC3A0000E30037016B013D0193
:10556000630137016B0130019B01C600DD01CA00F8
:10557000D801C600DD01C20096027B00C00278009F
:10558000C0027E000000000096023701C002340114
:10559000C0023A01000000008F012F010802C8007C
:1055A000C6027B00C602370184038403840384039C
:1055B00084038403840384038403840384038403B3
:1055C00084038403840384038403840384038403A3
:1055D0008403840384038403840384038403840393
:1055E0008403840384038403840384038403840383
:1055F0008403840384038403840384038403840373
:105600008403840384038403840384038403840362
:105610008403840384038403840384038403840352
:105620008403840384038403840384038403840342
:105630008403840384038403840384038403840332
:105640008403840384038403840384038403840322
:105650008403840384038403840384038403840312
:105660008403840384038403840384038403840302
:1056700084038403840384038403840384038403F2
:105680008403840384038403B2029F011003F201A4
:1056900010B5002428219A486143084400218171F3
:1056A000641C4171016001712021083001F0EAF9A8
:1056B000B4F5967FEEDB10BDF0B5924D002405AE3B
:1056C000AC7100274FF0280C8D4C0CFB07FC644498
:1056D00094F806C0BCF1000F05D07F1CB7F5967F8B
:1056E000F0DB2846F0BD01256071A5710020216026
:1056F000227105E004EB800256F8041B401C916007
:105700009842F7D32046F0BD70B57F4C012082B09F
:10571000606028257A4E0020206020686268684317
:10572000304490F9041091421BD18179002918D09E
:10573000006800F089FF00F0A8F84179491E13299C
:105740000FD8DFE801F00A8A0F8A8A292E333F6DCD
:10575000144B51573A454D5E6D7100F09AF800F0C8
:105760004EFC7AE000F09EF800F0C5FF75E0C369DA
:105770000268016A002000F05DFF00F086F8816990
:10578000C9B2009102694369C1688068DBB289B21D
:1057900080B200F0DDFB60E000F084F800F0ABFCCC
:1057A0005BE000F07FF800F017FD56E04369026906
:1057B000C168806800F0C2FF4FE000F06AF800F0B6
:1057C00073FC4AE00269C168806800F0CBFF44E0E6
:1057D0000269C168806800F0FFFF3EE0002200E03F
:1057E000012200F04DF838E0C168806889B200F00D
:1057F00045FD32E000F03FF800F05BF82068002241
:1058000005E000F038F800F054F820680122684301
:10581000304400F035F800F038F8C168C9B219E03A
:10582000806801F09EF818E08068032100F0FFF81E
:1058300020680321684330440369C268806800F02F
:10584000C7F800F022F8806801F08BF82068032187
:1058500068433044806800F0FBF82068401CB0F5D5
:10586000967F2060FFF659AF6068401C0828606092
:10587000FFF651AF73BDC1688068C9B200F0D7B8F8
:10588000C168806889B200F03ABD2068684330443E
:10589000704743690269C16880689BB292B289B25D
:1058A00080B270470269C168806892B289B280B2E2
:1058B000704720686843304443690269C168806862
:1058C000C9B200F085B810B5104C114811490860F4
:1058D000FFF71AFF21781048002907BF00224FF078
:1058E000404100220D49FEF7BEF92078401C20708F
:1058F000207800EBD0714908A0EB4100207010BD6A
:10590000F048002018A8002018A90020E006002078
:105910000033004488380240D0A10020007017C036
:1059200013B5554C2DED088BB0EE408A01F0AEF862
:1059300084ED000AB0EE480A01F0E8F8BDF9200055
:10594000B0EE409AD4ED00AA9FED4F8B00EE100A06
:10595000BDF92200B8EEC00A00EE900ABDF924009D
:10596000F8EEE09A00EE900ABDF92600F8EEE00AA3
:1059700030EE60BA4BEE2A0A01EE100AB8EEC1AA68
:105980003AEE690A40EE090A10EE900A01F006F9B3
:1059900053EC182B01F02AF901F09CF9B0EE4A0AF9
:1059A000ADF820000BEE090A79EECA0A00EEAA0A49
:1059B00010EE100A01F0F2F853EC182B01F016F972
:1059C00001F088F9ADF822000898BDEC088B16BDEF
:1059D000F8B500EE103A04462DED028BB8EE400A01
:1059E00082B00D46164610EE100A002701F0D6F8D8
:1059F000224A234B01F09AF901F06AFA08EE100AE4
:105A00000CE03068B0EE480A019054F82700019984
:105A10000090FFF785FF44F827007F1CAF42F0DBC2
:105A20000120184902B00870BDEC028BF1BD1829A5
:105A300000DB704710B5134A127842B9144B04E0EA
:105A400050F8224043F82240521C8A42F8DB10BD35
:105A5000182900DB704730B50A4A13785BB1002380
:105A60000B4C04E054F8235040F823505B1C8B424D
:105A7000F8DB0020107030BD30A90020A596F31788
:105A8000154DF23E4DA90020000000000000E03F4F
:105A900098A4002030B542F21074024691FBF4F451
:105AA0000123A4B20CB100F03DF842F2107505FBE1
:105AB00014114FF47A7400F030F814B100F032F899
:105AC00004E01D0004BF302502F8015B4FF47A7535
:105AD00005FB1411642400F020F814B100F022F842
