:020000040800F2
:10000000B824002079CC0108D5CC0108D9CC01084E
:10001000B9C80108DDCC0108E1CC010800000000EE
:10002000000000000000000000000000E5CC010816
:10003000E9CC010800000000EDCC0108BBC80108B4
:10004000F1CC0108F5CC0108F9CC0108FDCC010880
:1000500001CD010805CD0108C7C8010809CD010877
:100060000DCD010811CD010815CD010819CD0108EC
:100070001DCD010821CD010809C10108F9C0010801
:1000800025CD010829CD01082DCD0108D1C80108D1
:10009000DBC80108E5C8010831CD010837C50008F3
:1000A00035CD010839CD0108EFC801083DCD010863
:1000B00041CD010845CD010849CD01084DCD0108CC
:1000C00051CD0108FDC8010807C9010855CD010837
:1000D00059CD01085DCD010861CD010865CD01084C
:1000E00069CD01086DCD010871CD010875CD0108FC
:1000F00011C901081FC9010879CD01087DCD01088A
:100100002DC9010881CD010885CD010889CD0108DF
:100110008DCD010891CD010895CD010899CD01083B
:100120009DCD0108A1CD0108A5CD0108A9CD0108EB
:10013000ADCD0108B1CD0108B5CD0108B9CD01089B
:10014000BDCD0108C1CD0108C5CD01083DC90108DB
:10015000C9CD0108CDCD0108D1CD010847C901089D
:10016000D5CD0108D9CD0108DDCD0108E1CD0108CB
:10017000E5CD0108E9CD0108EDCD01080000000042
:10018000F1CD0108F5CD0108F9CD0108FDCD01083B
:1001900001CE010805CE010809CE01080DCE0108E7
:1001A00051C901085BC9010865C9010811CE0108E0
:1001B00015CE010819CE01081DCE010821CE010877
:1001C00025CE010829CE0108000000000000000033
:1001D000000000000000000000000000000000001F
:1001E0000011880000000000000000000000000076
:1001F00000000000000000000000000000000000FF
:1002000000000000000000000000000000000000EE
:100210000000000066666666000000000000000046
:1002200000000000000000000000000000000000CE
:100230000000000060000000660000006600000092
:1002400066000000660000006666666666000000E4
:100250006600000066000000660000000600000066
:1002600000000000000000006000000066000000C8
:1002700066000000660000006600000066000000E6
:1002800066000000660000006600000066000000D6
:1002900006000000000000000000000060606060D8
:1002A00066666666666666666666666666666666EE
:1002B00066666666666666666666666666666666DE
:1002C000666666660606060600000000000000007E
:1002D00060600000666600006666000066660000FA
:1002E0006666000066666666666600006666000012
:1002F000666600006666000006060000000000005A
:100300000000000060606000666666006666660069
:1003100066666600666666006666666666666600AF
:100320006666660066666600666666000606060025
:1003300000000000000000000000000000000000BD
:1003400000000000000000000000000000000000AD
:10035000000000000000000000000000000000009D
:10036000000000000000000000000000000000008D
:10037000000000000000000000000000000000007D
:10038000000000000000000000000000000000006D
:10039000000000000000000000000000000000005D
:1003A000000000000000000000000000000000004D
:1003B000000000000000000000000000000000003D
:1003C000000000000000000000000000000000002D
:1003D000000000000000000000000000000000001D
:1003E000000000000000000000000000000000000D
:1003F00000000000000000000000000000000000FD
:1004000000000000000000000000000000000000EC
:1004100000000000000000000000000000000000DC
:1004200000000000000000000000000000000000CC
:1004300000000000000000000000000000000000BC
:1004400000000000000000000000000000000000AC
:10045000000000000000000000000000000000009C
:10046000000000000000000000000000000000008C
:10047000000000000000000000000000000000007C
:10048000000000000000000000000000000000006C
:10049000000000000000000000000000000000005C
:1004A00000000070000071CF0010CE000033080083
:1004B0000067000000CE000000CC000000EC00004F
:1004C00000760000003380000001EC00000017FC03
:1004D00000000007E0000000FFE80000FFFF8000D0
:1004E000FFFFCC00FFFFEE00FFFFFF00FFFFFF005C
:1004F000FFFFFF00FFFFEE00FFFFCC00FFFF080043
:10050000FF8E00000E00000000000010001000111F
:100510000013C8F300007F0C0000C60000108C0020
:1005200000FF88000001C80000006C000000F7C058
:1005300000318C3F0001001100000001800000002C
:1005400088008000FC318C0003EF000000360000C2
:10055000001380000011FF0000310800006300005C
:1005600030FE0000CF13C80088000800080000001B
:100570000000000000000060000010EE0000736E3C
:100580000010CE6677FF08666666006677FF8066B5
:100590000001EC66000037E6000001EE00000006F6
:1005A00000000000000000000000C00000007E000D
:1005B00000763380303391883391998811999988E6
:1005C0003319998803331988006733080000E7005E
:1005D00000000C00000000000000000000000060AF
:1005E000000010EE1380733D006CCEC677DBB16A5D
:1005F0006666EE6677BD1BA600C6EC6C310837D385
:10060000000001EE000000060000000000000000F5
:1006100000000000000000000000000000000000DA
:1006200000000000000000000000000000000000CA
:1006300000000000000000000000000000000000BA
:1006400000000000000000000000000000000000AA
:10065000000000000000000000000000000000009A
:10066000000000000000000000000000000000008A
:10067000000000000000000000000000000000007A
:10068000000000000000000000000000000000006A
:10069000000000000000000000000000000000005A
:1006A000000000000000000000000000000000004A
:1006B000000000000000000000000000000000003A
:1006C000000000000000000000000000000000002A
:1006D000000000000000000000000000000000001A
:1006E000000000000000000000000000000000000A
:1006F00000000000000000000000000000000000FA
:1007000000000000000000000000000000000000E9
:1007100000000000000000000000000000000000D9
:1007200000000000000000000000000000000000C9
:1007300000000000000000000000000000000000B9
:100740000000000000000000000010880000738816
:100750000010FF880073FF8810FFFF8813FFFF88D9
:10076000007FFF880013FF8800007F880000138847
:1007700000000008000000000000000011800000E0
:1007800011EC000011FF800011FFEC0011FFFF8051
:1007900011FFFF8C11FFEF0011FF8C0011EF000023
:1007A000118C0000010000000000000000000000AB
:1007B00000000000001080000031C8000073EC0051
:1007C00000F7FE0010FFFF8031FFFFC873FFFFEC52
:1007D00077FFFFEE000000000000000000000000B6
:1007E00000000000000000000000000077FFFFEEA6
:1007F00037FFFFCE13FFFF8C01FFFF08007FEF00E4
:100800000037CE0000138C0000010800000000003B
:1008100000000000000000000000000000000000D8
:1008200000000000000000000000000000000000C8
:1008300000000000000000000000000000000000B8
:1008400000000000000000000000000000000000A8
:100850000000000000000000000000000000000098
:100860000000000000000000000000000000000088
:1008700000000000000000000000000000108000E8
:100880000011880000118800001188000011880004
:10089000001188000011880000010800001080008D
:1008A0000033CC0000010800000000000000000040
:1008B00000E0700000EE770000EE330000EE330041
:1008C0000000000000000000000000000000000028
:1008D0000000000000000000000000000000000018
:1008E00000000000000000000066118800663188EA
:1008F00070F6F3E007CF3F0E00CC330000CC33009E
:1009000077FFFFEE00CC6700118C6600010806003F
:1009100000000000000000000000C6000070FC00A5
:1009200010CFCF883388CC0033D9880001FFC800AE
:100930000013FFC0003189CC003310CC32F3F38CAC
:10094000013F0E00006700000000000010E0007092
:10095000673F00CE6633318876E37300030CC60030
:1009600000118C00007330C000C6E76E118CCC778C
:1009700073007CE60600030C00000000000000008D
:100980000070C00010CF7E001188330011C86700CE
:1009900001FD8E0010FF00E0731BC8CE67007ECC07
:1009A0007700378833F8F7EC000F080F00000000DD
:1009B000000000000010C0000011CC0000118C00ED
:1009C000001188000000000000000000000000008E
:1009D0000000000000000000000000000000000017
:1009E0000000000000000000000072000000C600CF
:1009F00000318C00003308000067000000E60000B2
:100A000000EE000000EE000000660000007700002D
:100A1000003388000001EC0000007E0000E40000CC
:100A2000003700000013C8000000EC0000006E005A
:100A300000007700000077000000770000006700EA
:100A40000000EE000010CC000033080000E70000BA
:100A5000001080001011888001FDF9080033CC00DF
:100A600010DFBF80011188080001080000000000AD
:100A70000000000000000000000000000000000076
:100A80000000000000000000000000000000000066
:100A900000118800001188000011880077FFFFEE28
:100AA000001188000011880000118800000000007B
:100AB0000000000000000000000000000000000036
:100AC0000000000000000000000000000000000026
:100AD0000000000000000000003080000033CC0067
:100AE0000011CC0000318C0011EF0000000000006C
:100AF00000000000000000000000000000000000F6
:100B00000000000000FFFF000000000000000000E7
:100B100000000000000000000000000000000000D5
:100B200000000000000000000000000000000000C5
:100B300000000000000000000000000000000000B5
:100B40000031C8000033CC000001080000000000A4
:100B500000000000000010C00000318800003300D9
:100B6000000066000000CE0000118C0000318800FB
:100B70000073000000E6000000CC0000118C0000B3
:100B800033080000000000000000000000F3FE0039
:100B9000118C13C8330810CC730073EE77108EEEEF
:100BA00077E300EE338C00CE338811CC01FCF308E0
:100BB00000070E0000000000000000000000000020
:100BC0000071CC00319FCC000111CC000011CC0091
:100BD0000011CC000011CC000011CC000011CC00A1
:100BE00010F1FCC0010F0F0C00000000000000001D
:100BF0000000000010F7FC0013083788000013887D
:100C000000003188000073080010EF0000338C00F2
:100C100000E7000031FCF0C0030F0F0C00000000E3
:100C2000000000000000000010FFFC0001003788F9
:100C300000003188000073080077FE00000013C830
:100C4000000011CC0000118C30F0F708030F0C00ED
:100C50000000000000000000000000000000FF0095
:100C60000031BF000073330000E63300118C330005
:100C70003308330076F0F3E0070F3F0E0000330037
:100C80000000030000000000000000000000000061
:100C900011FFFF88118800001188000011880000F2
:100CA00011FFFE00000017C8000011CC0000318CBD
:100CB00010F0F708010F080000000000000000001D
:100CC000000000000030FF8800CF00001188000005
:100CD00033B8F00033CF1FC8330000EC338800EE88
:100CE000138810CC01FCF38800070E000000000000
:100CF000000000000000000033FFFFCC000010CC1B
:100D000000003188000073000000E6000010CC00F5
:100D1000003188000073080000E70000000E0000AA
:100D200000000000000000000000000000F7FE804E
:100D3000318C13CC338810CC11EC718C003FEE0059
:100D400010CF3FC8338801CC338800CC13FCF38C20
:100D500000070E000000000000000000000000007E
:100D600000F7FE00318C1388330011CC330000CC27
:100D700033C810CC017FEFCC000010CC00003188CC
:100D800010F0CF00010F0000000000000000000084
:100D90000000000000000000000000000010C00083
:100DA0000033CC0000010C00000000000000000037
:100DB0000010C0000033CC0000010C000000000057
:100DC0000000000000000000000000000000000023
:100DD0000010C0000033CC0000010C000000000037
:100DE00000000000001080000033CC000011CC0097
:100DF00000318C0000EF0000000000000000000047
:100E000000001000000073080031CE0000E7000071
:100E100031CC0000007E00000013EC0000003780A1
:100E200000000100000000000000000000000000C1
:100E300000000000000000000000000000000000B2
:100E400033FFFFCC0000000030F0F0C0030F0F0CA8
:100E50000000000000000000000000000000000092
:100E600000000000000000000080000001FC000005
:100E70000017C80000007E00000033CC0000E7002F
:100E800000718C0010CF000000080000000000007E
:100E90000000000000F00000000FFC0000003780A0
:100EA00000001388000033880033EF000033000097
:100EB00000030000003000000077880000030000FD
:100EC00000000000000000000010F00000E71FC854
:100ED000118C006E330000366631FF3366673333A2
:100EE000CCCE6733CCCC6623CCCCE666CC7F3F8CB3
:100EF000660000007600000013F8F100000000001A
:100F00000033CC0000636E000066760000CE370030
:100F100010CC33881188118833F8F1CC730F0FECA3
:100F20006700006E0E0000070000000000000000D7
:100F30000000000033FFFE80338813C8338811CCD3
:100F40003388318833FFFE80338813CC338800EE3A
:100F5000338810CC33F8F38C030F0E000000000030
:100F600000000000000000000071FFC810CE000467
:100F700033880000330000007700000037000000D5
:100F80003380000013C8000001FEF0C400030F0806
:100F900000000000000000000000000033FFFC0023
:100FA000330017C8330001EC330000EE330000EECD
:100FB000330000EE330000EE330011CC33F0F708BD
:100FC000030F080000000000000000000000000007
:100FD00011FFFF88118800001188000011880000AF
:100FE00011FFFF881188000011880000118800009F
:100FF00011F8F080010F0F08000000000000000051
:101000000000000011FFFF8811CC000011CC00008F
:1010100011CC000011FCF08011CF0F0811CC0000A2
:1010200011CC000011CC0000010C000000000000F9
:1010300000000000000000000071FFC810CE000496
:1010400033880000770000007700F0C077000FCCF5
:10105000370000CC33C800CC01FEF0CC00030F08F1
:10106000000000000000000000000000330000EE5F
:10107000330000EE330000EE330000EE33FFFFEEEE
:10108000330000EE330000EE330000EE330000EEDC
:101090000300000E0000000000000000000000003F
:1010A00011FFFFCC0011880000118800001188009A
:1010B00000118800001188000011880000118800CC
:1010C00010F1F8C0010F0F0C00000000000000003C
:1010D0000000000011FFFF88000033880000338803
:1010E0000000338800003388000033880000338814
:1010F0000000330011F0E700000F080000000000BE
:1011000000000000000000003388318C3388730831
:101110003388CE0033B9880033EF000033BF80003E
:101120003389EC0033887E00338813C80308010E2E
:1011300000000000000000000000000011CC0000D2
:1011400011CC000011CC000011CC000011CC00002B
:1011500011CC000011CC000011CC000011FCF0C03B
:10116000010F0F0C00000000000000000000000054
:10117000338811EE33CC31EE774C236667666666B2
:101180006632C46666138C66660108666600006691
:101190006600006606000006000000000000000077
:1011A0000000000033C800CC33EC00CC336600CC28
:1011B000333300CC331388CC3301CCCC33006ECC2A
:1011C000330036CC330033CC0300010C00000000A8
:1011D000000000000000000000F3FE80318C13CC02
:1011E000730000EE7700006E7700006677000066FF
:1011F000770000EE338010CC01FCF30800070E00EE
:1012000000000000000000000000000033FFFE802E
:10121000338813CC338800EE338800CE3388318C8A
:1012200033FFCF003388000033880000338800008C
:1012300003080000000000000000000000000000A3
:1012400000F3FE80318C13CC730800EE7700006E43
:101250007700006677000066770000EE338010CEDE
:1012600011FCF30800178E000011EC2000003FEF86
:101270000000000011FFFE80118813C8118811CCF6
:101280001188718811FFCF0011887E001188370006
:1012900011881388118801CC0108000E000000009D
:1012A000000000000000000000F3FF80318C000807
:1012B0003388000013E80000007FF80000003FC8FA
:1012C000000001CC000010CC32F0F38C010F0E00B6
:1012D00000000000000000000000000077FFFFEEAB
:1012E000001188000011880000118800001188009A
:1012F000001188000011880000118800001188008A
:1013000000010800000000000000000000000000D4
:10131000330000EE330000EE330000EE330000EE49
:10132000330000EE330000EE330000EE338010CCCB
:1013300011FCF38800070E00000000000000000010
:10134000000000006E000077770000E6338000CEDA
:10135000138811CC11CC318800EC3308006E770073
:101360000077E6000033CE0000030C000000000010
:1013700000000000000000006600006666000066D5
:1013800066000066761188667733CC6637236C6614
:10139000336666EE33C637CC33CC33CC0308010C4E
:1013A000000000000000000000000000378010CEA8
:1013B00013C8318C00EC77000077EE000033CC00CE
:1013C0000073EC0000EF770011CC3388730801EC58
:1013D0000F00000F000000000000000000000000EF
:1013E0007E0000E7378010CE11CC318C00EE730008
:1013F0000077E6000013CC0000118800001188007F
:10140000001188000001080000000000000000003A
:101410000000000033FFFFCC0000318800007300A3
:101420000000CE0000118C000033080000E6000030
:1014300010CC000031F8F0E0030F0F0E00000000A8
:10144000000000000077FF0000660000006600005A
:1014500000660000006600000066000000660000F4
:1014600000660000006600000066000000660000E4
:10147000006600000076F00070000000338000007D
:1014800011C8000000CC000000660000003700001A
:10149000001388000011C8000000EC000000760076
:1014A00000003300000013880000000011FFCC0092
:1014B0000000CC000000CC000000CC000000CC00FC
:1014C0000000CC000000CC000000CC000000CC00EC
:1014D0000000CC000000CC000000CC0010F0CC00DC
:1014E000000000000031C80000636E0000CC37002F
:1014F000118811C80300000C00000000000000006B
:1015000000000000000000000000000000000000DB
:1015100000000000000000000000000000000000CB
:1015200000000000000000000000000000000000BB
:1015300000000000000000000000000000000000AB
:1015400000000000F0F0F0F000000000017E00005C
:101550000003080000000000000000000000000080
:10156000000000000000000000000000000000007B
:10157000000000000000000000000000000000006B
:1015800000000000000000000070E000118F3F88A4
:10159000000011CC0070F1CC31CF1FCC338811CCBE
:1015A00013F8F7CC000F080C00000000000000004A
:1015B0003080000033880000338800003398F0004A
:1015C00033EB1FC8338C01CC338800EC338800CE5A
:1015D000338810CC33F8F308000F0C000000000033
:1015E00000000000000000000000000000000000FB
:1015F0000010F00000E70F88118C00003388000015
:101600003388000011C8000000FEF08800030F00BE
:101610000000000000000000000010C0000011CC1D
:10162000000011CC0030F1CC10CF1FCC338811CC8E
:10163000330011CC330011CC338031CC11FCC7CC3A
:10164000000F080C00000000000000000000000077
:1016500000000000000000000030E00010CF3F88D4
:10166000318801CC33F0F0CC330F0F0C33880000FD
:1016700001FCF0CC00030F0000000000000000009F
:10168000000070E00031CF0E00330800003300008E
:1016900070F3F0E0073F0F0E00330000003300004E
:1016A00000330000003300000003000000000000D1
:1016B000000000000000000000000000000000002A
:1016C0000070F0E010CF3F8E3388118813C8318846
:1016D00011FFEF003300000013F8F080318F0FECA2
:1016E000770000EE33F8F18C308000003388000082
:1016F000338800003398F00033EB3F88338C11CCF3
:10170000338811CC338811CC338811CC338811CC79
:101710000308010C00000000000000000010C000E1
:101720000033CC0000010C0010F0C000011FCC0001
:101730000011CC000011CC000011CC000011CC0035
:1017400010F1FCC0010F0F0C0000000000000000B1
:10175000000070000000FF000000070010F0F00023
:10176000010F3F0000003300000033000000330091
:101770000000330000003300000073000000770019
:1017800032F0CE00108000001188000011880000A7
:10179000118810E0118873081198CE0011FB080021
:1017A000119BC80011887E00118833C80108010E02
:1017B000000000000000000010F0C000011FCC007D
:1017C0000011CC000011CC000011CC000011CC00A5
:1017D0000011CC000011CC000011CC0010F1FCC0B5
:1017E000010F0F0C000000000000000000000000CE
:1017F0000000000000000000607010C0769FEBEC5D
:101800007719CC66771188667711886677118866B4
:10181000771188660701080600000000000000003C
:101820000000000000000000000000003090F00008
:1018300033EF3F88338C11CC338811CC338811CCF3
:10184000338811CC338811CC0308010C0000000050
:101850000000000000000000000000000000000088
:101860000070E00010CF3FC8330801CC730000EED9
:10187000770000EE338010CC11FCF30800070E0057
:101880000000000000000000000000000000000058
:10189000000000003090F00033EB1FC8338C01CC07
:1018A000338800EC338800CE338810CC33F8F3084B
:1018B000338F0C00338800003388000000000000E4
:1018C00000000000000000000030F0C010CF1FCC6E
:1018D000338811CC330011CC330011CC338031CCA0
:1018E00011FCD7CC000F19CC000011CC000011CC9A
:1018F0000000000000000000000000001080F080E8
:1019000011FB1FCC11CE00EE1188000011880000E1
:10191000118800001188000001080000000000008C
:1019200000000000000000000000000000000000B7
:101930000030F00010CF1F8811C8000001FEC00069
:1019400000037F80000011CC11F0F308000F0E009F
:101950000000000000000000000000000062000025
:101960000066000070F6F0C0076F0F0C0066000004
:101970000066000000660000007600000037F8C036
:1019800000010F0C0000000000000000000000003B
:101990000000000000000000308010C0338811CC2F
:1019A000338811CC338811CC338811CC338831CCB7
:1019B00011FCE7CC000F080C000000000000000044
:1019C000000000000000000000000000700000E0C7
:1019D000338010CC1388118C01CC330800EC7300D9
:1019E000007666000033CC0000030C00000000000D
:1019F00000000000000000000000000000000000E7
:101A00006000006066000066761188663733CCEEB1
:101A100033236CCC33E676CC33CC33CC010C030CC3
:101A200000000000000000000000000000000000B6
:101A300000000000708000E013CC318C007E770045
:101A40000037CE000073EC0000E63780318C13C8FD
:101A50000708000E00000000000000000000000069
:101A60000000000000000000700000E0338010CC97
:101A70001388118C01CC330800EE73000076E60069
:101A80000033CC0000338C000073080070CE0000DF
:101A900000000000000000000000000010F0F080D6
:101AA000010F3F88000067000010CC0000330800E1
:101AB00000E6000011FCF0C0030F0F0C0000000056
:101AC000000000000000F78800118C00003388003F
:101AD00000338800003388000073000033EE0000FC
:101AE000003780000033880000338800003388000E
:101AF000001388000011FC8000118800001188008C
:101B00000011880000118800001188000011880071
:101B10000011880000118800001188000011880061
:101B200000118800001188000011880011FE80005B
:101B30000013C8000011CC000011CC000011CC0033
:101B40000000EC00000077CC0000CE000000CC00CC
:101B50000000CC000000CC000011CC0010F3880085
:101B60000000000000000000000000000000000075
:101B70000000000031FE00606713C8E606007F8C9D
:101B80000000000000000000000000000000000055
:101B90000000000000000000000000000000000045
:101BA0000000000000000000000000000000000035
:101BB0000000000000000000000000000000000025
:101BC00000000000000000000000000000000030E5
:101BD0000000003300000033000000330000003339
:101BE00030F0F0F033FFFFFF33FFFFFF33FFFFFF65
:101BF00033FFFFFF030F0F0F00000000FFFFFFFF89
:101C0000CF0F3FFFCC0033FFCC0033FFCC0033FFBE
:101C1000CC0033FFFFCF0F3FFFCC0033FFCC0033AE
:101C2000FFCC0033FFCC0033FFFCF0F3FFFFFFFFDE
:101C3000FFFFFFFFCF3FCF0FCC33CC00CC33CC0026
:101C4000CC33CC00CC33CC00FFCF3FCFFFCC33CC58
:101C5000FFCC33CCFFCC33CCFFCC33CCFFFCF3FC3C
:101C6000FFFFFFFF00000000F0F0F0C0FFFFFFCC1F
:101C7000FFFFFFCCFFFFFFCCFFFFFFCCC000000049
:101C8000CC000000CC000000CC000000CC00000024
:101C90000C00000000000000FFFFFFFFCF0F3FFF20
:101CA000CC0033FFCC0033FFCC0033FFCC0033FF3C
:101CB000FFCF0F3FFFCC0033FFCC0033FFCC00330E
:101CC000FFCC0033FFFCF0F3FFFFFFFFFFFFFFFF40
:101CD0003FCF3FFF33CC33FF33CC33FF33CC33FF25
:101CE00033CC33FF0F3FCF3F0033CC330033CC3303
:101CF0000033CC330033CC33F0F3FCF3FFFFFFFFB2
:101D000000000000000000000000000000000000D3
:101D100000000000000000000000000000000000C3
:101D200000000000000000000000000000000000B3
:101D300000000000FFFFFFFFFFFFFFFFFFFFFFCFDF
:101D4000FFFFFF08FFFFCEC4FF0F39CCFF3333CCBA
:101D5000FF0033CCFFFFC9CCFFFFFE04FFFFFFC82D
:101D6000FFFFFFFFFFFFFFFFFFFFFFFFFFFFFFFF83
:101D7000FFFFFFCFFFFFFF08FFFFCEC4FF0F39CCEF
:101D8000FF3333CCFF0033CCFFFFC9CCFFFFFE0491
:101D9000FFFFFFC8FFFFFFFFFFFFFFFF0000000086
:101DA000000000000011C80000C07E00003E138843
:101DB000339199881199998811999988331999883B
:101DC00000E33188000CE70000118C0000000000E7
:101DD000FFFFFFFFFFFFFFFFFFEE37FFFF3F81FF2A
:101DE000FFC1EC77FFEE6677FFEE6677FFEE667772
:101DF000FFEE6677FF1CCE77FFF318FFFFEE73FF51
:101E0000FFFFFFFFFFFFFFFFFFFFFFFFFFEE37FFBB
:101E1000FFFF81FFFFFFEC77CC7FEE77EE77EE7769
:101E2000EE77EE77CCF7EE77FFFFCE77FFFF18FF68
:101E3000FFEE73FFFFFFFFFF0000000031FFFFFF19
:101E400077FFFFFF77FFFFFF37FFFFFF010F0F0E49
:101E50000000000000000000000000000000000082
:101E6000000000000000000000000000FFFFFFFF76
:101E7000CE00000098FFFFFE99FFFFFFC80F0F0E76
:101E8000FEF0F0F1FFFF8F1FFFFF887FFFFFBA1307
:101E9000FFFFFFC8FFFFFFFFFFFFFFFFFFFFFFFF89
:101EA000FFFFFFFFCE00000098AFAFBE99AFAFBFFE
:101EB000C80F0F0EFEF0F0F1FFFFFFFFFFFFFFFF67
:101EC000FFFFFFFFFFFFFFFFFFFFFFFFFFFFFFFF22
:101ED000FFFFFFFF0000000080000000CC000000BA
:101EE000CC00000008000000000000000010F0001E
:101EF0000073FFC800FFFFEE00FFFFEE007FFFCE84
:101F00000013FF0800000000FFFFFFFF7FFFFFFF3F
:101F1000330FFFFF33E055FFF7FF11FFFFFCF1FF29
:101F2000FFEF0FFFFF9CF037FF33FF993333FF992B
:101F3000FF93FF39FFEC00F7FFFFFFFFFFFFFFFFFD
:101F40007FFFFFFF33FFFFFF33FFFFFFF7FFFFFFC1
:101F5000FFFFFFFFFFEF0FFFFF9CF037FF33BF993D
:101F6000FF33B199FF93FF39FFEC00F7FFFFFFFF4D
:101F7000000010070010080000001023000800A255
:101F8000000000F1100AC3FF804000080053000069
:101F90000055008D1004780808C2800001FEF6800C
:101FA000000F0FB800002008000004600042000885
:101FB000000410010000007000FC03FF403FFEF031
:101FC0008001FFFF8888FF8849000F08003000006B
:101FD00000FEE800004F1F4F0000200800100460C2
:101FE000004200FE008C11DD008830461000353FB5
:101FF000420000078077000088BB00775B77F0F72E
:1020000000BB7FFF11F1DD7F0070F177000020F849
:102010000000FB9F0073EF1A00FBEF3200FFFF7E12
:1020200000953E40B3AC03777FDDB8F0774581057E
:10203000D6CC4700089C80001181CA800077FF77CA
:102040000F400000000048002208020025880080A0
:10205000F0400000FF8E43886100201000E12C005A
:102060000A00020000003250000094000071F608DF
:10207000E00F0E080028000030008000440420001B
:1020800040441000FD280000FFDE308890F9CF00AA
:10209000FFCF0211000010110000002900002000F5
:1020A0000010FE001F471E08002800003001C0007D
:1020B00077CC220076C411802FA80088AD7D000067
:1020C0000E0800240030EE11FDFFFD11FFFFED3D75
:1020D000FFFF6B00FFFF6F88FFFEF300F0A800001A
:1020E000CFFF0800E873CC00E9BBEF00E397FF885F
:1020F0005263BC009E8751FCF02611EE0A0013EEDD
:102100000000036E0000F70000108F88FFF7FF004B
:102110000000000000F7EE00110C3380000031CC0D
:102120000000138C000077800000C60000710800DA
:1021300010EE000033FCF0E0030F0F0E0000000073
:102140000000000000000000000012000008240849
:102150000000200000001008000002000000004005
:1021600000001104000021042000140802000400F3
:1021700000000000000000000000000021001080AE
:102180000200604800000244000094800088008043
:102190000000244400000026000003440000100852
:1021A000000000000000000000000000000000002F
:1021B00010FFFE0001081380000013880000730068
:1021C00000FFFC0000001788000000CC000030C8B1
:1021D00010F0E300010F0800000000000000000004
:1021E00000000000000008000020800000500000F7
:1021F00000200000214400000208000080000010C0
:1022000008000001000000000000000000000000C5
:102210000000000000000000001108880002C088D3
:1022200000D44C88100944880006448846884488B5
:1022300009000408000040800000448800000408F1
:102240000000000000000000000000000010F70087
:102250000011FF0000237F0000CE770030CC770014
:1022600071007700F7F0F7F00F0F7F0F0000770095
:102270000000070000000000000000000000000057
:1022800000000088004400000044000000440000FA
:10229000000002000000244400001144000020045B
:1022A0000000100800000000000000000000000016
:1022B00000000000220000CC2200000022000000EC
:1022C0002200000022000080000000400000336671
:1022D000000002442000080002000400000000008A
:1022E000000000000000000011FFFF8811CC00007A
:1022F00011CC000011CC000011FFFC800000338CD9
:10230000000000CC000011C830F0E700030F0C0003
:102310000000000000000000000000000000004479
:10232000000800000080000002881000004000400B
:102330000000002200880022020811000000028034
:102340000004020000000000000000000000000087
:10235000004100001020080022C400004648000090
:10236000440020644488110044801100264C00225F
:10237000120206040000020000000000000000003D
:10238000000000000071FFCC10E70000318C00005D
:102390003170E000338F3FC8338801CE330000CC6A
:1023A00031C801CE01FEF10C00030C00000000005A
:1023B0000000000000000000440000220000004077
:1023C00000000080000010080000A900001140007B
:1023D00000220000004408000091000000020000FC
:1023E00000000000000000000000000000000000ED
:1023F0000000210200004284000094000010B000A0
:10240000003062000060440000008000000800000E
:1024100001020000000000000000000000000000B9
:1024200077FFFFEE0000118C000033080000670802
:1024300000006F000001CE0000138C000037000088
:1024400000760000000C000000000000000000000A
:102450000000000000040080208412442288104004
:102460000014428400400000002040480280000226
:10247000048801200204028400080000000000001B
:102480000000000000000000100C01C002C6306413
:1024900066C801622204C080010011002100004CC6
:1024A0004604122040801002260600C400000100ED
:1024B00000000000000000000000000010F3FF809A
:1024C000118C01C8118001CC13F83308007FFF0084
:1024D00010EF7F88310811EE370011EE11FCF18802
:1024E000000F0E00000000000000000000000000CF
:1024F0001004020002842408040011040080102249
:1025000020480122000030020000104400004280F8
:1025100000000100000008000000000000000000B2
:1025200000000000000C008040C6004C40880324DE
:1025300044080100640020000280002000003106F1
:102540000000000420012100020000000000000043
:10255000000000000000000010F3FC00338C37C8BE
:10256000770800C8778011EE138031EE01FFDFCECF
:102570000000018C0000730830F0EE00030F08002B
:10258000000000000000000000001007001008001C
:1025900000001023000800A2000000F1100AC3FF91
:1025A00080400008005300000055008D100478089A
:1025B00008C2800001FEF680E00F0FB8000020087E
:1025C00000000460004200080004100300000070D6
:1025D00000FC03FF403FFEF08001FFFF8888FF887A
:1025E00049000F080030000000FEE800004F1F4FB8
:1025F0000000A0080031046000C2003A008C11D134
:10260000008830463100353F4A00000780770000DF
:1026100088BB00355B56707781BB7FFF11F1DD3FD2
:102620000070F177000020F80000FB9F0073EF1AA4
:1026300000FBEF3000FFFF7E00953E40B3AC037718
:102640007FDDB8F077458105D6CC4700089C800037
:102650001181CA80E077FF770F400000000048003A
:102660002208020025880080F0400000FF8E438889
:102670006100201000E12C000A000200000032502E
:10268000000094000071F608E00F0EF8002800002A
:10269000300080004404200040441000FD28000069
:1026A000FFDE308890F9CF00FFCF0211000010113B
:1026B00000000029000020000010FE001F471E0837
:1026C000002880003001E400664C220074C41188A8
:1026D0002FA80088AD7D00400E08002700206E1155
:1026E000F8FBDD11FFFFEDBDFFFF6B02FF7F6F8881
:1026F000FFFEF300F0A80000CFFF0800E873CC0055
:10270000E9BBEF00E397FF885263BC009E8751FC52
:10271000F02611EE0A0013EE0000036E0000F70031
:1027200000108F88FFF7FFF030B403000C00150095
:102730006A1E002D04D025781D70641C5B1CF6E712
:1027400030BC704710B403001400621E002C02D08D
:1027500019705B1CF8E710BC704770B403001C00D4
:102760000D0000201600721E002E06D020782E7854
:10277000801B6D1C641C0028F4D070BC704702786C
:10278000002A04D002788A4201D0401CF7E7007882
:10279000704730B4002423001A00022A25D2844C4A
:1027A0000C2505FB02F56459002C1AD0804C0C2531
:1027B00005FB02F564590568AC4214D17C4C0C252C
:1027C00005FB02F52C4464688568AC420BD1784C5B
:1027D0000C2505FB02F52C442489C588AC4202D1A6
:1027E00003E001242300521CD7E7022A08D1002B62
:1027F00001D1022901D1002000E01220C0B20EE078
:10280000002908D16A480C2101FB02F108444089E3
:10281000B0F5807F01D1102000E00020C0B230BCB4
:10282000704700210800022808D261490C2202FBEF
:1028300000F28958002901D0401CF4E7022801D198
:10284000002000E00120704730B4020000200300A7
:10285000022B1BD256480C2404FB03F400591468C5
:10286000A04211D152480C2404FB03F420444068D8
:102870009468A04208D14E480C2404FB03F4204481
:102880000089D488A04201D05B1CE1E7022B2BD148
:1028900000200300022B08D245480C2404FB03F45B
:1028A0000059002801D05B1CF4E7022B01D1002065
:1028B00039E010683E4C0C2505FB03F5605190682B
:1028C0003B4C0C2505FB03F52C446060D088384C4C
:1028D0000C2505FB03F52C4420810020344C0C25ED
:1028E00005FB03F52C446081002909D030480C24F5
:1028F00004FB03F420444089002801D0002012E0AA
:10290000002902D04FF4807006E029480C2404FB13
:1029100003F420444089401C254C0C2505FB03F59D
:102920002C446081581C30BC704730B40100491EF3
:10293000022922D21E4B0C2404FB01F423445B89A0
:102940001A0092B2B2F5807F01D100231A0092B230
:10295000002A00D0521E164B0C2404FB01F4234421
:102960005A8192B2002A05D10023114C0C2505FB97
:1029700001F563510023180001E002231800C0B2E2
:1029800030BC704710B40022110002290ED2084A50
:102990000C2303FB01F3D258824205D10022044BE1
:1029A0000C2404FB01F41A51491CEEE710BC7047DB
:1029B000488A0020F8B50400002741F20400205C9A
:1029C000002831D041F22C002058050001232A00B4
:1029D000210041F20100205C01F02AFE002802D013
:1029E0000120070020E0002041F2040160544FF470
:1029F00081502058281A41F218016158884213D298
:102A000041F20300205C0600022E0DD341F21800B3
:102A10002058451901232A00210041F20100205CC1
:102A200001F006FE761EEFE73800C0B2F2BD70B5C9
:102A300004000D00002641F22C002058854218D0D9
:102A40002000FFF7B7FF0600F6B2002E11D10123D8
:102A50002A00210041F20100205C01F0CDFD002898
:102A600004D05FF0FF3005000120060041F22C0089
:102A700025503000C0B270BD38B504002000FFF70B
:102A800099FF0500EDB2002D7AD14FF48050205C03
:102A900003286AD141F20500205C012865D141F28A
:102AA0000A00225A00212000FFF74CFE552084F82E
:102AB000FE01AA2084F8FF0152202070522060708D
:102AC0006120A0704120E070722084F8E40172203F
:102AD00084F8E501412084F8E601612084F8E701EB
:102AE00041F21000205884F8E80141F2100020580B
:102AF00080B2000A84F8E90141F210002058000C6D
:102B000084F8EA0141F210002058000E84F8EB012D
:102B100041F20C00205884F8EC0141F20C002058DE
:102B200080B2000A84F8ED0141F20C002058000C3C
:102B300084F8EE0141F20C002058000E84F8EF01F9
:102B400041F21C002058401C41F22C01605001232E
:102B500041F22C002258210041F20100205C01F0DA
:102B600067FD002041F2050160540022002141F27E
:102B70000100205C01F078FD002801D00120050053
:102B80002800C0B232BD0200891E41F21400105864
:102B9000801E814201D3002007E041F20200105C58
:102BA00041F22803D25800FB012070472DE9F84379
:102BB00004000D00022D04D341F214002058854278
:102BC00002D30120804699E05FF0FF3080464FF449
:102BD0008050205C012805D0C0F08E80032862D090
:102BE0003FD389E0A94619EB59094FF48150205889
:102BF00041F20A01615AB9FBF1F109182000FFF70F
:102C000016FF00287AD1484619F1010941F20A015C
:102C1000615AB0FBF1F201FB1200205C06004FF498
:102C20008150205841F20A01615AB9FBF1F10918AB
:102C30002000FFF7FCFE002860D141F20A00205A74
:102C4000B9FBF0F100FB1190205C56EA0026E80782
:102C500002D55FEA161803E05FEA06585FEA1858E3
:102C60004CE04FF48150205841F20A01615A02228F
:102C700091FBF2F1B5FBF1F109182000FFF7D7FE47
:102C800000283BD1680041F20A01615AB0FBF1F221
:102C900001FB1200204407007878397851EA0020BF
:102CA00080B280462AE04FF48150205841F20A0158
:102CB000615A042291FBF2F1B5FBF1F109182000F1
:102CC000FFF7B5FE002819D1A80041F20A01615AA8
:102CD000B0FBF1F201FB120020440700F878B9784C
:102CE000090451EA0060797850EA012039780843F4
:102CF00020F07040804601E0012080464046BDE85B
:102D0000F2832DE9F84304000D001600022D04D3D0
:102D100041F214002058854202D302208046C4E0CC
:102D20004FF48050205C012806D0C0F0BC800328FE
:102D300000F087805CD3B6E0A94619EB59094FF43F
:102D40008150205841F20A01615AB9FBF1F109188A
:102D50002000FFF76CFE80465FFA88F8B8F1000F9C
:102D600040F0A380484619F1010941F20A01615A75
:102D7000B0FBF1F201FB120020440700E80705D583
:102D8000387810F00F0050EA061000E0300038707C
:102D9000012041F2040160544FF48150205841F267
:102DA0000A01615AB9FBF1F109182000FFF73FFE53
:102DB00080465FFA88F8B8F1000F76D141F20A0038
:102DC000205AB9FBF0F100FB119020440700E807FE
:102DD00001D5300906E0387810F0F000310A11F022
:102DE0000F0108433870012041F2040160545CE097
:102DF0004FF48150205841F20A01615A022291FB9E
:102E0000F2F1B5FBF1F109182000FFF710FE804642
:102E10005FFA88F8B8F1000F47D1680041F20A0163
:102E2000615AB0FBF1F201FB1200204407003E7032
:102E3000300080B2000A7870012041F20401605431
:102E400033E04FF48150205841F20A01615A0422C4
:102E500091FBF2F1B5FBF1F109182000FFF7E7FD56
:102E600080465FFA88F8B8F1000F1ED1A80041F241
:102E70000A01615AB0FBF1F201FB12002044070085
:102E8000F878000610F0704006433E70300080B2C3
:102E9000000A7870300CB870300EF870012041F2E2
:102EA0000401605401E0022080464046C0B2BDE803
:102EB000F283F8B504000D00022D04D341F2140092
:102EC0002058854202D30220060038E00020060088
:102ED00041F214002058854231D229002000FFF72A
:102EE00065FE0700002F2AD0012F02D10220060024
:102EF00025E017F1010F02D1012006001FE000229A
:102F000029002000FFF7FDFE0600F6B2002E16D1C4
:102F100041F21000205810F1010F0ED041F21000C4
:102F20002058401C41F21001605041F20500205C25
:102F300050F0010041F2050160543D00C8E7300047
:102F4000C0B2F2BD2DE9F84304000D00002D0ED1F2
:102F500041F20C0020588046B8F1000F04D041F235
:102F600014002058804518D30120804615E0290020
:102F70002000FFF71BFE0600022E01D2012068E0B0
:102F800016F1010F01D1300063E041F21400205826
:102F9000864201D230005CE0A84647467F1C41F2E1
:102FA00014002058874205D302200700B84501D2FB
:102FB00000204EE039002000FFF7F8FD0600002E4B
:102FC0000CD17FF0704239002000FFF79AFE814655
:102FD0005FFA89F9B9F1000F13D10AE016F1010F78
:102FE00001D0012E01D1300033E04745D6D1002079
:102FF0002FE0002D05D03A0029002000FFF781FEC8
:1030000081465FFA89F9B9F1000F18D141F20C003D
:10301000275041F21000205810F1010F18D041F252
:1030200010002058401E41F21001605041F205008E
:10303000205C50F0010041F20501605408E05FFAA5
:1030400089F9B9F1010F02D15FF0FF3700E00127E4
:103050003800BDE8F283F0B40200506A001D05009C
:10306000106841F20A06805BB1FBF0F0166841F28D
:103070000207F65DB0FBF6F00300286804002D1D82
:10308000002C01D1002007E0A34202D22868C0181A
:1030900002E01B1B2D1DF0E7F0BC70472DE9F0414D
:1030A00004000D00E580A0680600012E05D0206810
:1030B00041F214014058864201D3022067E0002EFD
:1030C0000AD120684FF48051405C032804D1206865
:1030D00041F2240140580600002E0DD1206841F233
:1030E0000801405A854201D3022050E0206841F295
:1030F0002401405807002AE0206841F20A01405AA2
:10310000202190FBF1F0216841F20202895C4843E2
:103110008046454516D331002068FFF747FD06007D
:1031200016F1010F01D1012031E0022E05D32068F4
:1031300041F214014058864201D3022027E0B5EB4A
:103140000805E6E731002068FFF71DFD0700E6608F
:10315000002F01D102201AE0206841F20A01405AF2
:10316000202190FBF1F0B5FBF0F0C0192061206840
:1031700041F20A01405A202190FBF1F0B5FBF0F139
:1031800000FB115040012168084460610020BDE847
:10319000F0812DE9F04104000D00E088401C07009B
:1031A000380402D02069002801D10420AEE0206854
:1031B00041F20A01405A202190FBF1F0B7FBF0F1F7
:1031C00000FB1170002840F090802069401C2061B5
:1031D000E068002808D1206841F20801405A87427F
:1031E000C0F08380042091E0206841F20A01405A37
:1031F000202190FBF1F0B7FBF0F0216841F20202D0
:10320000895C491E084270D1E1682068FFF7CEFC56
:103210000600022E01D2022078E016F1010F01D142
:10322000012073E0206841F214014058864256D3D1
:10323000002D01D1042069E0E1682068FFF782FEDB
:103240000600002E01D1072060E0012E01D10220EE
:103250005CE016F1010F01D1012057E02068FFF773
:10326000A9FB002801D0012050E0206841F20A01AA
:10327000425A00212068FFF765FA31002068FFF705
:1032800082FC216841F22C02885000208046206890
:1032900041F20201405C804517D20120216841F2D1
:1032A000040288542068FFF785FB002801D0012024
:1032B0002CE0206841F22C014058401C216841F26A
:1032C0002C02885018F10108E1E7206841F22C0136
:1032D0004058B0EB0800216841F22C028850E660AB
:1032E00031002068FFF74FFC2061E780206841F241
:1032F0000A01405A202190FBF1F0B7FBF0F100FBEE
:10330000117040012168084460610020BDE8F0812F
:10331000F8B504000D0000212000FFF7BFFE0600F5
:10332000F6B2002E1FD10020070021692068FFF7A8
:103330007EFB0600F6B2002E15D160690078E52804
:1033400003D060690078002803D17F1CAF4202D10E
:1033500009E00020070001212000FFF71AFF060006
:10336000F6B2002EE1D0F6B2042E01D107200600FD
:103370003000C0B2F2BD10B40200CB7E8C7E54EAA5
:1033800003239BB218004FF48053D35C032B06D168
:103390004B7D0C7D54EA03239BB250EA034010BCE2
:1033A000704781760A0092B2120AC2760A0C027540
:1033B0000A0C92B2120A42757047F8B50400002157
:1033C0002000FFF76BFE0700FFB2002F02D038008D
:1033D000C0B225E021692068FFF729FB0700FFB292
:1033E000002F1BD16069060030780500EDB2002D7A
:1033F00002D10420070011E0F07A000706D40B2266
:10340000A1693000FFF7A9F9002807D000212000AA
:10341000FFF7BFFE0700FFB2002FDBD03800C0B2BD
:10342000F2BD38B5040001212000FFF771FF05004F
:10343000EDB2002D16D121692068FFF7F8FA0500DA
:10344000EDB2002D0ED1202200216069FFF77AF93C
:103450000B22A1696069FFF767F90120216841F239
:10346000040288542800C0B232BD2DE9F14F0C008F
:10347000206883469BF800002F2803D09BF80000AB
:103480005C2802D11BF1010BF4E70098806907006A
:103490000B2220213800FFF755F900200500EDB27E
:1034A000AA46D146082080461BF80900060019F1FB
:1034B0000109F6B2212E05DBF6B22F2E02D0F6B2AC
:1034C0005C2E06D10BEB09002060F6B2212E41DA0A
:1034D0003EE0F6B22E2E01D0C2450DD3B8F1080F52
:1034E00002D1F6B22E2E01D0062052E008208246EC
:1034F0000B208046AD00D7E7F6B2802E07DB55F0F3
:103500000305DFF81408F6B2304410F8806CF6B208
:103510003100DFF80808FFF732F9002801D0062053
:1035200037E0F6B2412E05DBF6B25B2E02DA55F03B
:10353000020508E0F6B2612E05DBF6B27B2E02DA58
:1035400055F00105203E07F80A601AF1010AABE7C1
:10355000042600E00026BAF1000F01D1062018E091
:103560003878E52801D105203870B8F1080F00D16E
:10357000AD00EDB215F00300012801D156F01006A0
:10358000EDB215F00C00042801D156F00806FE72C9
:103590000020BDE8F28FF2B50400009800782F28D3
:1035A00003D0009800785C2802D10098401C00905D
:1035B0000020A06000980078202807D20021200079
:1035C000FFF76CFD05000020606129E069462000DE
:1035D000FFF74BFF0500EDB2002D21D12000FFF7D2
:1035E000ECFE0500A069C07A0700EDB2002D07D0FF
:1035F000EDB2042D03D1780701D4052005000FE0BA
:1036000078070DD460690600F07AC00602D4052060
:10361000050005E031002068FFF7ADFEA060D5E7AA
:103620002800C0B2F2BD30B401005FF0FF300D6879
:10363000002D1ED00D682B001D78212D04D31D7880
:103640003A2D01D05B1CF7E71D783A2D0FD10D689C
:103650002A001578303D2C00521C0A2C06D29A42C2
:1036600004D1032C02D220005B1C0B6001E000257A
:10367000280030BC704738B504000D00002041F22E
:10368000040160545FF0FF3041F22C0160502900CA
:103690002000FFF7CCF9002801D003202DE094F89A
:1036A000FF0194F8FE1151EA002080B24AF655213C
:1036B000884201D0022020E094F8380094F83710B6
:1036C000090251EA004094F836100843DFF850161A
:1036D000884201D1002010E094F8540094F853106F
:1036E000090251EA004094F852100843DFF83016FE
:1036F000884201D1002000E0012032BD2DE9F34FC6
:1037000089B093460020099908600A98FFF78BFF5B
:1037100004900498002801D50B20A0E2DFF80406ED
:10372000049950F821008146B9F1000F01D10C2015
:1037300095E20998C0F800904FF4805019F8000005
:10374000002818D041F2010019F8000000F028FF0D
:103750008DF800009DF80000C0070CD45FFA8BFBC9
:10376000BBF1000F05D09DF80000400701D50A20ED
:1037700075E2002073E200204FF4805109F8010047
:10378000049841F2010109F8010041F2010019F821
:10379000000000F016FF8DF800009DF80000C00743
:1037A00001D503205BE25FFA8BFBBBF1000F05D074
:1037B0009DF80000400701D50A2050E241F20A00BE
:1037C00009EB0002022141F2010019F8000000F0AB
:1037D0004BFF00280DD141F20A0039F80000B0F586
:1037E000007F06DB41F20A0039F80000B0F5805F87
:1037F00001DD012033E20020060031004846FFF7DA
:103800003AFF0400E4B2012C3CD100208246BAF118
:10381000040F1BD25FEA0A1048444FF4DF710844DA
:103820000500287900280AD0E87AA97A090451EA23
:103830000060697A50EA0120297A084300E00020FC
:1038400005A941F82A001AF1010AE0E700208246A2
:10385000BAF1000F01D0BAF1010A05A850F82A0008
:103860000600002E04D031004846FFF704FF00E0B8
:1038700002200400E4B2002C04D01AF1010ABAF1CB
:10388000040FEAD3E4B2032C01D10120E7E1E4B252
:10389000002C01D00D20E2E199F80C0099F80B10F2
:1038A00051EA002041F20A0139F8011080B2884241
:1038B00001D00D20D3E199F8170099F8161051EABC
:1038C000002080B20700002F0ED199F8270099F848
:1038D0002610090451EA006099F8251050EA0120E9
:1038E00099F824100843070041F2180049F80070C5
:1038F00099F8100041F2030109F8010041F20300B8
:1039000019F80000012807D041F2030019F800005F
:10391000022801D00D20A2E141F2030019F80000B5
:10392000474399F80D0041F2020109F8010041F204
:10393000020019F8000000280AD041F2020019F82C
:10394000000041F2020119F80110491E084201D09D
:103950000D2084E199F8120099F8111051EA002025
:1039600041F2080129F8010041F2080039F800008D
:1039700041F20A0139F80110202291FBF2F190FB8B
:10398000F1F201FB1200002801D00D2067E199F847
:10399000140099F8131051EA002080B202900298A6
:1039A00000280ED199F8230099F82210090451EA51
:1039B000006099F8211050EA012099F8201008437E
:1039C000029099F80F0099F80E1051EA0020ADF816
:1039D0000200BDF80200002801D10D203FE1BDF832
:1039E000020017FA80F041F20A0139F80110202292
:1039F00091FBF2F141F2080239F8022092FBF1F159
:103A00000818039002980399884201D20D2026E1FC
:103A100002980399401A41F2020119F80110B0FB13
:103A2000F1F001900198002801D10D2017E101204B
:103A30000400019840F6F671884201D30220040088
:103A400001984FF6F671884201D3032004000198D3
:103A5000801C41F2140149F8010041F21C0049F8B0
:103A60000060BDF8020016FA80F04FF4815149F869
:103A700001000398801941F2280149F80100E4B2DD
:103A8000032C20D141F2080039F80000002801D0B1
:103A90000D20E4E099F82F0099F82E10090451EA5E
:103AA000006099F82D1050EA012099F82C10084375
:103AB00041F2240149F8010041F2140059F80000D4
:103AC0008000804628E041F2080039F80000002814
:103AD00001D10D20C3E04FF4815059F8000038188F
:103AE00041F2240149F80100E4B2022C06D141F26E
:103AF000140059F800005FEA40080DE041F214009C
:103B000059F800000321484341F2140119F801104B
:103B100011F0010111EB500841F20A0039F80000E0
:103B2000401E10EB080041F20A0139F80110B0FB09
:103B3000F1F041F2180159F80110814201D20D2033
:103B40008DE05FF0FF3041F2100149F8010041F2D1
:103B5000100059F8000041F20C0149F801008020E2
:103B600041F2050109F80100E4B2032C64D199F88F
:103B7000310099F8301051EA002080B201285BD161
:103B8000711C4846FEF753FF002855D1002041F232
:103B9000050109F8010099F8FF0199F8FE1151EAB1
:103BA000002080B24AF65521884245D199F8030099
:103BB00099F80210090451EA006099F8011050EADE
:103BC000012099F8001008435749884234D199F8E8
:103BD000E70199F8E611090451EA006099F8E51146
:103BE00050EA012099F8E41108435049884223D152
:103BF00099F8EB0199F8EA11090451EA006099F883
:103C0000E91150EA012099F8E811084341F2100146
:103C100049F8010099F8EF0199F8EE11090451EA09
:103C2000006099F8ED1150EA012099F8EC11084371
:103C300041F20C0149F801004FF4805009F80040AE
:103C40003B480088401C3A4908803948008841F2C6
:103C5000060129F801004846FEF794FE00200BB04B
:103C6000BDE8F08F38B504002500002D17D0286876
:103C7000002814D028684FF48051405C00280ED0F2
:103C8000286841F20601405AA988884207D128686D
:103C900041F20101405C00F083FCC00701D509201E
:103CA00000E0002032BDF3B581B01400029800900E
:103CB0006846FFF7B8FC0600002E01D50B2028E06F
:103CC000184850F826000500002D06D02800FEF701
:103CD00059FE00204FF4805168540198002804D008
:103CE000002001994FF48052885401980D4941F801
:103CF00026000198002802D0E4B2012C01D0002057
:103D000007E0002202A901A8FFF7F8FC070038002D
:103D1000C0B2FEBD000000009CC9010818CC01081B
:103D200046415400B88A002052526141727241618A
:103D3000748B00202DE9F2438CB004001500002C98
:103D400001D10920E5E00020206015F01F0515F0E5
:103D5000FE020CA96846FFF7D1FC0600F6B2002E61
:103D600040F0D58009A806900C996846FFF713FC2F
:103D7000060005980700F6B2002E0ED1002F02D1E2
:103D80000620060009E0FE20054201D0012100E0E6
:103D900000216846FEF7FDFC06001C20054267D0A6
:103DA000F6B2002E11D0F6B2042E09D1FEF739FD7D
:103DB000002803D06846FFF734FB00E0122006001D
:103DC00055F00805059807000AE0F87A1121084225
:103DD00002D00720060003E0680701D5082006008E
:103DE000F6B2002E54D1280752D500F06FFC804661
:103DF00087F80E80404680B2000AF8735FEA1840E8
:103E000038745FEA186078740020F8720020387700
:103E1000002078770020B8770020F87739000098E4
:103E2000FFF7A9FA814600213800FFF7BAFA01200E
:103E3000009941F204028854B9F1000F28D000988B
:103E400041F22C014058804649460098FFF731F86E
:103E50000600F6B2002E1BD1B9F10100009941F223
:103E60000C02885041460098FEF7E1FD06000FE085
:103E7000F6B2002E0CD1F87AC00602D50420060056
:103E800006E0A80704D5F87AC00701D50720060088
:103E9000F6B2002E18D1280701D555F0200500985C
:103EA00041F22C014058E0612762FE20054201D01A
:103EB000012100E000216846FEF7C6FCA062A06A6E
:103EC000002801D102200600F6B2002E1FD1A571F4
:103ED0000020E07139000098FFF74DFA2061F87F6B
:103EE000B97F090451EA0060797F50EA0120397FE7
:103EF0000843E0600020A0600020A0610020606214
:103F000000982060206841F20601405AA0803000ED
:103F1000C0B20DB0BDE8F0832DE9F24F82B0824609
:103F200014001D00DDF80890002028605046FFF7BF
:103F300099FE8DF801009DF80100002802D09DF83F
:103F4000010020E19AF80700002802D09AF8070043
:103F500019E19AF80600C00701D4072013E1DAF846
:103F60000C00DAF80810401A01900198A04201D222
:103F700001980400002C00F00581DAF80800DAF856
:103F8000001041F20A02895AB0FBF1F201FB120063
:103F9000002840F0B880DAF80800DAF8001041F2A2
:103FA0000A02895AB0FBF1F0DAF8001041F202027D
:103FB000895C491E08408DF800009DF8000000282B
:103FC0002AD1DAF80800002803D1DAF81000060038
:103FD00011E0DAF82400002806D0DAF8081050467C
:103FE000FFF739F8060006E0DAF81410DAF80000F6
:103FF000FEF7DCFD0600022E04D202208AF807003C
:104000000220C0E016F1010F04D101208AF8070058
:104010000120B8E0CAF81460DAF81410DAF80000E9
:10402000FEF7B1FD8346BBF1000F04D102208AF8F0
:1040300007000220A7E09DF800005BFA80FBDAF899
:10404000000041F20A01405AB4FBF0F08046B8F19A
:10405000000F56D0DAF8000041F20201405C9DF8F2
:10406000001058FA81F1884208D2DAF8000041F2D3
:104070000201405C9DF80010401A804643465A46B3
:104080004946DAF8000041F2010C10F80C0000F08B
:10409000B3FA002804D001208AF80700012072E05A
:1040A000DAF8000041F20401405C002820D0DAF880
:1040B000000041F22C014058B0EB0B00404517D2F4
:1040C000DAF8000041F20A01425ADAF80010DAF890
:1040D000000041F22C03C058B0EB0B00DAF80030BE
:1040E00041F20A0C33F80C3058434844FEF71CFBED
:1040F000DAF8000041F20A01405A08FB00F007001C
:1041000035E0CAF818B0DAF80800DAF8001041F221
:104110000A02895ADAF8002041F20A03D25A121A26
:10412000B0FBF1F001FB00200700BC4200D22700E9
:10413000DAF81810DAF80000FEF779FC002804D04D
:1041400001208AF8070001201DE0DAF80800DAF8FB
:10415000001041F20A02895A3A00B0FBF1F301FB68
:104160001300DAF8001001444846FEF7DDFAB944BE
:10417000DAF808003818CAF80800286838182860E3
:10418000E41BF7E60020BDE8FE8FF8B50400200030
:10419000FFF768FD0500EDB2002D3DD1A079800646
:1041A0003AD5E1692068FEF742FC0500EDB2002D2A
:1041B00032D1206A0700F87A50F02000F872E068E7
:1041C0003877E06880B2000A7877E068000CB8774A
:1041D000E068000EF87721693800FFF7E2F800F098
:1041E00075FA0600BE75300080B2000AF875300C12
:1041F0003876300E78760020B8740020F874A079F4
:1042000010F0DF00A0710120216841F204028854FF
:104210002068FEF731FC05002800C0B2F2BD38B5B9
:1042200004002000FFF7B1FF0500EDB2002D0FD113
:104230002000FFF717FD0500EDB2002D08D1A06AA0
:10424000FEF773FB0500EDB2002D01D100202060C8
:104250002800C0B232BD2DE9F04F87B081460C0076
:104260004846FFF7FFFC8DF808009DF8080000287D
:1042700002D09DF808008BE199F80700002802D0D1
:1042800099F8070084E1D9F82400002800F0A08004
:1042900014F1010F51D1D9F824008246DAF8000058
:1042A00004901AF1040A02208346D9F8100007008E
:1042B000002F33D00597002080461BF1020B069794
:1042C00018F101083900D9F80000FEF76FFC07006B
:1042D000022F04D2022089F80700022058E117F1CA
:1042E000010F04D1012089F80700012050E1069850
:1042F000401C8742E3D00498584508D3CAF8008090
:104300001AF1040A0598CAF800001AF1040AD9F84B
:10431000000041F2140140588742CBD3D9F8240061
:10432000C0F800B00498584503D30020CAF8000034
:104330002CE111208DF8080028E1D9F80C00A042EA
:1043400002D2D9F80C000400C9F80840002C00F093
:104350001D81611E4846FEF77EFEC9F81400D9F89B
:104360001410D9F80000FEF70EFC01900198002807
:1043700004D1022089F80700022009E10198611E9A
:10438000D9F8002041F20A03D25AB1FBF2F1D9F870
:10439000002041F20203D25C521E11400818019025
:1043A000D9F80800D9F8001041F20A02895AB0FB86
:1043B000F1F201FB1200002800F0E8800198D9F822
:1043C0001810884200F0E2800198C9F81800DDE07A
:1043D000D9F80C00A04206D299F80600800702D452
:1043E000D9F80C000400D9F808000390002006005A
:1043F000C9F80860002C00F0A680D9F8000041F24E
:104400000201405CD9F8001041F20A02895A48437F
:1044100000900398002818D00398401E0099B0FB24
:10442000F1F0611E009AB1FBF2F181420DD30398C5
:10443000401E0099491E8843C9F80800D9F80800B1
:10444000241AD9F8140005001DE0D9F81000050061
:10445000002D16D10021D9F80000FEF773FD0500EC
:10446000012D04D1022089F80700022090E015F107
:10447000010F04D1012089F80700012088E0C9F864
:104480001050C9F81450002D5DD00098A04235D2CC
:1044900099F8060080070AD52900D9F80000FEF730
:1044A00051FD0500002D08D10098040026E02900E8
:1044B000D9F80000FEF77AFB050015F1010F04D1D1
:1044C000012089F80700012062E0022D06D3D9F807
:1044D000000041F214014058854204D3022089F8BB
:1044E0000700022054E0C9F81450D9F808000099D8
:1044F0000818C9F808000098241AC6E7D9F8080077
:104500002018C9F80800D9F8000041F20A01405A01
:10451000B4FBF0F100FB1140002814D02900D9F8B9
:104520000000FEF730FB0600002E04D1022089F8BF
:10453000070002202CE0D9F8000041F20A01405A9D
:10454000B4FBF0F08619D9F80800D9F8001041F250
:104550000A02895AB0FBF1F201FB1200002805D0D3
:10456000D9F81800864201D0C9F81860D9F80C00B3
:10457000D9F80810884209D2D9F80800C9F80C0007
:1045800099F8060050F0200089F806009DF8080010
:1045900007B0BDE8F08F0268531C036011707047CC
:1045A00038B504003B48E4B22044007C3949E4B209
:1045B00001EB840149684968884705002800C0B2BA
:1045C00032BD38B5040000253248E4B2005D002851
:1045D0000FD101202F49E4B208552E48E4B22044FF
:1045E000007C2C49E4B201EB8401496809688847E2
:1045F00005002800C0B232BD2DE9F04104000D00D5
:1046000016001F003B00320029002248E4B220447B
:10461000007CDFF880C0E4B20CEB840CDCF804C052
:10462000DCF808C0E04780464046C0B2BDE8F081F3
:104630002DE9F04104000D0016001F003B00320080
:1046400029001448E4B22044007CDFF848C0E4B2FA
:104650000CEB840CDCF804C0DCF80CC0E0478046AE
:104660004046C0B2BDE8F081F8B504000D00160068
:1046700032002900C9B20748E4B22044007C054B4F
:10468000E4B203EB84035B681B69984707003800BA
:10469000C0B2F2BDA48A002080B50649064800F0E9
:1046A00043F8064908700649064800F03DF80649F7
:1046B000087001BD008B0020F0CB01088B8B00201F
:1046C000048B002004CC01088C8B00200020704754
:1046D000F0B4030001200024184DED7C042D20DAF5
:1046E0000025164E154FFF7CF555144D134EF67CE4
:1046F00005EB86056B60114D104EF67C35442A742F
:104700000E4DED7C6E1C0D4FFE742C0014F1300527
:104710000D703A254D702F258D700025CD70002528
:104720002800C0B2F0BC704738B504000D0000226C
:1047300029002000FFF7CCFF32BD0000A48A002032
:104740000000000000000000000000000000000069
:10475000000000000000000000000000C0C0C0C059
:10476000C0C0C0C0C0C0C00000C000000000000049
:10477000000000D8D0909000000000000000000071
:104780000000000000000000000000000000000821
:1047900080188018807FE07FC03100310033002313
:1047A00000FF80620062004600460000000000003A
:1047B000000000000000000800080008003F006939
:1047C0008048004800780038000C000F000980087D
:1047D00080088089807B803E000800080008000077
:1047E00000000000000000000000000000000000C9
:1047F0007C0600660C00C20C00C218006630003C4B
:10480000300000600000C18000C7C0018460030464
:1048100020030C200606E00403C000000000000096
:104820000000000000000000000000000000000088
:104830003C006600620066003C0038007800CC0056
:104840008600824083C0C38066803CC000000000B8
:1048500000000000000000000040C0C08000000018
:104860000000000000000000000000000000002028
:104870006040C0C08080808080808080C040606058
:10488000000000000000C040602020303030303098
:10489000303020206040C000000000000000587050
:1048A000FC70580000000000000000000000000044
:1048B000000000000000000000001018187EFF1823
:1048C00018100000000000000000000000000000C0
:1048D000000000000000000040C0C0808000000018
:1048E00000000000000000000000007EFF0000004B
:1048F00000000000000000000000000000000000B8
:1049000000000000000000C000000000004000C0E7
:104910000080018001000100030002000600060083
:1049200004000C00080018001800100030002000DF
:10493000600060004000C000000000000000007E39
:1049400042C3C3C3C3C3C3C3C3C3C3663C000000E5
:10495000000000000000183878D818181818181827
:10496000181818180000000000000000007C4682A3
:10497000030206040C1810306040FF000000000025
:1049800000000000FC060203023E3E060303030291
:1049900006FC000000000000000000000000000015
:1049A00018001000100030003000200020006600C9
:1049B00046004600FF8006000600060000000000DA
:1049C000000000000000000000FFC0C0C0C0F87E72
:1049D000020303030206FC000000000000000000C8
:1049E0000C183060407CFEC3C3C3C3C3663C0000E8
:1049F00000000000000000FFC2820604040C0C0846
:104A0000081818101000000000000000000000004E
:104A10000000003E0023006100610061003F003F94
:104A20000061804180C080C080418077001E00000E
:104A30000000000000000000000000007E42C3C330
:104A4000C3C3437F0206060C1830000000000000BC
:104A500000000000000000000000C0000000000096
:104A6000C000000000000000000000000000000086
:104A700000C00000000000C0C080800000000000F6
:104A8000000000000000020F3C70F01C0702000054
:104A900000000000000000000000000000007FFE99
:104AA0000000FF0000000000000000000000000007
:104AB0000000000040F03C0E0F38E08000000000D5
:104AC0000000000000007CE68202060C081818189E
:104AD00018000018000000000000000000000000A6
:104AE00000000FE01830301863CC47C44446C44679
:104AF000C446446667FC600030101E7007C00000AA
:104B000000000000000000000000000000000000A5
:104B100008001C001C001400360032002200630054
:104B200061007F00C180C080808080C000000000E4
:104B30000000000000000000000000000000FF0076
:104B4000C300C100C100C100FF00FF00C180C080E0
:104B5000C080C080C080C180FF0000000000000055
:104B6000000000000000007F40C0C0C0C0C0C0C046
:104B7000C0C0C0603F000000000000000000000056
:104B8000000000FF00C180C080C080C080C080C025
:104B900080C080C080C080C080C080C180FF000015
:104BA000000000000000000000000000FFC0C0C0C6
:104BB000C0FCFCC0C0C0C0C0C0FF000000000000BE
:104BC000000000FFC0C0C0C0FEFFC0C0C0C0C0C069
:104BD000C000000000000000000000000000007F96
:104BE000804000C000C000C000C380C380C080C03F
:104BF00080C080C080C08060803F800000000000D6
:104C000000000000000000000000000000C080C0A4
:104C100080C080C080C080FF80FF80C080C080C016
:104C200080C080C080C080C0800000000000000004
:104C3000000000000000C0C0C0C0C0C0C0C0C0C0F4
:104C4000C0C0C0C000000000000000000004040458
:104C50000404040404040404040CF800000000002C
:104C6000000000000000000000C180C300C600CCAE
:104C700000D800F800E800CC00C600C600C300C1A0
:104C800000C180C0800000000000000000000000A3
:104C90000000C0C0C0C0C0C0C0C0C0C0C0C0C0FF55
:104CA0000000000000000000000000000000C060E4
:104CB000E0E0E0E0F1E0D160DB60CE60C460C060C5
:104CC000C060C060C060C060C04000000000000064
:104CD000000000000000000000000000C080E08034
:104CE000E080F080D080D880C880CC80C680C6802C
:104CF000C380C180C180C0800000000000000000AF
:104D0000000000000000000000007F004180C08023
:104D1000C080C080C080C080C080C080C080C08093
:104D2000C08061803F000000000000000000000023
:104D30000000000000000000FF00C180C080C080B3
:104D4000C080C080C180FF00C000C000C000C000A3
:104D5000C000C000000000000000000000000000D3
:104D60000000000000007F004180C080C080C08043
:104D7000C080C080C080C080C080C680C38061C049
:104D80003F60000000000000000000000000000084
:104D900000000000FF00C180C080C080C080C080D3
:104DA000C180FF00CC00C600C200C300C180C0802B
:104DB00000000000000000000000000000000000F3
:104DC00000003F00618040004000700038000C008F
:104DD0000700018000800080818073803E00000019
:104DE00000000000000000000000000000000000C3
:104DF000FF800800080008000800080008000800FC
:104E00000800080008000800080008000000000072
:104E10000000000000000000000000000000C08052
:104E2000C080C080C080C080C080C080C080C08082
:104E3000C080C080C08061803F0000000000000092
:104E4000000000000000000000000000C0404040E2
:104E500060C0608020803180310011001B001A008A
:104E60000A000E000C00040000000000000000001A
:104E700000000000000000000000C00840084018CA
:104E80006018601023102310273037B034A01CE0C6
:104E900018E018601840000000000000000000004A
:104EA0000000000000000000C06060C02180318070
:104EB0001B000E000E000E001A001B0031806080E7
:104EC00060C0C060000000000000000000000000A2
:104ED000000000000000C06060C0308011801B0036
:104EE0000E00040004000400040004000400040098
:104EF00004000000000000000000000000000000AE
:104F0000000000007FE000C000800180030002007C
:104F100006000C0008001800300020006000FFE0D0
:104F2000000000000000000000000060E0C0C0C001
:104F3000C0C0C0C0C0C0C0C0C0C0C0E00000004011
:104F400000C0004000600020003000100010001879
:104F50000008000C000C000400060002000300031F
:104F60000001000180008000C000C00000000000BF
:104F7000E0E02020202020202020202020202020B1
:104F8000E0000000187EC3000000000000000000E8
:104F90000000000000000000000000000000000011
:104FA0000000000000000000000000000000000001
:104FB00000000000000000000000000000000000F1
:104FC000000000FF800000000000000000E06030F2
:104FD00000000000000000000000000000000000D1
:104FE00000000000000000000000000000000000C1
:104FF00000003F006300C300C300C300C300C30040
:10500000C30067003D8000000000000000000000B9
:10501000000000C0C0C0C0FCC6C3C3C3C3C3C3C676
:10502000FC000000000000000000000000003C60E8
:10503000C0C0C0C0C0C0603C000000000000000054
:1050400000030303033F63C3C3C3C3C3C3633F007E
:105050000000000000000000000000003C66C3C328
:10506000FFFEC0C0603F00000000000000000038EC
:10507000606060F8606060606060606060000000B8
:10508000000000000000000000003F63C3C3C3C372
:10509000C3C3633F0303027E0000000000C0C0C022
:1050A000C0FCC6C3C3C3C3C3C3C3C3000000000066
:1050B00000000000C0000000C0C0C0C0C0C0C0C030
:1050C000C0C0000000000000000000300000003000
:1050D000303030303030303030303030E0000000B0
:1050E0000000C0C0C0C0C3C6DCF0F0D8CCC4C6C38A
:1050F000000000000000000000C0C0C0C0C0C0C070
:10510000C0C0C0C0C040600000000000000000003F
:1051100000000000000000000000000000FF80C44C
:10512000C0C440C440C440C440C440C440C440C4DF
:10513000400000000000000000000000000000002F
:105140000000FCC6C3C3C3C3C3C3C3C30000000085
:105150000000000000000000003C66C3C3C3C3C3DE
:10516000C3663C00000000000000000000000000DA
:10517000FCC6C3C3C3C3C3C3C6FCC0C0C0C0000019
:10518000000000000000003F63C3C3C3C3C3C36388
:105190003F03030303000000000000000000F8CC00
:1051A000C4C0C0C0C0C0C0C00000000000000000FB
:1051B00000000000007CCE80C070180C06DC780077
:1051C000000000000000000020202020FC20202003
:1051D000202020202020000000000000000000000F
:1051E000000000C3C3C3C3C3C3C3C3633F00000005
:1051F00000000000000000000000C342626624348A
:105200003C1818180000000000000000000000001A
:1052100000000000000000000000C040406040406E
:1052200064C06EC02E802A803B8031801100000057
:10523000000000000000000000000000000000C3AB
:1052400066663C18183C6666C3000000000000005B
:10525000000000000000C2424666642C3C3818186A
:10526000101030E0000000000000000000FF060603
:105270000C1818306060FF00000000000000307063
:10528000404040404040C0C040404040404070002E
:1052900000000000000000C8C8C8C8C8C8C8C8C806
:1052A000C8C8C8C8C80000000000000040E02020B6
:1052B000202020203830202020202020E000000066
:1052C00000000000000000000000000000000000DE
:1052D000000000000000000000007880CF80000087
:1052E00000000000000000000000000000000000BE
:1052F00000000000000000000000000000000000AE
:10530000000000000000000000000000000000009D
:10531000000000000000000000000000000000008D
:10532000000000000000000000000000000000007D
:10533000000000000000000000000000000000006D
:105340000000000000C0E02040400000000000001D
:105350000080034002C00400040004000C003F80F1
:105360000C000C000C0008000800080018001800D1
:10537000180010009000A0000000000000000000D5
:1053800000000000000000000044EEE6224244005D
:10539000000000000000000000000000000000000D
:1053A00000000000000000000000000008000800ED
:1053B000080008000800FF80080008000800080036
:1053C000180008000800080008000800080008008D
:1053D00008000800000000000000080008000800A5
:1053E00008000800FF8008000800080008001800F6
:1053F000080008001000F780C90008000800080035
:1054000018000038CE00000000000000000000007E
:10541000000000000000000000000000000000008C
:105420000000004000388000678000450000450013
:1054300000C500008A00008A000094C18075A28027
:105440000524400B2C400A28801228801228801244
:105450004900238D00200200000000000000000031
:1054600063001C0000001D0063804180C080C0807C
:10547000E000700038001C0007000380018080807D
:1054800080808080C180FF000000000000000000DC
:1054900000000000000008102060C040201010082C
:1054A00000000000000000000000000000000007F5
:1054B000FFF0183010201010601010401000401045
:1054C00020401020C01060C01FE0C01020401020FD
:1054D0004010006010006010083010081838180FD5
:1054E000FFF00000000000000000000000000000CD
:1054F00000000000000000000000000000000000AC
:10550000000000000000000000000000000000009B
:10551000000000000000000000000000000000008B
:10552000000000000000000000000000000000007B
:10553000000000000000000000000000000000006B
:105540000000000000000040808080C0E08000007B
:10555000000000000000000000000000000080C00B
:10556000E0204080800000000000000000000000FB
:10557000000000000042848484C7E782000000002D
:1055800000000000000000000000000084C7E721C8
:1055900042828400000000000000000000000000C3
:1055A00000000000000000000000000000000000FB
:1055B00000000000000000000000000000000000EB
:1055C0000000FE00000000000000000000000000DD
:1055D00000000000000000000000000000000000CB
:1055E00000000000000000000000000000000000BB
:1055F0000000FFFFF80000000000000000000000B5
:10560000000000000000000000000000000000009A
:105610000000000000E4980000000000000000000E
:10562000000000000000000000000000000000007A
:10563000000000000000FEE0709260401050C010BA
:105640005140105140104940104A4010464010440B
:10565000403864F00000000000000000000000007E
:10566000000000000000000000000000000000003A
:105670000000000000C67800007C8484C060381CF4
:10568000048484F800000000000000000000000016
:10569000808040203020408080800000000000009A
:1056A0000000000000000000000000000010002CBE
:1056B000E04510431083F08200820083008308439A
:1056C00010459038E00000000000000000000000DD
:1056D00000000000000000000000000000000000CA
:1056E00000000000000000000000000000000000BA
:1056F00000000000000000000000001860186000BA
:1057000000FC3C3010101018200C400C40068002A9
:105710008003000300030003000300030003000FE5
:10572000C0000000000000000000000000000000B9
:105730000000000000000000000000000000000069
:10574000000000000000C0C00000C0C0C0C0C0C059
:10575000C0C0C0C0C0000000000000000000000089
:1057600000010001001F007F8063C0C4C0C400C4EA
:1057700000C800C8C071C07F803F0020002000002A
:1057800000000000000000000000001F003F8071CA
:10579000C060C0600060006000FE00FE00300030AD
:1057A0000020007C40FFC083C0000000000000001B
:1057B000000000000000000000000000004040FF6A
:1057C000E07FC071C060C060C060C071C07FC0FFBA
:1057D000E040400000000000000000000000000069
:1057E00000000000000000C0306060606030C01940
:1057F0008019800F007FE07FE006007FE07FE006F9
:10580000000600060000000000000000000000008C
:1058100000C0C0C0C0C0C0C0C000000000C0C0C048
:10582000C0C0C0C00000003C7E603018784CC6C2CA
:105830004363361C0C06467E0000000062440000F4
:10584000FFC0C0C0C0FCFCC0C0C0C0C0C0FF0000E2
:105850000000000000000000000007C01830200811
:1058600043C446648C628C028C028C028C62466457
:1058700043C42008183007C00000000000000000EA
:10588000000000007CC6067EC6C67E00FE0000004A
:105890000000000000000000000000000000000008
:1058A00000123366CCDC66331200000000000000FA
:1058B00000000000000000000000000000000000E8
:1058C000000000007F80FF8000800080000000005A
:1058D00000000000000000000000000000000000C8
:1058E00000000000000000000000000000000000B8
:1058F000000000000000000000000007C018302079
:105900000840044FC48C628C628C628FC28CC24C83
:10591000C44C642008183007C000000000000000DC
:10592000000000FFE0000000000000000000000098
:105930000000000000000000000000000000000067
:105940000000000000000000000000000000000057
:1059500000000078CC8484CC7800000000000000B7
:1059600000000000000000000000000000181818EF
:10597000FF18181800007FFE000000000000000063
:105980000078CC0C1C3870E0FC0000000000000027
:10599000000000000000000078CC0C300C0CCC782B
:1059A0000000000000000000000000000000007087
:1059B00060C00000000000000000000000000000C7
:1059C00000000000000000000000000000000000D7
:1059D0000000C180C180C180C180C180C180C18000
:1059E000C180E380FFC0FCC0C000C000C000C00098
:1059F000000000000000000000003FC07D807D80AE
:105A0000FD80FD807D807D803D800D800D800D803E
:105A10000D800D800D800D800D800D800D800000AB
:105A2000000000000000000000C0C00000000000F6
:105A300000000000000000000000660000003C665E
:105A4000C3C3FFFEC0C0603F0000000000000000B4
:105A5000000000000000C09CE096E0B6F0B6D0B6B2
:105A6000D89EC89CCC80C480C680C380C180C180C1
:105A7000C08000000000000000000000000038446A
:105A8000C6C6C6443800FE0000000000000000004A
:105A9000000000000000000000000088DC663333D6
:105AA00066CC98000000000000000000000000002C
:105AB00030043008F0103020302030403080310C7D
:105AC000011C021C042C044C087E100C200C00004D
:105AD0000000000000000000000000000000300492
