:020000040800F2
:10000000F835002001BF020885BF020885BF02083D
:10001000ADB9020885BF020885BF020800000000D4
:1000200000000000000000000000000085BF020882
:1000300085BF02080000000085BF0208AFB90208B2
:1000400085BF020885BF020885BF020885BF020878
:1000500085BF020885BF0208BBB9020885BF020838
:1000600085BF020885BF020885BF020885BF020858
:1000700085BF020885BF0208C9B10208B9B10208EC
:1000800085BF020885BF020885BF0208C5B90208FE
:10009000CFB90208D9B9020885BF02083751010853
:1000A00085BF020885BF0208E3B9020885BF0208C0
:1000B00085BF020885BF020885BF020885BF020808
:1000C00085BF0208F1B90208FBB9020885BF020822
:1000D00085BF020885BF020885BF020885BF0208E8
:1000E00085BF020885BF020885BF020885BF0208D8
:1000F00005BA020813BA020885BF020885BF0208C4
:1001000021BA020885BF020885BF020885BF020820
:1001100085BF020885BF020885BF020885BF0208A7
:1001200085BF020885BF020885BF020885BF020897
:1001300085BF020885BF020885BF020885BF020887
:1001400085BF020885BF020885BF020831BA0208D0
:1001500085BF020885BF020885BF02083BBA0208B6
:1001600085BF020885BF020885BF020885BF020857
:1001700085BF020885BF020885BF02080000000095
:1001800085BF020885BF020885BF020885BF020837
:1001900085BF020885BF020885BF020885BF020827
:1001A00045BA02084FBA020859BA020885BF0208C8
:1001B00085BF020885BF020885BF020885BF020807
:1001C00085BF020885BF0208000000000000000093
:1001D000000000000000000000000000000000001F
:1001E000000000000000000000000000000000000F
:1001F00000000000000000000000007870707070C7
:1002000070707070707070707070707070700000CE
:10021000002078F8F87800000000000000000000DE
:10022000000000000000000000000000E380E38008
:10023000E380E380E380E380E3806380618061802A
:1002400000000000000000000000000000000000AE
:10025000000000000000000000000000000000009E
:10026000000000000000000000000000000000008E
:10027000000000000000000000000000000000007E
:10028000000000000000000000000000000000006E
:10029000038600030600030E00030E00030E000396
:1002A0000C00070C00070C007FFF807FFF80061CFE
:1002B00000061C000618000E18000E18000E18008C
:1002C000FFFF80FFFF800C38000C38000C30001C52
:1002D00030001C300018300018700018700000004A
:1002E000000000000000000000000000000000000E
:1002F00000000000000000000000000000000000FE
:1003000000000000000003000300030003801FF84A
:100310003FF87838F000F000E000F000F000F8005E
:100320007E003F801FE007F000F8007C003C001ECC
:10033000001E001C001C803CF0F8FFF07FE0030072
:1003400003000300030000000000000000000000A4
:10035000000000000000000000000000000000009D
:10036000000000000000000000000000000000008D
:10037000000000001FC006003FE00C0070E00C0011
:100380007070180060703800E0303000E0307000AD
:10039000E0306000E030C000E030C0006071838079
:1003A00070718FE070E31EF03FE738381F863838F1
:1003B000000C7038000C70180018701800187018B5
:1003C00000307018007070180060303800C0383885
:1003D00000C03C7001801FE001800FC000000000E1
:1003E000000000000000000000000000000000000D
:1003F00000000000000000000000000000000000FD
:1004000000000000000000000000000000000000EC
:1004100000000000000000000003FC0007FE000FC9
:100420000E000E07001E07001C07001E07001E0F0F
:10043000000E0E000F1C0007780007F00007C01C1C
:100440001FE01C3CF01C78781C707C3C703C38F041
:100450001E38F00F70F007F0F003E07801E0780745
:10046000F03E1FF81FFE7C0FF83E00000000000069
:10047000000000000000000000000000000000007C
:100480000000000000000000000000000000E0E0AC
:10049000E0E0E0E0E06060600000000000000000DC
:1004A000000000000000000000000000000000004C
:1004B00000000000000000000000060E1C1C383880
:1004C000707070E0E0E0E0E0E0E0E0E0E0E0E0E07C
:1004D000E0E070707038381C1C0E06000000000050
:1004E000000000000000E0607038381C1C1C0E0E7C
:1004F0000E0E0707070707070707070E0E0E0E1C4D
:100500001C1C38387060E000000000000000000093
:100510000000000000000000000018601C701C605B
:100520000CC00680C38CFFFCF39C07800CC00CE061
:100530001C7018700800000000000000000000009F
:1005400000000000000000000000000000000000AB
:10055000000000000000000000000000000000009B
:10056000000000000000000000000000000000008B
:10057000000000000000000000000000000000007B
:1005800000000000000000000000000060000060AB
:10059000000060000060000060000060000060007B
:1005A000006000006000FFFFF0FFFFF0FFFFF000C1
:1005B00060000060000060000060000060000060FB
:1005C000000060000060000060000000000000000B
:1005D000000000000000000000000000000000001B
:1005E000000000000000000000000000000000000B
:1005F00000000000000000000000000000000000FB
:1006000000000000003C3C3878787070E0E0C000EA
:1006100000000000000000000000000000000000DA
:1006200000000000000000000000000000000000CA
:1006300000000000000000000000000000000000BA
:10064000FFC0FFC00000000000000000000000002C
:10065000000000000000000000000000000000009A
:10066000000000000000000000000000000000008A
:10067000000000000000000000000000000000007A
:1006800000000000000000000020F0F8F8700000FA
:10069000000000000000000000000000000000005A
:1006A0000000000000000018003800380030007022
:1006B000007000E000E000C001C001C001800380C4
:1006C00003000700070006000E000E001C001C00BF
:1006D000180038003800300070006000E000E000D2
:1006E000000000000000000000000000000000000A
:1006F00000000000000000000000000000000000FA
:10070000000000000000000003F8000FFE001F1EA4
:10071000001E0F003C07803807807803807803C0F4
:100720007003C07003C07003C0F001C0F001C0F0DE
:1007300001C0F001C07003C07003C07003C0780333
:10074000C07803803807803C07801C0F001F1E0004
:100750000FFC0007F800000000000000000000008F
:100760000000000000000000000000000000000089
:100770000000000000000000000000000000000079
:100780000000000007801F807F80FF806780078057
:100790000780078007800780078007800780078021
:1007A0000780078007800780078007800780078011
:1007B000078007800780078000000000000000001D
:1007C0000000000000000000000000000000000029
:1007D0000000000000000000000000001FF07FF893
:1007E0007EFC601E000E000F000F000F000F000EB9
:1007F000000E001E001C003C007800F001E003C069
:1008000007800F001E003C007800FFFFFFFFFFFF86
:1008100000000000000000000000000000000000D8
:1008200000000000000000000000000000000000C8
:10083000000000001FF07FF87CFC603E001E001EE0
:10084000001E001E001C003C01F80FE00FF001F834
:10085000003C001E000F000F000F000F000F001ED5
:10086000C03EF8FCFFF87FE0000000000000000040
:100870000000000000000000000000000000000078
:100880000000000000000000000000000000000068
:1008900000000000001E00003E00007E00007E0000
:1008A00000EE0001EE0001CE00038E00078E00076F
:1008B0000E000E0E001C0E003C0E00380E00700ED6
:1008C00000F00E00FFFFE0FFFFE0FFFFE0000E0082
:1008D000000E00000E00000E00000E00000E0000D2
:1008E0000E000000000000000000000000000000FA
:1008F00000000000000000000000000000000000F8
:1009000000000000000000000000000000000000E7
:100910001FFE1FFE1FFE3800380038003800380068
:10092000380032007FE07FF800FC003E001E000F20
:10093000000F000F000F000F000E001E803CF9FC9E
:10094000FFF07FE000000000000000000000000059
:100950000000000000000000000000000000000097
:100960000000000000000000000000000000000087
:10097000003F0000FF0003FC0007C0000F00001E46
:1009800000001C000038000038000079FC0077FEF1
:10099000007FFF007C0780F803C0F003C0F003C0B5
:1009A000F001C0F001C07001C07003C07803C0380E
:1009B00003803C07801F1F000FFE0007FC000000A3
:1009C0000000000000000000000000000000000027
:1009D0000000000000000000000000000000000017
:1009E0000000000000000000000000000000000007
:1009F00000000000FFFF80FFFF80FFFF8000070076
:100A0000000F00000E00001E00001C00003C000053
:100A1000380000780000700000F00000E00001E005
:100A20000001C00003C00003800007800007000031
:100A30000F00000F00001E00001E00003C00003CE4
:100A400000000000000000000000000000000000A6
:100A50000000000000000000000000000000000096
:100A60000000000000000000000000000000000086
:100A7000000000000000000007FC000FFE001E1F29
:100A8000003C078038078038038078038038038073
:100A90003807803C0F001F1E000FFC0007FC000FF2
:100AA000FE003E1F003807807803C07003C070034B
:100AB000C0F003C07003C07803C07C07803E0F0005
:100AC0001FFE0007FC000000000000000000000006
:100AD0000000000000000000000000000000000016
:100AE0000000000000000000000000000000000006
:100AF0000000000000000000000000000FF0001FD8
:100B0000FC003E3E00780E00700F00F00700E0078A
:100B100080E00780E00380E00380E00380F007804E
:100B2000F00F807C1F803FFF801FF78007C7000009
:100B30000700000F00001E00001C00007C0000F8F1
:100B4000001FF0003FC0003F000000000000000058
:100B50000000000000000000000000000000000095
:100B60000000000000000000000000000000000085
:100B70000000000000000020F8F8F87000000000FD
:100B800000000000002070F8F87000000000000075
:100B90000000000000000000000000000000000055
:100BA00000F0F0F0F0000000000000000000000085
:100BB0000000F0F0F0F030303060E0C000000000E5
:100BC0000000000000000000000000000000000025
:100BD0000000000000000000000000000000000015
:100BE000000000000000000000400001C00007C03D
:100BF000001F00007C0001F00007C0001F00007C07
:100C00000000F00000E00000F800003E00000F804F
:100C10000003E00000F800007E00001F800007C015
:100C20000001C000004000000000000000000000C3
:100C300000000000000000000000000000000000B4
:100C400000000000000000000000000000000000A4
:100C50000000000000000000000000000000000094
:100C60000000000000000000000000000000000084
:100C700000000000000000000000FFFFF0FFFFF098
:100C8000FFFFF00000000000000000000000000076
:100C90000000FFFFF0FFFFF0000000000000000078
:100CA0000000000000000000000000000000000044
:100CB0000000000000000000000000000000000034
:100CC0000000000000000000000000000000000024
:100CD0000000000000000000000000000000000014
:100CE0000000000000000000000000000000008084
:100CF0000000E00000F800003E00000F800003E06C
:100D00000000F800003E00000F800003C00001C09A
:100D10000007C0001F00007C0001F00007C0001F9A
:100D200000007C0000F80000E000008000000000EF
:100D300000000000000000000000000000000000B3
:100D400000000000000000000000000000000000A3
:100D5000000000000000000000007FC0FFE073F012
:100D600000F0007000700070007000F001E001C041
:100D700003C0078007000F000E000E000E000E00DB
:100D800000000000000004001E001E001E001E00E7
:100D90000000000000000000000000000000000053
:100DA0000000000000000000000000000000000043
:100DB0000000000000000000000000000000000033
:100DC000000000000000000000000000000F800094
:100DD00000FFF00001E0780007001E000E00070091
:100DE0001C00030038000380300FE180703FE1C039
:100DF000607061C0E0E060C0C1C0E0C0C180E0C020
:100E0000C380C0C0C380C1C0C301C180C301C18051
:100E1000C383C380C386C300E1FEFE0061F87C008B
:100E20006000000070000000380000001C0000009E
:100E30000F00600007FFE00000FF800000000000DE
:100E400000000000000000000000000000000000A2
:100E50000000000000000000000000000000000092
:100E6000000000000000000000007C00007C00008A
:100E7000FC0000FE0000EE0001CE0001CF0001CF1B
:100E80000003C7000387800387800783800703C0B0
:100E90000703C00F01C00E01E00FFFE01FFFE01FBE
:100EA000FFF01C00F03C00703800783800787800C3
:100EB0003870003C70003CF0001C00000000000096
:100EC0000000000000000000000000000000000022
:100ED0000000000000000000000000000000000012
:100EE00000000000000000000000000000FFE00023
:100EF000FFF800FFFE00F01E00F00F00F00F00F002
:100F00000F00F00F00F00F00F00E00F01E00FFF8D1
:100F100000FFE000FFFC00F03E00F00F00F00700D3
:100F2000F00780F00780F00780F00780F00780F07E
:100F30000F00F01F00F9FE00FFFC00FFE0000000C2
:100F400000000000000000000000000000000000A1
:100F50000000000000000000000000000000000091
:100F60000000000000000000000000000000000081
:100F700000007FF001FFF803FFF00FC0001F00002A
:100F80001E00003C00003C0000780000780000706B
:100F90000000700000F00000F00000F000007000A1
:100FA000007000007800007800007800003C00002D
:100FB0003E00001F00000FC00007FFF003FFF80015
:100FC000FFF0000000000000000000000000000032
:100FD0000000000000000000000000000000000011
:100FE0000000000000000000000000000000000001
:100FF0000000000000FFF800FFFF00FFFFC0F00747
:10100000E0F001F0F000F0F00078F00078F0003C43
:10101000F0003CF0003CF0003CF0001CF0001CF044
:10102000003CF0003CF0003CF0003CF00038F000E8
:1010300078F000F0F000F0F003E0F00FC0FFFF8068
:10104000FFFE00FFF80000000000000000000000AC
:101050000000000000000000000000000000000090
:101060000000000000000000000000000000000080
:101070000000FFFEFFFEFFFEF000F000F000F000B9
:10108000F000F000F000F000FFFCFFFCFFFCF000BF
:10109000F000F000F000F000F000F000F000F000D0
:1010A000F000FFFEFFFEFFFE000000000000000059
:1010B0000000000000000000000000000000000030
:1010C00000000000000000000000FFFEFFFEFFFE29
:1010D000F000F000F000F000F000F000F000F00090
:1010E000F000FFFCFFFCFFFCF000F000F000F0005F
:1010F000F000F000F000F000F000F000F000F00070
:1011000000000000000000000000000000000000DF
:1011100000000000000000000000000000000000CF
:10112000000000000000000000003FF001FFFC0391
:10113000FFF807C0080F00001E00003C00003C0044
:1011400000780000780000700000700000F00000DF
:10115000F003FEF003FE7003FE70001E78001E78A0
:10116000001E78001E3C001E3E001E1F001E0FC009
:101170001E07FFFE01FFFE007FF0000000000000E0
:10118000000000000000000000000000000000005F
:10119000000000000000000000000000000000004F
:1011A00000000000000000000000000000F00070DF
:1011B000F00070F00070F00070F00070F00070F05F
:1011C0000070F00070F00070F00070F00070FFFF31
:1011D000F0FFFFF0FFFFF0F00070F00070F0007023
:1011E000F00070F00070F00070F00070F00070F02F
:1011F0000070F00070F00070F00070F000700000FF
:1012000000000000000000000000000000000000DE
:1012100000000000000000000000000000000000CE
:10122000000000F0F0F0F0F0F0F0F0F0F0F0F0F08E
:10123000F0F0F0F0F0F0F0F0F0F0F0F0F0F000008E
:10124000000000000000000000000000000000009E
:10125000000000000000007000700070007000705E
:1012600000700070007000700070007000700070FE
:1012700000700070007000700070007000F000F0EE
:1012800000F000E001E07FC0FFC0FF0000000000B0
:10129000000000000000000000000000000000004E
:1012A000000000000000000000000000000000003E
:1012B0000000000000F003C0F00780F00F00F01EF7
:1012C00000F03E00F03C00F07800F0F000F1E000AB
:1012D000F3C000F78000F78000FF8000FFC000F936
:1012E000E000F9E000F0F000F07800F07800F03C69
:1012F00000F01E00F01E00F00F00F00780F00780E5
:10130000F003C0F001E00000000000000000000059
:1013100000000000000000000000000000000000CD
:1013200000000000000000000000000000000000BD
:101330000000F000F000F000F000F000F000F0001D
:10134000F000F000F000F000F000F000F000F0001D
:10135000F000F000F000F000F000F000F000F0000D
:10136000F000FFFEFFFEFFFE000000000000000096
:10137000000000000000000000000000000000006D
:10138000000000000000000000000000000000005D
:1013900000000000000000003E0003C03E0007C047
:1013A0003F0007C03F000FC03F000FC03F800FE06D
:1013B0003B801DE03B801DE03BC01DE039C039E0B3
:1013C00079C039E079E038E078E070E070E070E012
:1013D00070F0F0E07070E0E07070E0E07079C0E014
:1013E0007039C0E07039C0E0703D80E0701F80F05F
:1013F000701F80F0701F00F0700F00F0F00F00F011
:10140000F00E00F0000000000000000000000000EE
:1014100000000000000000000000000000000000CC
:1014200000000000000000000000000000000000BC
:1014300000000000000000000000000000000000AC
:1014400000F00070F80070F80070FC0070FE007092
:10145000EE0070EF0070E78070E78070E3C070E32B
:10146000C070E1E070E0F070E0F070E07870E03CB7
:1014700070E03C70E01E70E01E70E00F70E00770DE
:10148000E007F0E003F0E001F0E001F0E000F0E060
:1014900000F000000000000000000000000000005C
:1014A000000000000000000000000000000000003C
:1014B000000000000000000000000000000000002C
:1014C00000000000000000000000000000FFC0005D
:1014D00003FFF00007F3F8000F807C001E003E00C1
:1014E0003E001E003C000F0038000F00780007008F
:1014F000780007807000078070000780F000078088
:10150000F0000780F00007807000078070000780FF
:10151000780007807800070078000F003C000F007B
:101520003E001E001E003C000F807C0007E3F80018
:1015300003FFE00000FFC00000000000000000000A
:10154000000000000000000000000000000000009B
:10155000000000000000000000000000000000008B
:10156000000000000000000000000000000000007B
:101570000000000000FFE000FFFC00FFFE00F01F85
:1015800000F00F00F00700F00780F00780F0078000
:10159000F00780F00700F00F00F01E00F8FE00FFDB
:1015A000F800FFF000F00000F00000F00000F00094
:1015B00000F00000F00000F00000F00000F000007B
:1015C000F00000F00000000000000000000000003B
:1015D000000000000000000000000000000000000B
:1015E00000000000000000000000000000000000FB
:1015F00000000000000000000000000000000000EB
:1016000000FFC00003FFF00007F3F8000F807C002C
:101610001E003E003E001E003C000F0038000F0080
:10162000780007007800078070000780700007804E
:10163000F0000780F0000780F0000780700007804E
:1016400070000780780007807800070078000F009E
:101650003C000F003E001E001E003C000F807C007E
:1016600007E3F00003FFE00000FFC0000007FE00FA
:101670000000FF8000001F8000000100000000004B
:10168000000000000000000000000000000000005A
:10169000000000000000000000000000000000004A
:1016A000000000000000000000FFF000FFFC00FF51
:1016B000FE00F01F00F00F00F00780F00780F00739
:1016C00080F00780F00700F00F00F01E00F07C00B3
:1016D000FFF800FFF000F0FC00F03C00F01E00F00E
:1016E0000E00F00F00F00F00F00F00F00700F00701
:1016F00080F00780F00780F0038000000000000009
:1017000000000000000000000000000000000000D9
:1017100000000000000000000000000000000000C9
:1017200000000000000007FC1FFE3FFC7804700072
:10173000F000F000F000F00078007C003F801FE037
:1017400007F801FC007E001E000F000F000F000FC5
:10175000000F000EC01EFFFCFFF87FE0000000003D
:101760000000000000000000000000000000000079
:101770000000000000000000000000000000000069
:101780000000000000FFFFF0FFFFF0FFFFF000F09F
:101790000000F00000F00000F00000F00000F00099
:1017A00000F00000F00000F00000F00000F0000089
:1017B000F00000F00000F00000F00000F00000F089
:1017C0000000F00000F00000F00000F00000F00069
:1017D00000F00000F0000000000000000000000029
:1017E00000000000000000000000000000000000F9
:1017F00000000000000000000000000000000000E9
:10180000000000000000000000F000F0F000F0F028
:1018100000F0F000F0F000F0F000F0F000F0F00068
:10182000F0F000F0F000F0F000F0F000F0F000F068
:10183000F000F0F000F0F000F0F000F0F000F0F058
:1018400000F0F000F07000E07801E07801E03C0387
:10185000C03F9F801FFF0007FC0000000000000049
:101860000000000000000000000000000000000078
:101870000000000000000000000000000000000068
:1018800000000000000000000000000000F0001C4C
:1018900070003C78003C7800383800783C00703CA0
:1018A00000701C00F01E00E01E01E00E01E00F01C0
:1018B000C00F03C00703C00703800787800387802A
:1018C00003870003CF0001CE0001CE0001EE00012E
:1018D000FC0000FC0000FC0000F8000078000000A4
:1018E00000000000000000000000000000000000F8
:1018F00000000000000000000000000000000000E8
:1019000000000000000000000000000000000000D7
:101910000000000000000000E003C007F003C00763
:10192000F003E00FF007E00F7007E00E7807E00E1D
:101930007807F01E780E701C380E701C3C0E703C40
:101940003C0E783C1C1C78381C1C38381C1C387821
:101950001E1838700E383C700E381C700E381CF093
:101960000F301CE007701EE007700EE007700EC01D
:1019700007600FC003E00FC003E007C003C007808B
:1019800003C007800000000000000000000000000D
:101990000000000000000000000000000000000047
:1019A0000000000000000000000000000000000037
:1019B0000000000000000000000000000000000027
:1019C000007800F07800F03C01E03C01C01E03C04C
:1019D0000E07800F0780078F00078E0003DE0001CF
:1019E000DC0001F80000F80000F80000F80001FC3D
:1019F0000003DC00039E00078F00070F000F078025
:101A00001E03C01C03C03C01E03801E07800F0F088
:101A1000007800000000000000000000000000004E
:101A200000000000000000000000000000000000B6
:101A300000000000000000000000000000000000A6
:101A40000000000000F000F0F000F07801E0780104
:101A5000E03C03C03C03801E07800E07000F0F0010
:101A6000070E00079C00039C0003F80001F800012A
:101A7000F00000F00000F00000F00000F00000F0C6
:101A80000000F00000F00000F00000F00000F000A6
:101A900000F00000F0000000000000000000000066
:101AA0000000000000000000000000000000000036
:101AB0000000000000000000000000000000000026
:101AC0000000000000000000007FFFF07FFFF07FBB
:101AD000FFE00001E00003C0000380000780000F6A
:101AE00000001E00001E00003C000078000078008E
:101AF00000F00001E00001E00003C00007800007E3
:101B000080000F00001E00001C00003C0000780058
:101B1000007FFFF0FFFFF0FFFFF00000000000007B
:101B200000000000000000000000000000000000B5
:101B3000000000000000000000000000000000FFA6
:101B4000FFE0E0E0E0E0E0E0E0E0E0E0E0E0E0E076
:101B5000E0E0E0E0E0E0E0E0E0E0E0E0FFFF000007
:101B60000000000000000000000000000000000075
:101B70000000E000700070003000380038001800ED
:101B80001C001C000E000E000600070007000300EA
:101B90000380038001C001C000C000E000E00060DD
:101BA00000700070003800380018001C00000000B1
:101BB0000000000000000000000000000000000025
:101BC000000000FEFE0E0E0E0E0E0E0E0E0E0E0E7F
:101BD0000E0E0E0E0E0E0E0E0E0E0E0E0E0E0E0E25
:101BE000FEFE0000000000000000000000000000F9
:101BF00000000000000000000000000000000000E5
:101C000001C00001E00001E00003F0000330000724
:101C100038000618000E1C000C1C001C0C001C0ECA
:101C2000001806003807003003007003806003804E
:101C3000E001C0E001C00000000000000000000062
:101C40000000000000000000000000000000000094
:101C50000000000000000000000000000000000084
:101C60000000000000000000000000000000000074
:101C70000000000000000000000000000000000064
:101C80000000000000000000000000000000000054
:101C90000000000000000000000000000000000044
:101CA0000000000000000000000000000000000034
:101CB0000000000000000000000000000000000024
:101CC0000000000000000000000000000000000014
:101CD0000000000000000000000000FFFFF0FFFF18
:101CE000F000000000000000000000000000000004
:101CF000000000000000F070381C1C0E0000000006
:101D000000000000000000000000000000000000D3
:101D100000000000000000000000000000000000C3
:101D200000000000000000000000000000000000B3
:101D3000000000000000000007E03FF83FFC303EDC
:101D4000001E000E000E000F03FF1FFF3F0F780F55
:101D5000700F700FF00FF00F701F7C7F3FEF1FC7E9
:101D60000000000000000000000000000000000073
:101D70000000000000000000000000000000000063
:101D8000000000000000E00000E00000E00000E0D3
:101D90000000E00000E00000E00000E00000E0F0F3
:101DA00000E7FC00EFFF00EE1F00F80780F003C023
:101DB000F003C0F003C0E001C0E001C0E001C0E0FA
:101DC00001C0E001C0F003C0F003C0F80780FC0FC1
:101DD00080EF3F00EFFE00E3F8000000000000008D
:101DE00000000000000000000000000000000000F3
:101DF00000000000000000000000000000000000E3
:101E000000000000000000000000000000000000D2
:101E10000000000001F80FFE1FFC3E047C0078006B
:101E2000F000F000E000E000E000E000E000F00082
:101E3000F00078007C003F9C1FFE07FC00000000C3
:101E40000000000000000000000000000000000092
:101E50000000000000000000000000000000000082
:101E600000000003C00003C00003C00003C0000363
:101E7000C00003C00003C00003C003E3C00FFBC0E9
:101E80001FFFC03C1FC07807C0F007C0F003C0E0D0
:101E900003C0E003C0E003C0E003C0E003C0E00310
:101EA000C0F003C0F003C07807C0780FC03F3DC04A
:101EB0001FF9C00FF1C0000000000000000000008A
:101EC0000000000000000000000000000000000012
:101ED0000000000000000000000000000000000002
:101EE00000000000000000000000000000000000F2
:101EF000000000000000000000000000000003E0FF
:101F0000000FF8001FFC003C1E00780F0070070057
:101F1000E00700E00700FFFF80FFFF80FFFF80E099
:101F20000000E00000E00000F00000700000780019
:101F3000003F0E001FFE0007FE0000000000000032
:101F40000000000000000000000000000000000091
:101F50000000000000000000000000000000000081
:101F6000000001F007F00FF01F001E001C003C00F5
:101F70003C003C003C00FFC0FFC03C003C003C007B
:101F80003C003C003C003C003C003C003C003C0071
:101F90003C003C003C003C003C003C0000000000D9
:101FA0000000000000000000000000000000000031
:101FB0000000000000000000000000000000000021
:101FC0000000000000000000000000000000000011
:101FD0000000000000000000000003E0000FFBC054
:101FE0001FFFC03C1F80780780F00780F00380E06F
:101FF0000380E00380E00380E00380E00380E003EF
:1020000080F00380F007807807807C1F803FFB8092
:102010001FF38007E3800003800003800007800037
:102020000700200F003C7E007FFC001FF000000036
:1020300000000000000000000000000000000000A0
:10204000E000E000E000E000E000E000E000E00090
:10205000E0F0E3FCEFFEEE3EF80FF00FF007E007D4
:10206000E007E007E007E007E007E007E007E00738
:10207000E007E007E007E0070000000000000000C4
:102080000000000000000000000000000000000050
:10209000000000E0F0F0E000000000E0E0E0E0E040
:1020A000E0E0E0E0E0E0E0E0E0E0E0E0E0E00000F0
:1020B0000000000000000000000000000000000020
:1020C00000000000000003800780078007800000F8
:1020D000000000000000078007800780078007805D
:1020E00007800780078007800780078007800780B8
:1020F00007800780078007800780078007800780A8
:1021000007000F000F007E00FC00F8000000000038
:10211000000000000000000000000000E000E000FF
:10212000E000E000E000E000E000E000E000E03C73
:10213000E078E0F0E0E0E1E0E3C0E780EF00EF000E
:10214000FF80FBC0F1E0E1E0E0F0E078E07CE03C23
:10215000E01EE00F00000000000000000000000092
:102160000000000000000000000000000000E0E0AF
:10217000E0E0E0E0E0E0E0E0E0E0E0E0E0E0E0E05F
:10218000E0E0E0E0E0E0E0E0E0E00000000000008F
:10219000000000000000000000000000000000003F
:1021A000000000000000000000000000000000002F
:1021B000000000000000000000000000000000001F
:1021C00000000000000000000000000001E01E0010
:1021D000E7F87F80EFFCFFC0FC3DC3E0F81F81E023
:1021E000F00F00E0F00F00E0E00F00F0E00E00F074
:1021F000E00E00F0E00E00F0E00E00F0E00E00F067
:10220000E00E00F0E00E00F0E00E00F0E00E00F056
:10221000E00E00F0E00E00F0E00E00F00000000024
:1022200000000000000000000000000000000000AE
:10223000000000000000000000000000000000009E
:10224000000000000000000000000000000000008E
:10225000000000000000000000000000000000007E
:1022600001F0E7FCEFFEFC3EF80FF00FF007F0077F
:10227000E007E007E007E007E007E007E007E00726
:10228000E007E007E007E0070000000000000000B2
:10229000000000000000000000000000000000003E
:1022A000000000000000000000000000000000002E
:1022B000000000000000000000000000000000001E
:1022C00000000000000003F0000FFC001FFE003CB7
:1022D0000F007807807003C0F003C0E003C0E00186
:1022E000C0E001C0E001C0E001C0E001C0F003C0F7
:1022F000F003C07807807C0F803E1F001FFE0007A0
:10230000F8000000000000000000000000000000D5
:1023100000000000000000000000000000000000BD
:1023200000000000000000000000000000000000AD
:10233000000000000000000000000000000000009D
:102340000000000000000000000000F000E7FC00BA
:10235000EFFF00FE1F00F80780F00780F003C0F0D9
:1023600003C0E001C0E001C0E001C0E001C0E00145
:10237000C0F003C0F003C0F00780F80F80EE3F000C
:10238000EFFE00E3F800E00000E00000E00000E005
:102390000000E00000E00000E00000E000000000BD
:1023A000000000000000000000000000000000002D
:1023B000000000000000000000000000000000001D
:1023C000000000000000000000000000000003E02A
:1023D000000FFBC01FFFC03E1FC07807C0F007C042
:1023E000F003C0E003C0E003C0E003C0E003C0E0CE
:1023F00003C0E003C0F003C0F003C0F007C0780FD3
:10240000C03E3FC01FFBC00FF3C00003C00003C0AD
:102410000003C00003C00003C00003C00003C000ED
:1024200003C00000000000000000000000000000E9
:10243000000000000000000000000000000000009C
:10244000000000000180E780EF80EF80F800F800D6
:10245000F000F000F000E000E000E000E000E0004C
:10246000E000E000E000E000E000E000000000002C
:10247000000000000000000000000000000000005C
:10248000000000000000000000000000000000004C
:102490000000000000000000000000000F803FE08E
:1024A0007FE07020F000F000F000F8007E003F8038
:1024B0001FC003E000F000700070007080F0E1E0E9
:1024C000FFE0FF80000000000000000000000000AE
:1024D00000000000000000000000000000000000FC
:1024E00000000000000000000000000004001C00CC
:1024F0001C001C001C00FFE0FFE01C001C001C0076
:102500001C001C001C001C001C001C001C001C00EB
:102510001C001C001E001FE00FE007E00000000090
:1025200000000000000000000000000000000000AB
:10253000000000000000000000000000000000009B
:102540000000000000000000000000000000E007A4
:10255000E007E007E007E007E007E007E007E00743
:10256000E007E007E007E007F00FF00F781F7EF7C5
:102570003FF71FC70000000000000000000000003F
:10258000000000000000000000000000000000004B
:10259000000000000000000000000000000000003B
:1025A000000000000000000000000000000000002B
:1025B0000000000000F003C0F0038070078078077F
:1025C00000780F00380F003C0E001C1E001C1C0081
:1025D0001E1C000E3C000E38000F3800077000076C
:1025E000700003F00003E00003E00001C000000001
:1025F00000000000000000000000000000000000DB
:1026000000000000000000000000000000000000CA
:1026100000000000000000000000000000000000BA
:1026200000000000000000000000000000000000AA
:10263000000000000000000000000000000000009A
:102640000000000000000000F00F00F0F00F00E0BC
:10265000701F00E0701F01E0781B81C0783B81C0D3
:10266000383983C03839C3803C71C3801C71C38042
:102670001C70E7001C60E7000EE0E7000EE066005B
:102680000EC07E0007C07E0007C03C0007803C00F3
:1026900007803C0000000000000000000000000077
:1026A000000000000000000000000000000000002A
:1026B000000000000000000000000000000000001A
:1026C000000000000000000000000000000000000A
:1026D00000000000000000000000000000000000FA
:1026E000000000000000000000F00F00780F00382C
:1026F0001E003C1C001E38000E78000F700007E022
:102700000003E00003E00007E00007F0000E78009F
:102710001E78003C3C00381E00781E00F00F00F0D0
:102720000780000000000000000000000000000022
:102730000000000000000000000000000000000099
:102740000000000000000000000000000000000089
:102750000000000000000000000000000000000079
:1027600000000000000000000000000000F00380F6
:10277000F00780700700780700780F00380E003CE3
:102780000E001C1E001C1C001E1C000E38000F3802
:10279000000F380007700007F00003E00003E000BE
:1027A00003E00001C00003C0000380000780000FA9
:1027B00000001E00007E00007C0000700000400051
:1027C0000000000000000000000000000000000009
:1027D00000000000000000000000000000000000F9
:1027E00000007FFE7FFE001E003C0078007000F0BD
:1027F00001E003C0078007800F001E003C003C0082
:102800007800FFFEFFFEFFFE000000000000000059
:1028100000000000000000000000000000000000B8
:102820000000000000000000000007800F801C0076
:102830001C001C0018001C001C001C001C001C00BC
:102840001C001C001C00F800E00078001C001C00AC
:102850001C001C001C001C001C001C0018001C009C
:102860001C001C000F80078000000000000000001A
:102870000000000000000000E0E0E0E0E0E0E0E058
:10288000E0E0E0E0E0E0E0E0E0E0E0E0E0E0E0E048
:10289000E0E0E0E0E0E0E0E0E0E0E0E0E0E0E0E038
:1028A0000000000000000000000000000000F80030
:1028B000FC001C000E000E000E000E000C000C00B0
:1028C0001C001C001C001C000E000F8003800F80E9
:1028D0000E001C001C001C001C000C000C000E0054
:1028E0000E000E000E001C00FC00F80000000000AE
:1028F00000000000000000000000000000000000D8
:1029000000000000000000000000000000000000C7
:1029100000000000000000000000000000000000B7
:1029200000000000000000000000000000000000A7
:10293000000000003F00707FE070F3F870E07FE07F
:10294000C01FC0C0038000000000000000000000A5
:102950000000000000000000000000000000000077
:102960000000000000000000000000000000000067
:102970000000000000000000000000000000000057
:102980000000000000000000000000000000000047
:102990000000000000000000000000000000000037
:1029A0000000000000000000000000000000000027
:1029B0000000000000000000000000000000000017
:1029C0000000000000000000000000000000000007
:1029D00000000000000000000000000000000000F7
:1029E00000000000000000000000000000000000E7
:1029F00000000000000000000000000000000000D7
:102A000000000000000000000000000000000000C6
:102A100000000000000000000000000000000000B6
:102A200078F8FCFC2C0C0C18102040000000000072
:102A300000000000000000000001C000066000046B
:102A400070000C70001870001800001800003800AA
:102A50000038000038000030000070000070000FE7
:102A6000FF8000700000700000700000700000F037
:102A70000000E00000E00000E00000E00000E000F6
:102A800000E00000E00000C00001C00001C0000143
:102A9000C00001C00001C000018000018000E18091
:102AA00000E30000E30000460000380000000000E2
:102AB0000000000000000000000000000000000016
:102AC0000000000000000000000000000000000006
:102AD00000000000000000000000000000000000F6
:102AE00000000000000000000000000000007078FE
:102AF000F8F8F8FCFC7C2C2C0C04080808081010D2
:102B000020104060000000000000000000000000F5
:102B100000000000000000000000000000000000B5
:102B200000000000000000000000000000000000A5
:102B300000000000000000000000008001C001C093
:102B400001C001C000800080008000806087FC9F81
:102B5000FFFF60870080008000800080008001C04F
:102B600001C003C001C001C001800080008000805E
:102B70000080008000800080008000800080008055
:102B80000080008000800080000000000000000045
:102B90000000008001C001C001C001C000800080B1
:102BA000008000806087FC9FFFFF608700800080BE
:102BB000008000800080018001C001C00180008091
:102BC0000080008000800100710FFFFFF08F008007
:102BD000008000800080018001C001C001C0018030
:102BE000000000000FC01FE03870E01C0000000073
:102BF00000000000000000000000000000000000D5
:102C000000000000000000000000000000000000C4
:102C100000000000000000000000000000000000B4
:102C200000000000000000000000000000000000A4
:102C30000000000000000000000000000000000094
:102C40000000000000000000000000000000000084
:102C5000000040000007C0C000000CE18000001C24
:102C60007E800000382180000030210000007023A9
:102C700000000070220000006022000000602600BA
:102C80000000E044000000E04C000000E0480000CC
:102C900000E08800000060980000006110F006006D
:102CA0007311D81F803E33083880002708708000D9
:102CB000660C6080004E0CE0C0004C0CC08000DC54
:102CC00009C080009C09C080019C0980800118090E
:102CD0008080011819818003181181000218118168
:102CE000000618218200040C40C600040FC0FC003E
:102CF0000C02003000000000000000000000000096
:102D000000000000000000000000000000000000C3
:102D100000000000000000001E0700071C0003F870
:102D20000000F00000000000000007F8800E0F8097
:102D30001807803803803001803000C03000C03078
:102D400000C03800403800003C00001E00001F801A
:102D5000000FC00007F00001F80000FC00003F0079
:102D6000001F80000F800007C00003C00001E0C00A
:102D700001E04000E04000E06000E06001C0700160
:102D8000C07803807E070063FE0000200000000082
:102D90000000000000000000000000000000000033
:102DA0000000000000000000000000000000000023
:102DB0000000000000000000000000000000008093
:102DC0000100030006000E000C001800380070001F
:102DD000F00038001C000C00060003000100008019
:102DE0000080000000000000000000000000000063
:102DF00000000000000000000000000000000000D3
:102E000000000000000000000000000000003E0084
:102E1000000001FFFFFFF807007C00F80C003C00F9
:102E20001818001C000810000C000830000C0008E6
:102E300070000C000060000C000060000C0000E05E
:102E4000000C0000E0000C0020E0000C0020E0007E
:102E50000C0060E0000C00E0E0000FFFE0E0000F7D
:102E6000FFE0E0000C0060E0000C0020E0000C003F
:102E700020E0000C0020E0000C0000E0000C00004E
:102E8000F0000C000070000C000070000C00033813
:102E9000000C00023C000C00061C000C00060E009A
:102EA0001E000C07803F003C03FBFFFFFC00FFFF00
:102EB000FFFC000000000000000000000000000017
:102EC0000000000000000000000000000000000002
:102ED00000000000000000000000000000000000F2
:102EE00000000000000000000000000000000000E2
:102EF00000000000000000000000000000000000D2
:102F000000000000000000000000000000000000C1
:102F100000000000000000000000000000000000B1
:102F200000000000000000000000000000000000A1
:102F30000000000000000000000000000000000091
:102F40000000000000000000000000000000000081
:102F50000000000000000000000000000000000071
:102F60000000000000000000000000000000000061
:102F70000000000000000000000000000000000051
:102F80000000000008102040404040F87C7C7C3865
:102F90000000000000000000000000000000000031
:102FA0000000000000000000000000000000000021
:102FB00030787CFC7C0404080810204000000000ED
:102FC0000000000000000000000000000000000001
:102FD00000000000000000000000000000000000F1
:102FE0000802100420084010401040104030F83E05
:102FF0007C1F7C1F7C1F380E0000000000000000BA
:1030000000000000000000000000000000000000C0
:1030100000000000000000000000000000000000B0
:1030200000000000000000000000000000000000A0
:103030000000000000000000301C781E7C3EFC3FB9
:103040007C1F04010401080208021004200840103B
:103050000000000000000000000000000000000070
:103060000000000000000000000000000000000060
:103070000000000000000000000000000000000050
:103080000000000000000000000000000000000040
:103090000000000000000000000000000000000030
:1030A0000000000000000000000000000000000020
:1030B0000000000000000000000000000000000010
:1030C0000000000000000000000000000000000000
:1030D000000000000000000000000000FFFC0000F5
:1030E00000000000000000000000000000000000E0
:1030F00000000000000000000000000000000000D0
:1031000000000000000000000000000000000000BF
:1031100000000000000000000000000000000000AF
:10312000000000000000000000000000000000009F
:10313000000000000000000000000000000000008F
:10314000000000000000000000000000000000007F
:10315000000000000000000000000000000000006F
:10316000000000000000000000000000000000005F
:10317000FFFFFFFFFEFFFFFFFFFE0000000000005B
:10318000000000000000000000000000000000003F
:10319000000000000000000000000000000000002F
:1031A000000000000000000000000000000000001F
:1031B000000000000000000000000000000000000F
:1031C00000000000000000000000000000000000FF
:1031D00000000000000000000000000000000000EF
:1031E0000000000000000000000038107E18C3F04E
:1031F00081E000000000000000000000000000006E
:1032000000000000000000000000000000000000BE
:1032100000000000000000000000000000000000AE
:10322000000000000000000000000000000000009E
:10323000000000000000000000000000000000008E
:10324000000000000000000000000000000000007E
:10325000000000000000000000FFFC78003EC30CEE
:103260001C007883041C007083041C00700300168B
:1032700000B003001600B003001301300300130177
:103280003003001183300300118230030011C2307B
:10329000030010C430030010C4300300106C30036E
:1032A00000106830030010783003001030300380C5
:1032B0001830300FE07C20FC00000000000000000F
:1032C00000000000000000000000000000000000FE
:1032D00000000000000000000000000000000000EE
:1032E00000000000000000000000000000000000DE
:1032F00000000000000000000000000000000000CE
:1033000000000000000000000000000000000000BD
:1033100000000000000000000000000000000000AD
:103320000000000000000000000000000000E01CA1
:1033300038701FE00FC00000000000000F80187000
:1033400020306030601060106010700038003E0067
:103350000F0007C003E000F0007840384018401824
:103360006018601070305FE0010000000000000095
:10337000000000000000000000000000000000004D
:10338000000000000000000000000000000000003D
:1033900000000000000080004000600030001800C5
:1033A0001C000E000700078007000E000C0018002C
:1033B000300020006000C00080000000000000001D
:1033C00000000000000000000000000000000000FD
:1033D00000000000000000000000000000000000ED
:1033E00000000000000000000000000000000000DD
:1033F0000000000000000780701CE1FC18638C30A6
:103400003306703606601E06601E03601FFFE01F55
:10341000FFC01C00C01C00C01C00C01C00C01C0061
:10342000601E01601E01601E0160370230370630E9
:10343000238E1863FC0FC1F8030060000000000039
:10344000000000000000000000000000000000007C
:10345000000000000000000000000000000000006C
:10346000000000000000000000000000000000005C
:10347000000000000000000000000000000000004C
:10348000000000000000000000000000000000003C
:10349000000000000000000000000000000000002C
:1034A000000000000000000001E03C0001E03C00E2
:1034B00001C038000000000000000000FFF00FF025
:1034C0001F8003C00F000380070003000380030078
:1034D0000380060001C0040001E00C0000E01800B9
:1034E000007018000070300000382000003C6000C0
:1034F000001CC000000EC000000F8000000700008C
:10350000000700000007000000070000000700009F
:10351000000700000007000000070000000700008F
:10352000000700000007000000070000000700007F
:10353000000F8000003FE00000FFF80000000000E6
:10354000000000000000000000000000000000007B
:10355000000000000000000000000000000000006B
:10356000000000000000000000000000000000005B
:10357000000000000000000000000000000000004B
:10358000000000000000000000000000000000003B
:1035900000002078F8F878000000007070707070FB
:1035A00070707070707070707070707070780000F3
:1035B000000000000000000000000000000000C04B
:1035C00000C000C000C003F80FFC1FFC3C047800E2
:1035D0007000F000E000E000E000E000E000F0003B
:1035E000F00078007C003E0C1FFC0FFC00E000C0E7
:1035F00000C000C000C0000000000000000000008B
:1036000000000000000000000000000000000000BA
:1036100000000000000000000000000000000000AA
:1036200001FF0003FF0007C6000700000F00000EA7
:1036300000000E00000E00000E00000E00000E0044
:10364000000E0000FFF800FFF80007000007000070
:103650000700000700000700000E00000E00001C1D
:1036600000003800007FFF80FFFF80FFFF80000028
:10367000000000000000000000000000000000004A
:10368000000000000000000000000000000000003A
:10369000000000000000000000000000000000002A
:1036A000000000000000000000000000000000809A
:1036B0006000C073F9C03FFF801E1F001C0F003860
:1036C00007003803803803803003803003803803DC
:1036D000803807003C07001E0E003FFF0077FB808C
:1036E000F1F1C06000800000000000000000000058
:1036F00000000000000000000000000000000000CA
:1037000000000000000000000000000000000000B9
:1037100000000000000000000000000000000000A9
:103720000000000000000000F001E0F003C078039A
:10373000803807803C07001C0F001E0E000E1C0086
:103740000F1C0007380003B80003F0007FFF807FE4
:10375000FF8001E00001E00001E0007FFF807FFFCB
:103760008001E00001E00001E00001E00001E00074
:1037700001E00001E0000000000000000000000087
:103780000000000000000000000000000000000039
:103790000000000000000000000000E0E0E0E0E0C9
:1037A000E0E0E0E0E0E0E0E0E0000000000000E059
:1037B000E0E0E0E0E0E0E0E0E0E0E0E0E0000000A9
:1037C000000000000000000000000000000007FCF6
:1037D0000FFE1E0C38003800380038003E001F80F5
:1037E0003FF073FC707EE01FE007F00778037E0770
:1037F0001F870FFE01FC007C001E000E000E000E55
:10380000000E301E3FFC1FF0000000000000000012
:1038100000000000000000000000000000000000A8
:103820000000000000006060F0F0F0F070E00000C8
:103830000000000000000000000000000000000088
:103840000000000000000000000000000000000078
:103850000000000000000000000000000000000068
:103860000000000000000000000000000000000058
:103870000000000000000000000000000000000048
:103880000000000000000000000000000000000038
:10389000007F000001FFC000078070000E003800AC
:1038A0001C001C00381F0E00307FC60070E0430073
:1038B000618003006180030063000180C300018018
:1038C000C3000180C3000180630003006380030024
:1038D0006180030070E04300307FC600181F0E00B7
:1038E0001C001C000E0038000780F00001FFC00023
:1038F000003E00000000000000000000000000008A
:1039000000000000000000000000000000000000B7
:1039100000000000000000000000000000000000A7
:103920000000000000000000000000000000000097
:10393000000000000E003F8031C000E000E007E022
:103940003FE070E060E0E0E0E0E07BE03F60080046
:103950000000000000000000000000000000000067
:103960000000000000000000000000000000000057
:103970000000000000000000000000000000000047
:103980000000000000000000000000000000000037
:1039900000000000000000000000071C0E181C388A
:1039A000187038E070E0E1C061C070E038601C70F1
:1039B0001C380E1C071C0000000000000000000066
:1039C00000000000000000000000000000000000F7
:1039D00000000000000000000000000000000000E7
:1039E00000000000000000000000000000000000D7
:1039F00000000000000000000000000000000000C7
:103A0000000000000000FFFFF0FFFFF000003000AA
:103A100000300000300000300000300000300000B6
:103A20003000003000003000000000000000000006
:103A30000000000000000000000000000000000086
:103A40000000000000000000000000000000000076
:103A50000000000000000000000000000000000066
:103A60000000000000000000000000000000000056
:103A70000000000000000000000000000000000046
:103A800000000000000000000000000000001FC057
:103A900030606030CF98C89888988F188998C898F7
:103AA000C8F060703FE00F800000000000000000E0
:103AB0000000000000000000000000000000000006
:103AC00000000000000000000000000000000000F6
:103AD00000000000000000000000000000000000E6
:103AE0000000000000000000FF80FF80FF80000059
:103AF00000000000000000000000000000000000C6
:103B000000000000000000000000000000000000B5
:103B100000000000000000000000000000000000A5
:103B20000000000000000000000000000000000095
:103B300000000000000000000000000000003F80C6
:103B40007BC060C0E0E0C060C060E0E061C03F807A
:103B50001F00000000000000000000000000000046
:103B60000000000000000000000000000000000055
:103B70000000000000000000000000000000000045
:103B80000000000000000000000000000000000035
:103B90000000000000000000000000000000000025
:103BA0000000000000000000000060000060000055
:103BB00060000060000060000060000060000060C5
:103BC00000FFFFF0FFFFF0006000006000006000F9
:103BD0000060000060000060000060000060000005
:103BE0000000000000000000FFFFF0FFFFF00000F9
:103BF00000000000000000000000000000000000C5
:103C000000000000000000000000000004003F80F1
:103C10007FC041E000E000E000E001C001C003809F
:103C200007000E001C0038007FE0FFE000000000ED
:103C30000000000000000000000000000000000084
:103C40000000000000000000000000000000000074
:103C50000000000000000000000000000000000064
:103C6000000000000800FF00FF8003C001C00380C7
:103C700007803E003F00038001C001C001C003C0B7
:103C8000FF80FF00000000000000000000000000B6
:103C90000000000000000000000000000000000024
:103CA0000000000000000000000000000000000014
:103CB0000000000000000000000000000000000004
:103CC00000001E1C3C3870E00000000000000000F6
:103CD00000000000000000000000000000000000E4
:103CE00000000000000000000000000000000000D4
:103CF00000000000000000000000000000000000C4
:103D000000000000000000000000000000000000B3
:103D10000000000000E00700E00700E00700E00707
:103D200000E00700E00700E00700E00700E0070010
:103D3000E00700E00700E00700F00700F00F00F0E8
:103D40000F00F81F00FEFF80FFF3C0EFE3C0E000AC
:103D500000E00000E00000E00000E00000E0000003
:103D6000E00000F000000000000000000000000083
:103D70000000000000000000000001FF0FFF1FE333
:103D80003FE37FE37FE37FE3FFE3FFE3FFE37FE3E3
:103D90007FE37FE33FE31FE30FE300E300E300E3A0
:103DA00000E300E300E300E300E300E300E300E3FB
:103DB00000E300E30000000000000000000000003D
:103DC00000000000000000000000000000000000F3
:103DD00000000000000000000070F0F8F07000002B
:103DE00000000000000000000000000000000000D3
:103DF00000000000000000000000000000000000C3
:103E000000000000000000000000000000000000B2
:103E1000000018383C1E0606FE7C0000003CFCDC5E
:103E20001C1C1C1C1C1C1C1C1C1C1C1C0000000042
:103E30000000000000000000000000000000000082
:103E40000000000000000000000000000000000072
:103E500000000000000000000000000007003FC05C
:103E600079E07070E070E030C030C030E030E07079
:103E700070707FE03FC00200000000000000000002
:103E80000000000000000000000000000000000032
:103E90000000000000000000000000000000000022
:103EA0000000000000000000000000000000000012
:103EB0000000000000000000000000000000000002
:103EC0000000C380E1C070C038E018701C380E38A4
:103ED0000E381C30387030E071C0E1C0C380000083
:103EE00000000000000000000000000000000000D2
:103EF00000000000000000000000000000000000C2
:103F000000000000000000000000000000000000B1
:103F100000000000000000003C003000FC00300009
:103F2000DC0060001C00E0001C00C0001C01C000A0
:103F30001C0180001C0300001C0300001C06000084
:103F40001C0607801C0C07801C1C0F801C181B8083
:103F50001C383B8000303380006063800060E38069
:103F600000C1C38001C383800183FFE00383FFE0BE
:103F70000300038006000380060003800C0003801A
:103F80000000000000000000000000000000000031
:103F90000000000000000000000000000000000021
:103FA0000000000000000000000000000000000011
:103FB0000000000000000000000000000000000001
:103FC00000000000000000003C003800FC00300051
:103FD000EC0070000C0060000C00C0000C00C00081
:103FE0000C0180000C0380000C0300000C07000093
:103FF0000C060F000C0C7FC00C0C73E00C1800E0DA
:104000000C3800E0003000E0007000E0006001C00B
:1040100000C001C000C003800180070001800E00C5
:1040200003001C000700380006007FE00E007FE060
:104030000000000000000000000000000000000080
:104040000000000000000000000000000000000070
:104050000000000000000000000000000000000060
:104060000000000000000000000000000000000050
:1040700000000000000000003F8006007FC00C0030
:1040800001C00C0000C0180001C0380003C030009F
:104090001F0070001F80600001C0C00000E0C00071
:1040A00000E181C000E383C001E307C07FC707C010
:1040B000FF860DC0080C1DC0000C39C0001871C06F
:1040C000003861C00030C1C00071FFF00061FFF036
:1040D00000E001C000C001C0018001C0018001C03A
:1040E00000000000000000000000000000000000D0
:1040F00000000000000000000000000000000000C0
:1041000000000000000000000000000000000000AF
:10411000000000000000000000000000000000009F
:10412000000000000100038007C007C003800000FA
:104130000000000000000380038003800780070068
:104140000F000E001E003C00780078007000F000A8
:10415000F000F00078107FF03FF81FE00000000052
:10416000000000000000000000000000000000004F
:104170000000000000007C00007C0000FC0000FE4D
:104180000000EE0001CE0001CF0001CF0003C70008
:104190000387800387800783800703C00703C00F5E
:1041A00001C00E01E00FFFE01FFFE01FFFF01C0049
:1041B000F03C007038007838007878003870003CA7
:1041C00070003CF0001C0000000000000000000037
:1041D00000000000000000000000000000000000DF
:1041E00000000000000000000000000000000000CF
:1041F000000000000000000000FFFE00FFFE00FFC6
:10420000FE00F00000F00000F00000F00000F00000
:1042100000F00000F00000FFE000FFF800FFFE00EB
:10422000F03F00F00F00F00780F00780F00380F00F
:104230000380F00380F00780F00780F00F00F01F8C
:1042400000F9FE00FFF800FFE000000000000000A1
:10425000000000000000000000000000000000005E
:10426000000000000000000000000000000000004E
:1042700000000000000000000000000000FFE0005F
:10428000FFF800FFFE00F01E00F00F00F00F00F03E
:104290000F00F00F00F00F00F00E00F01E00FFF80E
:1042A00000FFE000FFFC00F03E00F00F00F0070010
:1042B000F00780F00780F00780F00780F00780F0BB
:1042C0000F00F01F00F9FE00FFFC00FFE0000000FF
:1042D00000000000000000000000000000000000DE
:1042E00000000000000000000000000000000000CE
:1042F00000000000000000000000FFFCFFFCFFFCCD
:10430000F000F000F000F000F000F000F000F0002D
:10431000F000F000F000F000F000F000F000F0001D
:10432000F000F000F000F000F000F000F000F0000D
:10433000000000000000000000000000000000007D
:10434000000000000000000000000000000000006D
:1043500000000000000000000003FFF803FFF80366
:10436000FFF803C03803C03803C03803C03803C0A7
:104370003803C03803C03803C03803C0380380385E
:10438000038038038038038038038038078038077B
:1043900000380700380F00380E00381E00381C00A7
:1043A00038FFFFFFFFFFFF7FFFFF70000770000770
:1043B0007000077000076000076000070000000041
:1043C00000000000000000000000000000000000ED
:1043D000000000000000FFFEFFFEFFFEF000F00006
:1043E000F000F000F000F000F000F000FFFCFFFC37
:1043F000FFFCF000F000F000F000F000F000F00032
:10440000F000F000F000FFFEFFFEFFFE00000000E5
:10441000000000000000000000000000000000009C
:10442000000000000000000000000000000000008C
:10443000000000000000000000000000F007803CC9
:10444000780780783C0780F01C0780F01E0781E029
:104450000F0783C0070783800387870003C78F0088
:1044600001E78E0000E79C000077B800007FF800AD
:1044700003FFFF0007FFFF800F8783C01E0781E057
:104480001E0781E01C0780F03C0780F03807807031
:10449000780780787807807870078038F007803C4C
:1044A000F007803CE007801C0000000000000000D6
:1044B00000000000000000000000000000000000FC
:1044C00000000000000000000000000000000000EC
:1044D00000000000000000000000000000000000DC
:1044E00000000000001FF8007FFC007EFE00201F7F
:1044F00000000F00000F00000F00000F00000F0071
:10450000001E00003C0000F8000FE0000FF8000063
:10451000FE00001F00000F0000078000078000075A
:1045200080000780000780000F80401F007C7E0015
:10453000FFFC003FF0000000000000000000000051
:10454000000000000000000000000000000000006B
:10455000000000000000000000000000000000005B
:10456000000000000000000000E00070E000F0E04B
:1045700001F0E001F0E003F0E007F0E00770E00F89
:1045800070E01E70E01E70E03C70E03870E0787003
:10459000E0F070E0F070E1E070E1C070E3C070E75F
:1045A0008070E70070EF0070EE0070FE0070FC009D
:1045B00070F80070F80070F000700000000000005B
:1045C00000000000000000000000000000000000EB
:1045D0000000000000000000000000070600070EB9
:1045E00000038E0003FC0000F000000000E00070FB
:1045F000E000F0E001F0E001F0E003F0E007F0E0BF
:104600000770E00F70E01E70E01E70E03C70E03854
:1046100070E07870E0F070E0F070E1E070E1C070A0
:10462000E3C070E78070E70070EF0070EE0070FE8E
:104630000070FC0070F80070F80070F0007000006E
:10464000000000000000000000000000000000006A
:10465000000000000000000000000000000000005A
:10466000000000000000000000000000000000004A
:1046700000F007C0F00780F00F00F01E00F03C00D3
:10468000F03800F07800F0F000F1E000F1C000F345
:104690008000F78000FF0000FFE000FFF800F078E6
:1046A00000F03C00F01E00F01E00F00E00F00F00C5
:1046B000F00F00F00780F00780F00780F003C0F0F3
:1046C00003C0000000000000000000000000000027
:1046D00000000000000000000000000000000000DA
:1046E00000000000000000000000000000000000CA
:1046F000000000000007FFF807FFF807FFF80700B9
:1047000078070078070078070078070078070078B6
:104710000700780700780700780700780700780717
:1047200000780700780700780700780F00780F00FE
:10473000780F00780E00781E00783E0078FC007834
:10474000F80078F000780000000000000000000091
:104750000000000000000000000000000000000059
:104760000000000000000000000000000000000049
:104770000000000000000000000000000000000039
:104780003E0003C03E0007C03F0007C03F000FC00F
:104790003F000FC03F800FE03B801DE03B801DE0ED
:1047A0003BC01DE039C039E079C039E079E038E03C
:1047B00078E070E070E070E070F0F0E07070E0E0E1
:1047C0007070E0E07079C0E07039C0E07039C0E02E
:1047D000703D80E0701F80F0701F80F0701F00F04F
:1047E000700F00F0F00F00F0F00E00F0000000007D
:1047F00000000000000000000000000000000000B9
:1048000000000000000000000000000000000000A8
:104810000000000000000000000000000000000098
:10482000000000000000000000F00070F00070F0D8
:104830000070F00070F00070F00070F00070F00098
:1048400070F00070F00070F00070FFFFF0FFFFF0FC
:10485000FFFFF0F00070F00070F00070F00070F0FA
:104860000070F00070F00070F00070F00070F00068
:1048700070F00070F00070F00070000000000000A8
:104880000000000000000000000000000000000028
:104890000000000000000000000000000000000018
:1048A0000000000000000000000000000000000008
:1048B0000000000000FFC00003FFF00007F3F80055
:1048C0000F807C001E003E003E001E003C000F00DA
:1048D00038000F007800070078000780700007801C
:1048E00070000780F0000780F0000780F00007806C
:1048F000700007807000078078000780780007004C
:1049000078000F003C000F003E001E001E003C001F
:104910000F807C0007E3F80003FFE00000FFC00009
:104920000000000000000000000000000000000087
:104930000000000000000000000000000000000077
:104940000000000000000000000000000000000067
:1049500000000000000000000000000000FFFFF069
:10496000FFFFF0FFFFF0F000F0F000F0F000F0F0DB
:1049700000F0F000F0F000F0F000F0F000F0F000D7
:10498000F0F000F0F000F0F000F0F000F0F000F0D7
:10499000F000F0F000F0F000F0F000F0F000F0F0C7
:1049A00000F0F000F0F000F0F000F0F000F0000097
:1049B00000000000000000000000000000000000F7
:1049C00000000000000000000000000000000000E7
:1049D00000000000000000000000000000000000D7
:1049E00000FFE000FFFC00FFFE00F01F00F00F00E2
:1049F000F00700F00780F00780F00780F00780F0F4
:104A00000700F00F00F01E00F8FE00FFF800FFF0B6
:104A100000F00000F00000F00000F00000F00000E6
:104A2000F00000F00000F00000F00000F00000F0E6
:104A30000000000000000000000000000000000076
:104A40000000000000000000000000000000000066
:104A50000000000000000000000000000000000056
:104A60000000000000007FF001FFF803FFF00FC01E
:104A7000001F00001E00003C00003C000078000009
:104A8000780000700000700000F00000F00000F0FE
:104A900000007000007000007800007800007800CE
:104AA000003C00003E00001F00000FC00007FFF0A8
:104AB00003FFF800FFF0000000000000000000000D
:104AC00000000000000000000000000000000000E6
:104AD00000000000000000000000000000000000D6
:104AE000000000000000000000FFFFF0FFFFF0FFEB
:104AF000FFF000F00000F00000F00000F00000F017
:104B00000000F00000F00000F00000F00000F000F5
:104B100000F00000F00000F00000F00000F00000E5
:104B2000F00000F00000F00000F00000F00000F0E5
:104B30000000F00000F00000F000000000000000A5
:104B40000000000000000000000000000000000065
:104B50000000000000000000000000000000000055
:104B600000000000000000000000000000F00078DD
:104B70007800707800F03C00F03C00E01E01E01E80
:104B800001C00F01C00F03C00703800787800387A0
:104B90000003C70001CF0001EE0000EE0000FC00A2
:104BA000007C0000780000780000700000F0000039
:104BB000E00001E0000FC0003F80003F0000000067
:104BC00000000000000000000000000000000000E5
:104BD00000000000000000000000000000000000D5
:104BE00000000000000000000000000000000000C5
:104BF00000000000000E0000000E0000001F8000FA
:104C000001FFF00007FFFC000F8E3E001E0E0F009C
:104C10003C0E07803C0E0380780E03C0780E03C064
:104C2000700E01C0700E01C0F00E01E0F00E01E048
:104C3000F00E01E0700E01C0700E01C0780E03C0CE
:104C4000780E03C03C0E07803C0E07801F0E0F003D
:104C50000F8E3E0007FFFC0001FFF000001F000068
:104C6000000E0000000E0000000000000000000028
:104C70000000000000000000000000000000000034
:104C80000000000000000000000000000000000024
:104C90000000000000000000000000000000000014
:104CA000007800F07800F03C01E03C01C01E03C039
:104CB0000E07800F0780078F00078E0003DE0001BC
:104CC000DC0001F80000F80000F80000F80001FC2A
:104CD0000003DC00039E00078F00070F000F078012
:104CE0001E03C01C03C03C01E03801E07800F0F076
:104CF000007800000000000000000000000000003C
:104D000000000000000000000000000000000000A3
:104D10000000000000000000000000000000000093
:104D20000000000000E003C0E003C0E003C0E003B7
:104D3000C0E003C0E003C0E003C0E003C0E003C084
:104D4000E003C0E003C0F003C0F003C07807C07FF9
:104D5000FFC03FFFC00FF3C00003C00003C000034B
:104D6000C00003C00003C00003C00003C00003C0B4
:104D70000003C00003C000000000000000000000AD
:104D80000000000000000000000000000000000023
:104D90000000000000000000000000000000000013
:104DA0000000000000000000000000000000000003
:104DB000E00F00F0E00F00F0E00F00F0E00F00F077
:104DC000E00F00F0E00F00F0E00F00F0E00F00F067
:104DD000E00F00F0E00F00F0E00F00F0E00F00F057
:104DE000E00F00F0E00F00F0E00F00F0E00F00F047
:104DF000E00F00F0E00F00F0E00F00F0E00F00F037
:104E0000E00F00F0E00F00F0E00F00F0E00F00F026
:104E1000FFFFFFF0FFFFFFF0FFFFFFF000000000CB
:104E20000000000000000000000000000000000082
:104E30000000000000000000000000000000000072
:104E40000000000000000000000000000000000062
:104E50000000000000000000000000000000000052
:104E6000E00F00F0E00F00F0E00F00F0E00F00F0C6
:104E7000E00F00F0E00F00F0E00F00F0E00F00F0B6
:104E8000E00F00F0E00F00F0E00F00F0E00F00F0A6
:104E9000E00F00F0E00F00F0E00F00F0E00F00F096
:104EA000E00F00F0E00F00F0E00F00F0E00F00F086
:104EB000E00F00F0E00F00F0E00F00F0E00F00F076
:104EC000FFFFFFFCFFFFFFFCFFFFFFFC0000001CDB
:104ED0000000001C0000001C0000001C0000001C62
:104EE0000000001C000000000000000000000000A6
:104EF00000000000000000000000000000000000B2
:104F0000000000000000000000FFC000FFC000FF24
:104F1000C00001C00001C00001C00001C00001C00C
:104F20000001C00001C00001FFC001FFF001FFF857
:104F300001C07C01C03E01C01E01C00E01C00F01B6
:104F4000C00F01C00F01C00E01C01E01C01E01C074
:104F50007C01F3F801FFF001FFC000000000000039
:104F60000000000000000000000000000000000041
:104F70000000000000000000000000000000000031
:104F80000000000000000000000000000000000021
:104F900000000000E00F00F0E00F00F0E00F00F074
:104FA000E00F00F0E00F00F0E00F00F0E00F00F085
:104FB000E00F00F0E00F00F0E00F00F0E00F00F075
:104FC000E00F00F0E00F00F0E00F00F0E00F00F065
:104FD000E00F00F0E00F00F0E00F00F0E00F00F055
:104FE000E00F00F0E00F00F0E00F00F0E00F00F045
:104FF000E00F00F0FFFFFFFCFFFFFFFCFFFFFFFCE7
:105000000000001C0000001C0000001C0000001C30
:105010000000001C0000001C000000000000000058
:105020000000000000000000000000000000000080
:1050300000000000000000000000000000F0000F71
:10504000F0000FF0000FF0000FF0000FF0000FF075
:10505000000FF0000FF0000FF0000FFFE00FFFF85F
:105060000FFFFE0FF03F0FF00F0FF0078FF0078FCD
:10507000F0078FF0078FF0078FF0078FF0078FF0A2
:105080000F0FF01F0FF9FE0FFFF80FFFE00F0000EA
:105090000000000000000000000000000000000010
:1050A0000000000000000000000000000000000000
:1050B00000000000000000000000000000000000F0
:1050C00000F00000F00000F00000F00000F0000030
:1050D000F00000F00000F00000F00000F00000FF21
:1050E000E000FFFC00FFFE00F03F00F00F00F007C3
:1050F00080F00780F00380F00380F00380F00780E9
:10510000F00780F00F00F01F00F9FE00FFF800FF2D
:10511000E0000000000000000000000000000000AF
:10512000000000000000000000000000000000007F
:10513000000000000000000000000000000000006F
:1051400000000000003FF8007FFE007EFF00400FDF
:10515000800007C00003C00001E00001E00000F093
:105160000000F00000F00000F00FFFF00FFFF00F64
:10517000FFF00000F00000F00000F00000F000017F
:10518000E00001E00003C00007C0001F807DFF00B9
:10519000FFFC007FF00000000000000000000000A5
:1051A00000000000000000000000000000000000FF
:1051B00000000000000000000000000000000000EF
:1051C00000000000000000000000000000000000DF
:1051D000F003FF00F007FF80F01FCFC0F01E01E0DA
:1051E000F03C00F0F0780078F0700078F0F00038D3
:1051F000F0F0003CF0E0003CF0E0003CF0E0001C8F
:10520000FFE0001CFFE0001CFFE0001CF1E0001CC0
:10521000F0E0003CF0E0003CF0F0003CF0F0003842
:10522000F0700078F0780070F03C00F0F03E01E0A3
:10523000F01F8FC0F00FFF80F003FE0000000000A1
:10524000000000000000000000000000000000005E
:10525000000000000000000000000000000000004E
:10526000000000000000000000000000000000003E
:1052700000000000000000000003FFC00FFFC01F7F
:10528000FFC03E03C03803C07803C07803C0780372
:10529000C07803C07803C03C03C03E03C01F83C076
:1052A00007FFC003FFC007C3C00F03C01E03C01C1D
:1052B00003C03C03C03C03C03803C07803C078037C
:1052C000C07003C0F003C0F003C000000000000085
:1052D00000000000000000000000000000000000CE
:1052E00000000000000000000000000000000000BE
:1052F00000000000000000000000000000000000AE
:105300000000000007E03FF83FFC303E001E000EAA
:10531000000E000F03FF1FFF3F0F780F700F700F7D
:10532000F00FF00F701F7C7F3FEF1FC700000000E1
:10533000000000000000000000000000000000006D
:10534000000000000000000000000000000000005D
:105350000300007F0001FF0007FC000F80001E001B
:10536000003C0000780000700000700000E3F800CE
:10537000EFFE00FE3F00F80F00F00780F00780F01E
:105380000380E003C0E003C0E003C0E003C0F0031B
:1053900080F003807007807807803C0F003E3E005D
:1053A0001FFC0007F80000000000000000000000E3
:1053B00000000000000000000000000000000000ED
:1053C00000000000000000000000000000000000DD
:1053D00000000000000000000000000000000000CD
:1053E0001F00FFF0FFFCE03CE01EE01EE01CE03C84
:1053F000E0F8FFE0FFF8E07CE01EE00EE00EE00EDB
:10540000E01EE07CFFF8FFE000000000000000006C
:10541000000000000000000000000000000000008C
:10542000000000000000000000000000000000007C
:1054300000000000000000000000FFF0FFF0E000AE
:10544000E000E000E000E000E000E000E000E0005C
:10545000E000E000E000E000E000E000E000E0004C
:10546000000000000000000000000000000000003C
:10547000000000000000000000000000000000002C
:10548000000000000000000000000000000000001C
:10549000000000000000000000000000000000000C
:1054A0000007FFC007FFC00703C00703C00703C012
:1054B0000703C00703C00703C00703C00703C00FEB
:1054C00003C00E03C00E03C01E03C01C03C03C0378
:1054D000C0FFFFF0FFFFF0FFFFF0E00070E00070A2
:1054E000E00070E00070E00070E00070000000007C
:1054F00000000000000000000000000000000000AC
:10550000000000000000000000000000000000009B
:10551000000000000000000000000000000000008B
:10552000000003E0000FF8001FFC003C1E00780F95
:1055300000700700E00700E00700FFFF80FFFF802A
:10554000FFFF80E00000E00000E00000F0000070DD
:1055500000007800003F0E001FFE0007FE00000064
:10556000000000000000000000000000000000003B
:10557000000000000000000000000000000000002B
:10558000000000000000000000000000000000001B
:10559000000000000000000000000000000000000B
:1055A00000000000000000000000000000000000FB
:1055B0000000000000000000780E07803C0E07800D
:1055C0001E0E0F000E0E1E00070E3C00038E38004C
:1055D00001CE700001EEE00000FFE00007FFF800E0
:1055E0000FCE7E001E0E1E001E0E0F003C0E07008A
:1055F0003C0E0780380E0780780E0380700E03C0C3
:10560000F00E01C0000000000000000000000000DB
:10561000000000000000000000000000000000008A
:10562000000000000000000000000000000000007A
:10563000000000000000000000000000000000006A
:10564000000000000000000007C03FF07FF8607C11
:10565000003C003C003C007801F00FC00FF000F867
:10566000003C001E001E001E003C70FCFFF87FE0A6
:10567000000000000000000000000000000000002A
:10568000000000000000000000000000000000001A
:10569000000000000000000000000000000000000A
:1056A0000000E00FE01FE01FE03FE077E077E0E779
:1056B000E1E7E1C7E3C7E387E707E707EE07EE07A0
:1056C000FC07F807F807F0070000000000000000E2
:1056D00000000000000000000000000000000000CA
:1056E000000000000000000000001C181C380E78AC
:1056F0000FF003C0000000000000E00FE01FE01FFB
:10570000E03FE077E077E0E7E1E7E1C7E3C7E38781
:10571000E707E707EE07EE07FC07F807F807F007CB
:105720000000000000000000000000000000000079
:105730000000000000000000000000000000000069
:105740000000000000000000000000000000000059
:105750000000E01EE03CE078E0F0E1E0E3C0E38040
:10576000E700FF00FFC0E7F0E0F0E078E03CE03C5D
:10577000E01CE01EE00EE00F000000000000000052
:105780000000000000000000000000000000000019
:105790000000000000000000000000000000000009
:1057A00000000000000000000000000000000000F9
:1057B0000000000000000000000FFF800FFF800EBF
:1057C00003800E03800E03800E03800E03800E0301
:1057D000800E03800E03800E03800E03800E038074
:1057E0001E03801E03803C0380FC0380F80380F0CE
:1057F0000380000000000000000000000000000026
:105800000000000000000000000000000000000098
:105810000000000000000000000000000000000088
:105820000000000000000000000000000000000078
:10583000000000000000000000000000007C00F8F4
:105840007C00F87E01F87E01B87E03B87703B87754
:105850000338770738F38738E38638E38E38E1CEAC
:1058600038E1CC38E1DC3CE0F83CE0F83CE0F83CE6
:10587000E0703CE0701C0000000000000000000030
:105880000000000000000000000000000000000018
:105890000000000000000000000000000000000008
:1058A00000000000000000000000000000000000F8
:1058B0000000E00FE00FE00FE00FE00FE00FE00F5F
:1058C000FFFFFFFFFFFFE00FE00FE00FE00FE00F33
:1058D000E00FE00FE00FE00F00000000000000000C
:1058E00000000000000000000000000000000000B8
:1058F00000000000000000000000000000000000A8
:105900000000000000000000000000000000000097
:1059100000000000000003F0000FFC001FFE003C30
:105920000F007807807003C0F003C0E003C0E001FF
:10593000C0E001C0E001C0E001C0E001C0F003C070
:10594000F003C07807807C0F803E1F001FFE000719
:10595000F80000000000000000000000000000004F
:105960000000000000000000000000000000000037
:105970000000000000000000000000000000000027
:105980000000000000000000000000000000FFFF19
:10599000FFFFE00FE00FE00FE00FE00FE00FE00F80
:1059A000E00FE00FE00FE00FE00FE00FE00FE00F7F
:1059B000E00FE00F00000000000000000000000009
:1059C00000000000000000000000000000000000D7
:1059D00000000000000000000000000000000000C7
:1059E00000000000000000000000000000000000B7
:1059F000000000F000E7FC00EFFF00FE1F00F807CA
:105A000080F00780F003C0F003C0E001C0E001C0F7
:105A1000E001C0E001C0E001C0F003C0F003C0F04D
:105A20000780F80F80EE3F00EFFE00E3F800E00093
:105A300000E00000E00000E00000E00000E0000006
:105A4000E00000E000000000000000000000000096
:105A50000000000000000000000000000000000046
:105A6000000000000000000001F80FFE1FFC3E04D3
:105A70007C007800F000F000E000E000E000E000D2
:105A8000E000F000F00078007C003F9C1FFE07FC67
:105A90000000000000000000000000000000000006
:105AA00000000000000000000000000000000000F6
:105AB00000000000000000000000000000000000E6
:105AC0000000FFFFFFFF03C003C003C003C003C00B
:105AD00003C003C003C003C003C003C003C003C0AE
